{
	"contracts/functioncontract.sol": {
		"payablecontract": {
			"abi": [
				{
					"inputs": [],
					"name": "gettotalammount",
					"outputs": [
						{
							"internalType": "uint256",
							"name": "",
							"type": "uint256"
						}
					],
					"stateMutability": "view",
					"type": "function"
				},
				{
					"inputs": [],
					"name": "receivedether",
					"outputs": [],
					"stateMutability": "payable",
					"type": "function"
				}
			],
			"devdoc": {
				"kind": "dev",
				"methods": {},
				"version": 1
			},
			"evm": {
				"assembly": "    /* \"contracts/functioncontract.sol\":402:651  contract payablecontract{... */\n  mstore(0x40, 0x80)\n  callvalue\n  dup1\n  iszero\n  tag_1\n  jumpi\n  revert(0x00, 0x00)\ntag_1:\n  pop\n  dataSize(sub_0)\n  dup1\n  dataOffset(sub_0)\n  0x00\n  codecopy\n  0x00\n  return\nstop\n\nsub_0: assembly {\n        /* \"contracts/functioncontract.sol\":402:651  contract payablecontract{... */\n      mstore(0x40, 0x80)\n      jumpi(tag_1, lt(calldatasize, 0x04))\n      shr(0xe0, calldataload(0x00))\n      dup1\n      0x014bbb96\n      eq\n      tag_2\n      jumpi\n      dup1\n      0x504b5e7c\n      eq\n      tag_3\n      jumpi\n    tag_1:\n      revert(0x00, 0x00)\n        /* \"contracts/functioncontract.sol\":462:548  function receivedether() payable public {... */\n    tag_2:\n      tag_4\n      tag_5\n      jump\t// in\n    tag_4:\n      stop\n        /* \"contracts/functioncontract.sol\":554:648  function gettotalammount() public view returns (uint){... */\n    tag_3:\n      callvalue\n      dup1\n      iszero\n      tag_6\n      jumpi\n      revert(0x00, 0x00)\n    tag_6:\n      pop\n      tag_7\n      tag_8\n      jump\t// in\n    tag_7:\n      mload(0x40)\n      tag_9\n      swap2\n      swap1\n      tag_10\n      jump\t// in\n    tag_9:\n      mload(0x40)\n      dup1\n      swap2\n      sub\n      swap1\n      return\n        /* \"contracts/functioncontract.sol\":462:548  function receivedether() payable public {... */\n    tag_5:\n        /* \"contracts/functioncontract.sol\":531:540  msg.value */\n      callvalue\n        /* \"contracts/functioncontract.sol\":513:528  receivedammount */\n      0x00\n        /* \"contracts/functioncontract.sol\":513:540  receivedammount = msg.value */\n      dup2\n      swap1\n      sstore\n      pop\n        /* \"contracts/functioncontract.sol\":462:548  function receivedether() payable public {... */\n      jump\t// out\n        /* \"contracts/functioncontract.sol\":554:648  function gettotalammount() public view returns (uint){... */\n    tag_8:\n        /* \"contracts/functioncontract.sol\":602:606  uint */\n      0x00\n        /* \"contracts/functioncontract.sol\":625:640  receivedammount */\n      sload(0x00)\n        /* \"contracts/functioncontract.sol\":618:640  return receivedammount */\n      swap1\n      pop\n        /* \"contracts/functioncontract.sol\":554:648  function gettotalammount() public view returns (uint){... */\n      swap1\n      jump\t// out\n        /* \"#utility.yul\":7:84   */\n    tag_13:\n        /* \"#utility.yul\":44:51   */\n      0x00\n        /* \"#utility.yul\":73:78   */\n      dup2\n        /* \"#utility.yul\":62:78   */\n      swap1\n      pop\n        /* \"#utility.yul\":7:84   */\n      swap2\n      swap1\n      pop\n      jump\t// out\n        /* \"#utility.yul\":90:208   */\n    tag_14:\n        /* \"#utility.yul\":177:201   */\n      tag_18\n        /* \"#utility.yul\":195:200   */\n      dup2\n        /* \"#utility.yul\":177:201   */\n      tag_13\n      jump\t// in\n    tag_18:\n        /* \"#utility.yul\":172:175   */\n      dup3\n        /* \"#utility.yul\":165:202   */\n      mstore\n        /* \"#utility.yul\":90:208   */\n      pop\n      pop\n      jump\t// out\n        /* \"#utility.yul\":214:436   */\n    tag_10:\n        /* \"#utility.yul\":307:311   */\n      0x00\n        /* \"#utility.yul\":345:347   */\n      0x20\n        /* \"#utility.yul\":334:343   */\n      dup3\n        /* \"#utility.yul\":330:348   */\n      add\n        /* \"#utility.yul\":322:348   */\n      swap1\n      pop\n        /* \"#utility.yul\":358:429   */\n      tag_20\n        /* \"#utility.yul\":426:427   */\n      0x00\n        /* \"#utility.yul\":415:424   */\n      dup4\n        /* \"#utility.yul\":411:428   */\n      add\n        /* \"#utility.yul\":402:408   */\n      dup5\n        /* \"#utility.yul\":358:429   */\n      tag_14\n      jump\t// in\n    tag_20:\n        /* \"#utility.yul\":214:436   */\n      swap3\n      swap2\n      pop\n      pop\n      jump\t// out\n\n    auxdata: 0xa2646970667358221220d89f391fcfa5d14bfc09b4a07b3b57886634d81ae31c369715648a50b34b28b064736f6c634300081c0033\n}\n",
				"bytecode": {
					"linkReferences": {},
					"object": "6080604052348015600e575f5ffd5b5060c980601a5f395ff3fe6080604052600436106025575f3560e01c8063014bbb96146029578063504b5e7c146031575b5f5ffd5b602f6056565b005b348015603b575f5ffd5b506042605e565b604051604d9190607c565b60405180910390f35b345f81905550565b5f5f54905090565b5f819050919050565b6076816066565b82525050565b5f602082019050608d5f830184606f565b9291505056fea2646970667358221220d89f391fcfa5d14bfc09b4a07b3b57886634d81ae31c369715648a50b34b28b064736f6c634300081c0033",
					"opcodes": "PUSH1 0x80 PUSH1 0x40 MSTORE CALLVALUE DUP1 ISZERO PUSH1 0xE JUMPI PUSH0 PUSH0 REVERT JUMPDEST POP PUSH1 0xC9 DUP1 PUSH1 0x1A PUSH0 CODECOPY PUSH0 RETURN INVALID PUSH1 0x80 PUSH1 0x40 MSTORE PUSH1 0x4 CALLDATASIZE LT PUSH1 0x25 JUMPI PUSH0 CALLDATALOAD PUSH1 0xE0 SHR DUP1 PUSH4 0x14BBB96 EQ PUSH1 0x29 JUMPI DUP1 PUSH4 0x504B5E7C EQ PUSH1 0x31 JUMPI JUMPDEST PUSH0 PUSH0 REVERT JUMPDEST PUSH1 0x2F PUSH1 0x56 JUMP JUMPDEST STOP JUMPDEST CALLVALUE DUP1 ISZERO PUSH1 0x3B JUMPI PUSH0 PUSH0 REVERT JUMPDEST POP PUSH1 0x42 PUSH1 0x5E JUMP JUMPDEST PUSH1 0x40 MLOAD PUSH1 0x4D SWAP2 SWAP1 PUSH1 0x7C JUMP JUMPDEST PUSH1 0x40 MLOAD DUP1 SWAP2 SUB SWAP1 RETURN JUMPDEST CALLVALUE PUSH0 DUP2 SWAP1 SSTORE POP JUMP JUMPDEST PUSH0 PUSH0 SLOAD SWAP1 POP SWAP1 JUMP JUMPDEST PUSH0 DUP2 SWAP1 POP SWAP2 SWAP1 POP JUMP JUMPDEST PUSH1 0x76 DUP2 PUSH1 0x66 JUMP JUMPDEST DUP3 MSTORE POP POP JUMP JUMPDEST PUSH0 PUSH1 0x20 DUP3 ADD SWAP1 POP PUSH1 0x8D PUSH0 DUP4 ADD DUP5 PUSH1 0x6F JUMP JUMPDEST SWAP3 SWAP2 POP POP JUMP INVALID LOG2 PUSH5 0x6970667358 0x22 SLT KECCAK256 0xD8 SWAP16 CODECOPY 0x1F 0xCF 0xA5 0xD1 0x4B 0xFC MULMOD 0xB4 LOG0 PUSH28 0x3B57886634D81AE31C369715648A50B34B28B064736F6C634300081C STOP CALLER "
				},
				"gasEstimates": {
					"creation": {
						"codeDepositCost": "40200",
						"executionCost": "91",
						"totalCost": "40291"
					},
					"external": {
						"gettotalammount()": "2431",
						"receivedether()": "22209"
					}
				},
				"methodIdentifiers": {
					"gettotalammount()": "504b5e7c",
					"receivedether()": "014bbb96"
				}
			},
			"storageLayout": {
				"storage": [
					{
						"astId": 40,
						"contract": "contracts/functioncontract.sol:payablecontract",
						"label": "receivedammount",
						"offset": 0,
						"slot": "0",
						"type": "t_uint256"
					}
				],
				"types": {
					"t_uint256": {
						"encoding": "inplace",
						"label": "uint256",
						"numberOfBytes": "32"
					}
				}
			},
			"userdoc": {
				"kind": "user",
				"methods": {},
				"version": 1
			}
		}
	}
}