{
	"contracts/functioncontract.sol": {
		"HelloWorld": {
			"abi": [
				{
					"inputs": [],
					"name": "cetakHello",
					"outputs": [
						{
							"internalType": "string",
							"name": "",
							"type": "string"
						}
					],
					"stateMutability": "pure",
					"type": "function"
				},
				{
					"inputs": [],
					"name": "getHasil",
					"outputs": [
						{
							"internalType": "uint256",
							"name": "",
							"type": "uint256"
						}
					],
					"stateMutability": "view",
					"type": "function"
				},
				{
					"inputs": [
						{
							"internalType": "uint256",
							"name": "a",
							"type": "uint256"
						},
						{
							"internalType": "uint256",
							"name": "b",
							"type": "uint256"
						}
					],
					"name": "tambah",
					"outputs": [],
					"stateMutability": "nonpayable",
					"type": "function"
				}
			],
			"devdoc": {
				"kind": "dev",
				"methods": {},
				"version": 1
			},
			"evm": {
				"assembly": "    /* \"contracts/functioncontract.sol\":27:396  contract HelloWorld {... */\n  mstore(0x40, 0x80)\n  callvalue\n  dup1\n  iszero\n  tag_1\n  jumpi\n  revert(0x00, 0x00)\ntag_1:\n  pop\n  dataSize(sub_0)\n  dup1\n  dataOffset(sub_0)\n  0x00\n  codecopy\n  0x00\n  return\nstop\n\nsub_0: assembly {\n        /* \"contracts/functioncontract.sol\":27:396  contract HelloWorld {... */\n      mstore(0x40, 0x80)\n      callvalue\n      dup1\n      iszero\n      tag_1\n      jumpi\n      revert(0x00, 0x00)\n    tag_1:\n      pop\n      jumpi(tag_2, lt(calldatasize, 0x04))\n      shr(0xe0, calldataload(0x00))\n      dup1\n      0xaf8a6c91\n      eq\n      tag_3\n      jumpi\n      dup1\n      0xf06bf1d2\n      eq\n      tag_4\n      jumpi\n      dup1\n      0xf604bf57\n      eq\n      tag_5\n      jumpi\n    tag_2:\n      revert(0x00, 0x00)\n        /* \"contracts/functioncontract.sol\":75:172  function cetakHello() public pure returns (string memory) {... */\n    tag_3:\n      tag_6\n      tag_7\n      jump\t// in\n    tag_6:\n      mload(0x40)\n      tag_8\n      swap2\n      swap1\n      tag_9\n      jump\t// in\n    tag_8:\n      mload(0x40)\n      dup1\n      swap2\n      sub\n      swap1\n      return\n        /* \"contracts/functioncontract.sol\":315:393  function getHasil() public view returns (uint) {... */\n    tag_4:\n      tag_10\n      tag_11\n      jump\t// in\n    tag_10:\n      mload(0x40)\n      tag_12\n      swap2\n      swap1\n      tag_13\n      jump\t// in\n    tag_12:\n      mload(0x40)\n      dup1\n      swap2\n      sub\n      swap1\n      return\n        /* \"contracts/functioncontract.sol\":180:307  function tambah(uint a, uint b) public {... */\n    tag_5:\n      tag_14\n      0x04\n      dup1\n      calldatasize\n      sub\n      dup2\n      add\n      swap1\n      tag_15\n      swap2\n      swap1\n      tag_16\n      jump\t// in\n    tag_15:\n      tag_17\n      jump\t// in\n    tag_14:\n      stop\n        /* \"contracts/functioncontract.sol\":75:172  function cetakHello() public pure returns (string memory) {... */\n    tag_7:\n        /* \"contracts/functioncontract.sol\":118:131  string memory */\n      0x60\n        /* \"contracts/functioncontract.sol\":144:164  return \"Hello World\" */\n      mload(0x40)\n      dup1\n      0x40\n      add\n      0x40\n      mstore\n      dup1\n      0x0b\n      dup2\n      mstore\n      0x20\n      add\n      0x48656c6c6f20576f726c64000000000000000000000000000000000000000000\n      dup2\n      mstore\n      pop\n      swap1\n      pop\n        /* \"contracts/functioncontract.sol\":75:172  function cetakHello() public pure returns (string memory) {... */\n      swap1\n      jump\t// out\n        /* \"contracts/functioncontract.sol\":315:393  function getHasil() public view returns (uint) {... */\n    tag_11:\n        /* \"contracts/functioncontract.sol\":356:360  uint */\n      0x00\n        /* \"contracts/functioncontract.sol\":380:385  hasil */\n      sload(0x00)\n        /* \"contracts/functioncontract.sol\":373:385  return hasil */\n      swap1\n      pop\n        /* \"contracts/functioncontract.sol\":315:393  function getHasil() public view returns (uint) {... */\n      swap1\n      jump\t// out\n        /* \"contracts/functioncontract.sol\":180:307  function tambah(uint a, uint b) public {... */\n    tag_17:\n        /* \"contracts/functioncontract.sol\":257:266  uint temp */\n      0x00\n        /* \"contracts/functioncontract.sol\":273:274  b */\n      dup2\n        /* \"contracts/functioncontract.sol\":269:270  a */\n      dup4\n        /* \"contracts/functioncontract.sol\":269:274  a + b */\n      tag_21\n      swap2\n      swap1\n      tag_22\n      jump\t// in\n    tag_21:\n        /* \"contracts/functioncontract.sol\":257:274  uint temp = a + b */\n      swap1\n      pop\n        /* \"contracts/functioncontract.sol\":295:299  temp */\n      dup1\n        /* \"contracts/functioncontract.sol\":287:292  hasil */\n      0x00\n        /* \"contracts/functioncontract.sol\":287:299  hasil = temp */\n      dup2\n      swap1\n      sstore\n      pop\n        /* \"contracts/functioncontract.sol\":219:307  {... */\n      pop\n        /* \"contracts/functioncontract.sol\":180:307  function tambah(uint a, uint b) public {... */\n      pop\n      pop\n      jump\t// out\n        /* \"#utility.yul\":7:106   */\n    tag_23:\n        /* \"#utility.yul\":59:65   */\n      0x00\n        /* \"#utility.yul\":93:98   */\n      dup2\n        /* \"#utility.yul\":87:99   */\n      mload\n        /* \"#utility.yul\":77:99   */\n      swap1\n      pop\n        /* \"#utility.yul\":7:106   */\n      swap2\n      swap1\n      pop\n      jump\t// out\n        /* \"#utility.yul\":112:281   */\n    tag_24:\n        /* \"#utility.yul\":196:207   */\n      0x00\n        /* \"#utility.yul\":230:236   */\n      dup3\n        /* \"#utility.yul\":225:228   */\n      dup3\n        /* \"#utility.yul\":218:237   */\n      mstore\n        /* \"#utility.yul\":270:274   */\n      0x20\n        /* \"#utility.yul\":265:268   */\n      dup3\n        /* \"#utility.yul\":261:275   */\n      add\n        /* \"#utility.yul\":246:275   */\n      swap1\n      pop\n        /* \"#utility.yul\":112:281   */\n      swap3\n      swap2\n      pop\n      pop\n      jump\t// out\n        /* \"#utility.yul\":287:426   */\n    tag_25:\n        /* \"#utility.yul\":376:382   */\n      dup3\n        /* \"#utility.yul\":371:374   */\n      dup2\n        /* \"#utility.yul\":366:369   */\n      dup4\n        /* \"#utility.yul\":360:383   */\n      mcopy\n        /* \"#utility.yul\":417:418   */\n      0x00\n        /* \"#utility.yul\":408:414   */\n      dup4\n        /* \"#utility.yul\":403:406   */\n      dup4\n        /* \"#utility.yul\":399:415   */\n      add\n        /* \"#utility.yul\":392:419   */\n      mstore\n        /* \"#utility.yul\":287:426   */\n      pop\n      pop\n      pop\n      jump\t// out\n        /* \"#utility.yul\":432:534   */\n    tag_26:\n        /* \"#utility.yul\":473:479   */\n      0x00\n        /* \"#utility.yul\":524:526   */\n      0x1f\n        /* \"#utility.yul\":520:527   */\n      not\n        /* \"#utility.yul\":515:517   */\n      0x1f\n        /* \"#utility.yul\":508:513   */\n      dup4\n        /* \"#utility.yul\":504:518   */\n      add\n        /* \"#utility.yul\":500:528   */\n      and\n        /* \"#utility.yul\":490:528   */\n      swap1\n      pop\n        /* \"#utility.yul\":432:534   */\n      swap2\n      swap1\n      pop\n      jump\t// out\n        /* \"#utility.yul\":540:917   */\n    tag_27:\n        /* \"#utility.yul\":628:631   */\n      0x00\n        /* \"#utility.yul\":656:695   */\n      tag_42\n        /* \"#utility.yul\":689:694   */\n      dup3\n        /* \"#utility.yul\":656:695   */\n      tag_23\n      jump\t// in\n    tag_42:\n        /* \"#utility.yul\":711:782   */\n      tag_43\n        /* \"#utility.yul\":775:781   */\n      dup2\n        /* \"#utility.yul\":770:773   */\n      dup6\n        /* \"#utility.yul\":711:782   */\n      tag_24\n      jump\t// in\n    tag_43:\n        /* \"#utility.yul\":704:782   */\n      swap4\n      pop\n        /* \"#utility.yul\":791:856   */\n      tag_44\n        /* \"#utility.yul\":849:855   */\n      dup2\n        /* \"#utility.yul\":844:847   */\n      dup6\n        /* \"#utility.yul\":837:841   */\n      0x20\n        /* \"#utility.yul\":830:835   */\n      dup7\n        /* \"#utility.yul\":826:842   */\n      add\n        /* \"#utility.yul\":791:856   */\n      tag_25\n      jump\t// in\n    tag_44:\n        /* \"#utility.yul\":881:910   */\n      tag_45\n        /* \"#utility.yul\":903:909   */\n      dup2\n        /* \"#utility.yul\":881:910   */\n      tag_26\n      jump\t// in\n    tag_45:\n        /* \"#utility.yul\":876:879   */\n      dup5\n        /* \"#utility.yul\":872:911   */\n      add\n        /* \"#utility.yul\":865:911   */\n      swap2\n      pop\n        /* \"#utility.yul\":632:917   */\n      pop\n        /* \"#utility.yul\":540:917   */\n      swap3\n      swap2\n      pop\n      pop\n      jump\t// out\n        /* \"#utility.yul\":923:1236   */\n    tag_9:\n        /* \"#utility.yul\":1036:1040   */\n      0x00\n        /* \"#utility.yul\":1074:1076   */\n      0x20\n        /* \"#utility.yul\":1063:1072   */\n      dup3\n        /* \"#utility.yul\":1059:1077   */\n      add\n        /* \"#utility.yul\":1051:1077   */\n      swap1\n      pop\n        /* \"#utility.yul\":1123:1132   */\n      dup2\n        /* \"#utility.yul\":1117:1121   */\n      dup2\n        /* \"#utility.yul\":1113:1133   */\n      sub\n        /* \"#utility.yul\":1109:1110   */\n      0x00\n        /* \"#utility.yul\":1098:1107   */\n      dup4\n        /* \"#utility.yul\":1094:1111   */\n      add\n        /* \"#utility.yul\":1087:1134   */\n      mstore\n        /* \"#utility.yul\":1151:1229   */\n      tag_47\n        /* \"#utility.yul\":1224:1228   */\n      dup2\n        /* \"#utility.yul\":1215:1221   */\n      dup5\n        /* \"#utility.yul\":1151:1229   */\n      tag_27\n      jump\t// in\n    tag_47:\n        /* \"#utility.yul\":1143:1229   */\n      swap1\n      pop\n        /* \"#utility.yul\":923:1236   */\n      swap3\n      swap2\n      pop\n      pop\n      jump\t// out\n        /* \"#utility.yul\":1242:1319   */\n    tag_28:\n        /* \"#utility.yul\":1279:1286   */\n      0x00\n        /* \"#utility.yul\":1308:1313   */\n      dup2\n        /* \"#utility.yul\":1297:1313   */\n      swap1\n      pop\n        /* \"#utility.yul\":1242:1319   */\n      swap2\n      swap1\n      pop\n      jump\t// out\n        /* \"#utility.yul\":1325:1443   */\n    tag_29:\n        /* \"#utility.yul\":1412:1436   */\n      tag_50\n        /* \"#utility.yul\":1430:1435   */\n      dup2\n        /* \"#utility.yul\":1412:1436   */\n      tag_28\n      jump\t// in\n    tag_50:\n        /* \"#utility.yul\":1407:1410   */\n      dup3\n        /* \"#utility.yul\":1400:1437   */\n      mstore\n        /* \"#utility.yul\":1325:1443   */\n      pop\n      pop\n      jump\t// out\n        /* \"#utility.yul\":1449:1671   */\n    tag_13:\n        /* \"#utility.yul\":1542:1546   */\n      0x00\n        /* \"#utility.yul\":1580:1582   */\n      0x20\n        /* \"#utility.yul\":1569:1578   */\n      dup3\n        /* \"#utility.yul\":1565:1583   */\n      add\n        /* \"#utility.yul\":1557:1583   */\n      swap1\n      pop\n        /* \"#utility.yul\":1593:1664   */\n      tag_52\n        /* \"#utility.yul\":1661:1662   */\n      0x00\n        /* \"#utility.yul\":1650:1659   */\n      dup4\n        /* \"#utility.yul\":1646:1663   */\n      add\n        /* \"#utility.yul\":1637:1643   */\n      dup5\n        /* \"#utility.yul\":1593:1664   */\n      tag_29\n      jump\t// in\n    tag_52:\n        /* \"#utility.yul\":1449:1671   */\n      swap3\n      swap2\n      pop\n      pop\n      jump\t// out\n        /* \"#utility.yul\":1758:1875   */\n    tag_31:\n        /* \"#utility.yul\":1867:1868   */\n      0x00\n        /* \"#utility.yul\":1864:1865   */\n      0x00\n        /* \"#utility.yul\":1857:1869   */\n      revert\n        /* \"#utility.yul\":2004:2126   */\n    tag_33:\n        /* \"#utility.yul\":2077:2101   */\n      tag_57\n        /* \"#utility.yul\":2095:2100   */\n      dup2\n        /* \"#utility.yul\":2077:2101   */\n      tag_28\n      jump\t// in\n    tag_57:\n        /* \"#utility.yul\":2070:2075   */\n      dup2\n        /* \"#utility.yul\":2067:2102   */\n      eq\n        /* \"#utility.yul\":2057:2120   */\n      tag_58\n      jumpi\n        /* \"#utility.yul\":2116:2117   */\n      0x00\n        /* \"#utility.yul\":2113:2114   */\n      0x00\n        /* \"#utility.yul\":2106:2118   */\n      revert\n        /* \"#utility.yul\":2057:2120   */\n    tag_58:\n        /* \"#utility.yul\":2004:2126   */\n      pop\n      jump\t// out\n        /* \"#utility.yul\":2132:2271   */\n    tag_34:\n        /* \"#utility.yul\":2178:2183   */\n      0x00\n        /* \"#utility.yul\":2216:2222   */\n      dup2\n        /* \"#utility.yul\":2203:2223   */\n      calldataload\n        /* \"#utility.yul\":2194:2223   */\n      swap1\n      pop\n        /* \"#utility.yul\":2232:2265   */\n      tag_60\n        /* \"#utility.yul\":2259:2264   */\n      dup2\n        /* \"#utility.yul\":2232:2265   */\n      tag_33\n      jump\t// in\n    tag_60:\n        /* \"#utility.yul\":2132:2271   */\n      swap3\n      swap2\n      pop\n      pop\n      jump\t// out\n        /* \"#utility.yul\":2277:2751   */\n    tag_16:\n        /* \"#utility.yul\":2345:2351   */\n      0x00\n        /* \"#utility.yul\":2353:2359   */\n      0x00\n        /* \"#utility.yul\":2402:2404   */\n      0x40\n        /* \"#utility.yul\":2390:2399   */\n      dup4\n        /* \"#utility.yul\":2381:2388   */\n      dup6\n        /* \"#utility.yul\":2377:2400   */\n      sub\n        /* \"#utility.yul\":2373:2405   */\n      slt\n        /* \"#utility.yul\":2370:2489   */\n      iszero\n      tag_62\n      jumpi\n        /* \"#utility.yul\":2408:2487   */\n      tag_63\n      tag_31\n      jump\t// in\n    tag_63:\n        /* \"#utility.yul\":2370:2489   */\n    tag_62:\n        /* \"#utility.yul\":2528:2529   */\n      0x00\n        /* \"#utility.yul\":2553:2606   */\n      tag_64\n        /* \"#utility.yul\":2598:2605   */\n      dup6\n        /* \"#utility.yul\":2589:2595   */\n      dup3\n        /* \"#utility.yul\":2578:2587   */\n      dup7\n        /* \"#utility.yul\":2574:2596   */\n      add\n        /* \"#utility.yul\":2553:2606   */\n      tag_34\n      jump\t// in\n    tag_64:\n        /* \"#utility.yul\":2543:2606   */\n      swap3\n      pop\n        /* \"#utility.yul\":2499:2616   */\n      pop\n        /* \"#utility.yul\":2655:2657   */\n      0x20\n        /* \"#utility.yul\":2681:2734   */\n      tag_65\n        /* \"#utility.yul\":2726:2733   */\n      dup6\n        /* \"#utility.yul\":2717:2723   */\n      dup3\n        /* \"#utility.yul\":2706:2715   */\n      dup7\n        /* \"#utility.yul\":2702:2724   */\n      add\n        /* \"#utility.yul\":2681:2734   */\n      tag_34\n      jump\t// in\n    tag_65:\n        /* \"#utility.yul\":2671:2734   */\n      swap2\n      pop\n        /* \"#utility.yul\":2626:2744   */\n      pop\n        /* \"#utility.yul\":2277:2751   */\n      swap3\n      pop\n      swap3\n      swap1\n      pop\n      jump\t// out\n        /* \"#utility.yul\":2757:2937   */\n    tag_35:\n        /* \"#utility.yul\":2805:2882   */\n      0x4e487b7100000000000000000000000000000000000000000000000000000000\n        /* \"#utility.yul\":2802:2803   */\n      0x00\n        /* \"#utility.yul\":2795:2883   */\n      mstore\n        /* \"#utility.yul\":2902:2906   */\n      0x11\n        /* \"#utility.yul\":2899:2900   */\n      0x04\n        /* \"#utility.yul\":2892:2907   */\n      mstore\n        /* \"#utility.yul\":2926:2930   */\n      0x24\n        /* \"#utility.yul\":2923:2924   */\n      0x00\n        /* \"#utility.yul\":2916:2931   */\n      revert\n        /* \"#utility.yul\":2943:3134   */\n    tag_22:\n        /* \"#utility.yul\":2983:2986   */\n      0x00\n        /* \"#utility.yul\":3002:3022   */\n      tag_68\n        /* \"#utility.yul\":3020:3021   */\n      dup3\n        /* \"#utility.yul\":3002:3022   */\n      tag_28\n      jump\t// in\n    tag_68:\n        /* \"#utility.yul\":2997:3022   */\n      swap2\n      pop\n        /* \"#utility.yul\":3036:3056   */\n      tag_69\n        /* \"#utility.yul\":3054:3055   */\n      dup4\n        /* \"#utility.yul\":3036:3056   */\n      tag_28\n      jump\t// in\n    tag_69:\n        /* \"#utility.yul\":3031:3056   */\n      swap3\n      pop\n        /* \"#utility.yul\":3079:3080   */\n      dup3\n        /* \"#utility.yul\":3076:3077   */\n      dup3\n        /* \"#utility.yul\":3072:3081   */\n      add\n        /* \"#utility.yul\":3065:3081   */\n      swap1\n      pop\n        /* \"#utility.yul\":3100:3103   */\n      dup1\n        /* \"#utility.yul\":3097:3098   */\n      dup3\n        /* \"#utility.yul\":3094:3104   */\n      gt\n        /* \"#utility.yul\":3091:3127   */\n      iszero\n      tag_70\n      jumpi\n        /* \"#utility.yul\":3107:3125   */\n      tag_71\n      tag_35\n      jump\t// in\n    tag_71:\n        /* \"#utility.yul\":3091:3127   */\n    tag_70:\n        /* \"#utility.yul\":2943:3134   */\n      swap3\n      swap2\n      pop\n      pop\n      jump\t// out\n\n    auxdata: 0xa264697066735822122085757734589ceaf00bd77dd00371b72d95a4db286d11604c20af8785ae71a4d364736f6c634300081c0033\n}\n",
				"bytecode": {
					"linkReferences": {},
					"object": "6080604052348015600e575f5ffd5b506102bd8061001c5f395ff3fe608060405234801561000f575f5ffd5b506004361061003f575f3560e01c8063af8a6c9114610043578063f06bf1d214610061578063f604bf571461007f575b5f5ffd5b61004b61009b565b604051610058919061016a565b60405180910390f35b6100696100d8565b60405161007691906101a2565b60405180910390f35b610099600480360381019061009491906101e9565b6100e0565b005b60606040518060400160405280600b81526020017f48656c6c6f20576f726c64000000000000000000000000000000000000000000815250905090565b5f5f54905090565b5f81836100ed9190610254565b9050805f81905550505050565b5f81519050919050565b5f82825260208201905092915050565b8281835e5f83830152505050565b5f601f19601f8301169050919050565b5f61013c826100fa565b6101468185610104565b9350610156818560208601610114565b61015f81610122565b840191505092915050565b5f6020820190508181035f8301526101828184610132565b905092915050565b5f819050919050565b61019c8161018a565b82525050565b5f6020820190506101b55f830184610193565b92915050565b5f5ffd5b6101c88161018a565b81146101d2575f5ffd5b50565b5f813590506101e3816101bf565b92915050565b5f5f604083850312156101ff576101fe6101bb565b5b5f61020c858286016101d5565b925050602061021d858286016101d5565b9150509250929050565b7f4e487b71000000000000000000000000000000000000000000000000000000005f52601160045260245ffd5b5f61025e8261018a565b91506102698361018a565b925082820190508082111561028157610280610227565b5b9291505056fea264697066735822122085757734589ceaf00bd77dd00371b72d95a4db286d11604c20af8785ae71a4d364736f6c634300081c0033",
					"opcodes": "PUSH1 0x80 PUSH1 0x40 MSTORE CALLVALUE DUP1 ISZERO PUSH1 0xE JUMPI PUSH0 PUSH0 REVERT JUMPDEST POP PUSH2 0x2BD DUP1 PUSH2 0x1C PUSH0 CODECOPY PUSH0 RETURN INVALID PUSH1 0x80 PUSH1 0x40 MSTORE CALLVALUE DUP1 ISZERO PUSH2 0xF JUMPI PUSH0 PUSH0 REVERT JUMPDEST POP PUSH1 0x4 CALLDATASIZE LT PUSH2 0x3F JUMPI PUSH0 CALLDATALOAD PUSH1 0xE0 SHR DUP1 PUSH4 0xAF8A6C91 EQ PUSH2 0x43 JUMPI DUP1 PUSH4 0xF06BF1D2 EQ PUSH2 0x61 JUMPI DUP1 PUSH4 0xF604BF57 EQ PUSH2 0x7F JUMPI JUMPDEST PUSH0 PUSH0 REVERT JUMPDEST PUSH2 0x4B PUSH2 0x9B JUMP JUMPDEST PUSH1 0x40 MLOAD PUSH2 0x58 SWAP2 SWAP1 PUSH2 0x16A JUMP JUMPDEST PUSH1 0x40 MLOAD DUP1 SWAP2 SUB SWAP1 RETURN JUMPDEST PUSH2 0x69 PUSH2 0xD8 JUMP JUMPDEST PUSH1 0x40 MLOAD PUSH2 0x76 SWAP2 SWAP1 PUSH2 0x1A2 JUMP JUMPDEST PUSH1 0x40 MLOAD DUP1 SWAP2 SUB SWAP1 RETURN JUMPDEST PUSH2 0x99 PUSH1 0x4 DUP1 CALLDATASIZE SUB DUP2 ADD SWAP1 PUSH2 0x94 SWAP2 SWAP1 PUSH2 0x1E9 JUMP JUMPDEST PUSH2 0xE0 JUMP JUMPDEST STOP JUMPDEST PUSH1 0x60 PUSH1 0x40 MLOAD DUP1 PUSH1 0x40 ADD PUSH1 0x40 MSTORE DUP1 PUSH1 0xB DUP2 MSTORE PUSH1 0x20 ADD PUSH32 0x48656C6C6F20576F726C64000000000000000000000000000000000000000000 DUP2 MSTORE POP SWAP1 POP SWAP1 JUMP JUMPDEST PUSH0 PUSH0 SLOAD SWAP1 POP SWAP1 JUMP JUMPDEST PUSH0 DUP2 DUP4 PUSH2 0xED SWAP2 SWAP1 PUSH2 0x254 JUMP JUMPDEST SWAP1 POP DUP1 PUSH0 DUP2 SWAP1 SSTORE POP POP POP POP JUMP JUMPDEST PUSH0 DUP2 MLOAD SWAP1 POP SWAP2 SWAP1 POP JUMP JUMPDEST PUSH0 DUP3 DUP3 MSTORE PUSH1 0x20 DUP3 ADD SWAP1 POP SWAP3 SWAP2 POP POP JUMP JUMPDEST DUP3 DUP2 DUP4 MCOPY PUSH0 DUP4 DUP4 ADD MSTORE POP POP POP JUMP JUMPDEST PUSH0 PUSH1 0x1F NOT PUSH1 0x1F DUP4 ADD AND SWAP1 POP SWAP2 SWAP1 POP JUMP JUMPDEST PUSH0 PUSH2 0x13C DUP3 PUSH2 0xFA JUMP JUMPDEST PUSH2 0x146 DUP2 DUP6 PUSH2 0x104 JUMP JUMPDEST SWAP4 POP PUSH2 0x156 DUP2 DUP6 PUSH1 0x20 DUP7 ADD PUSH2 0x114 JUMP JUMPDEST PUSH2 0x15F DUP2 PUSH2 0x122 JUMP JUMPDEST DUP5 ADD SWAP2 POP POP SWAP3 SWAP2 POP POP JUMP JUMPDEST PUSH0 PUSH1 0x20 DUP3 ADD SWAP1 POP DUP2 DUP2 SUB PUSH0 DUP4 ADD MSTORE PUSH2 0x182 DUP2 DUP5 PUSH2 0x132 JUMP JUMPDEST SWAP1 POP SWAP3 SWAP2 POP POP JUMP JUMPDEST PUSH0 DUP2 SWAP1 POP SWAP2 SWAP1 POP JUMP JUMPDEST PUSH2 0x19C DUP2 PUSH2 0x18A JUMP JUMPDEST DUP3 MSTORE POP POP JUMP JUMPDEST PUSH0 PUSH1 0x20 DUP3 ADD SWAP1 POP PUSH2 0x1B5 PUSH0 DUP4 ADD DUP5 PUSH2 0x193 JUMP JUMPDEST SWAP3 SWAP2 POP POP JUMP JUMPDEST PUSH0 PUSH0 REVERT JUMPDEST PUSH2 0x1C8 DUP2 PUSH2 0x18A JUMP JUMPDEST DUP2 EQ PUSH2 0x1D2 JUMPI PUSH0 PUSH0 REVERT JUMPDEST POP JUMP JUMPDEST PUSH0 DUP2 CALLDATALOAD SWAP1 POP PUSH2 0x1E3 DUP2 PUSH2 0x1BF JUMP JUMPDEST SWAP3 SWAP2 POP POP JUMP JUMPDEST PUSH0 PUSH0 PUSH1 0x40 DUP4 DUP6 SUB SLT ISZERO PUSH2 0x1FF JUMPI PUSH2 0x1FE PUSH2 0x1BB JUMP JUMPDEST JUMPDEST PUSH0 PUSH2 0x20C DUP6 DUP3 DUP7 ADD PUSH2 0x1D5 JUMP JUMPDEST SWAP3 POP POP PUSH1 0x20 PUSH2 0x21D DUP6 DUP3 DUP7 ADD PUSH2 0x1D5 JUMP JUMPDEST SWAP2 POP POP SWAP3 POP SWAP3 SWAP1 POP JUMP JUMPDEST PUSH32 0x4E487B7100000000000000000000000000000000000000000000000000000000 PUSH0 MSTORE PUSH1 0x11 PUSH1 0x4 MSTORE PUSH1 0x24 PUSH0 REVERT JUMPDEST PUSH0 PUSH2 0x25E DUP3 PUSH2 0x18A JUMP JUMPDEST SWAP2 POP PUSH2 0x269 DUP4 PUSH2 0x18A JUMP JUMPDEST SWAP3 POP DUP3 DUP3 ADD SWAP1 POP DUP1 DUP3 GT ISZERO PUSH2 0x281 JUMPI PUSH2 0x280 PUSH2 0x227 JUMP JUMPDEST JUMPDEST SWAP3 SWAP2 POP POP JUMP INVALID LOG2 PUSH5 0x6970667358 0x22 SLT KECCAK256 DUP6 PUSH22 0x7734589CEAF00BD77DD00371B72D95A4DB286D11604C KECCAK256 0xAF DUP8 DUP6 0xAE PUSH18 0xA4D364736F6C634300081C00330000000000 "
				},
				"gasEstimates": {
					"creation": {
						"codeDepositCost": "140200",
						"executionCost": "181",
						"totalCost": "140381"
					},
					"external": {
						"cetakHello()": "infinite",
						"getHasil()": "2431",
						"tambah(uint256,uint256)": "infinite"
					}
				},
				"methodIdentifiers": {
					"cetakHello()": "af8a6c91",
					"getHasil()": "f06bf1d2",
					"tambah(uint256,uint256)": "f604bf57"
				}
			},
			"storageLayout": {
				"storage": [
					{
						"astId": 3,
						"contract": "contracts/functioncontract.sol:HelloWorld",
						"label": "hasil",
						"offset": 0,
						"slot": "0",
						"type": "t_uint256"
					}
				],
				"types": {
					"t_uint256": {
						"encoding": "inplace",
						"label": "uint256",
						"numberOfBytes": "32"
					}
				}
			},
			"userdoc": {
				"kind": "user",
				"methods": {},
				"version": 1
			}
		}
	}
}