{
	"contracts/arraycontract.sol": {
		"ArrayContract": {
			"abi": [
				{
					"inputs": [],
					"name": "getData",
					"outputs": [
						{
							"internalType": "uint256[5]",
							"name": "",
							"type": "uint256[5]"
						}
					],
					"stateMutability": "pure",
					"type": "function"
				}
			],
			"devdoc": {
				"kind": "dev",
				"methods": {},
				"version": 1
			},
			"evm": {
				"assembly": "    /* \"contracts/arraycontract.sol\":81:306  contract ArrayContract {... */\n  mstore(0x40, 0x80)\n  callvalue\n  dup1\n  iszero\n  tag_1\n  jumpi\n  revert(0x00, 0x00)\ntag_1:\n  pop\n  dataSize(sub_0)\n  dup1\n  dataOffset(sub_0)\n  0x00\n  codecopy\n  0x00\n  return\nstop\n\nsub_0: assembly {\n        /* \"contracts/arraycontract.sol\":81:306  contract ArrayContract {... */\n      mstore(0x40, 0x80)\n      callvalue\n      dup1\n      iszero\n      tag_1\n      jumpi\n      revert(0x00, 0x00)\n    tag_1:\n      pop\n      jumpi(tag_2, lt(calldatasize, 0x04))\n      shr(0xe0, calldataload(0x00))\n      dup1\n      0x3bc5de30\n      eq\n      tag_3\n      jumpi\n    tag_2:\n      revert(0x00, 0x00)\n        /* \"contracts/arraycontract.sol\":111:303  function getData() public pure returns (uint[5] memory) {... */\n    tag_3:\n      tag_4\n      tag_5\n      jump\t// in\n    tag_4:\n      mload(0x40)\n      tag_6\n      swap2\n      swap1\n      tag_7\n      jump\t// in\n    tag_6:\n      mload(0x40)\n      dup1\n      swap2\n      sub\n      swap1\n      return\n    tag_5:\n        /* \"contracts/arraycontract.sol\":151:165  uint[5] memory */\n      tag_8\n      tag_9\n      jump\t// in\n    tag_8:\n        /* \"contracts/arraycontract.sol\":225:244  uint[5] memory data */\n      0x00\n        /* \"contracts/arraycontract.sol\":225:273  uint[5] memory data = [uint(50), 60, 70, 80, 90] */\n      mload(0x40)\n      dup1\n      0xa0\n      add\n      0x40\n      mstore\n      dup1\n        /* \"contracts/arraycontract.sol\":253:255  50 */\n      0x32\n        /* \"contracts/arraycontract.sol\":225:273  uint[5] memory data = [uint(50), 60, 70, 80, 90] */\n      dup2\n      mstore\n      0x20\n      add\n        /* \"contracts/arraycontract.sol\":258:260  60 */\n      0x3c\n        /* \"contracts/arraycontract.sol\":225:273  uint[5] memory data = [uint(50), 60, 70, 80, 90] */\n      dup2\n      mstore\n      0x20\n      add\n        /* \"contracts/arraycontract.sol\":262:264  70 */\n      0x46\n        /* \"contracts/arraycontract.sol\":225:273  uint[5] memory data = [uint(50), 60, 70, 80, 90] */\n      dup2\n      mstore\n      0x20\n      add\n        /* \"contracts/arraycontract.sol\":266:268  80 */\n      0x50\n        /* \"contracts/arraycontract.sol\":225:273  uint[5] memory data = [uint(50), 60, 70, 80, 90] */\n      dup2\n      mstore\n      0x20\n      add\n        /* \"contracts/arraycontract.sol\":270:272  90 */\n      0x5a\n        /* \"contracts/arraycontract.sol\":225:273  uint[5] memory data = [uint(50), 60, 70, 80, 90] */\n      dup2\n      mstore\n      pop\n      swap1\n      pop\n        /* \"contracts/arraycontract.sol\":291:295  data */\n      dup1\n        /* \"contracts/arraycontract.sol\":284:295  return data */\n      swap2\n      pop\n      pop\n        /* \"contracts/arraycontract.sol\":111:303  function getData() public pure returns (uint[5] memory) {... */\n      swap1\n      jump\t// out\n    tag_9:\n      mload(0x40)\n      dup1\n      0xa0\n      add\n      0x40\n      mstore\n      dup1\n      0x05\n      swap1\n      0x20\n      dup3\n      mul\n      dup1\n      calldatasize\n      dup4\n      calldatacopy\n      dup1\n      dup3\n      add\n      swap2\n      pop\n      pop\n      swap1\n      pop\n      pop\n      swap1\n      jump\t// out\n        /* \"#utility.yul\":7:111   */\n    tag_11:\n        /* \"#utility.yul\":72:78   */\n      0x00\n        /* \"#utility.yul\":100:104   */\n      0x05\n        /* \"#utility.yul\":90:104   */\n      swap1\n      pop\n        /* \"#utility.yul\":7:111   */\n      swap2\n      swap1\n      pop\n      jump\t// out\n        /* \"#utility.yul\":117:260   */\n    tag_12:\n        /* \"#utility.yul\":214:225   */\n      0x00\n        /* \"#utility.yul\":251:254   */\n      dup2\n        /* \"#utility.yul\":236:254   */\n      swap1\n      pop\n        /* \"#utility.yul\":117:260   */\n      swap3\n      swap2\n      pop\n      pop\n      jump\t// out\n        /* \"#utility.yul\":266:364   */\n    tag_13:\n        /* \"#utility.yul\":331:335   */\n      0x00\n        /* \"#utility.yul\":354:357   */\n      dup2\n        /* \"#utility.yul\":346:357   */\n      swap1\n      pop\n        /* \"#utility.yul\":266:364   */\n      swap2\n      swap1\n      pop\n      jump\t// out\n        /* \"#utility.yul\":370:447   */\n    tag_14:\n        /* \"#utility.yul\":407:414   */\n      0x00\n        /* \"#utility.yul\":436:441   */\n      dup2\n        /* \"#utility.yul\":425:441   */\n      swap1\n      pop\n        /* \"#utility.yul\":370:447   */\n      swap2\n      swap1\n      pop\n      jump\t// out\n        /* \"#utility.yul\":453:561   */\n    tag_15:\n        /* \"#utility.yul\":530:554   */\n      tag_25\n        /* \"#utility.yul\":548:553   */\n      dup2\n        /* \"#utility.yul\":530:554   */\n      tag_14\n      jump\t// in\n    tag_25:\n        /* \"#utility.yul\":525:528   */\n      dup3\n        /* \"#utility.yul\":518:555   */\n      mstore\n        /* \"#utility.yul\":453:561   */\n      pop\n      pop\n      jump\t// out\n        /* \"#utility.yul\":567:746   */\n    tag_16:\n        /* \"#utility.yul\":636:646   */\n      0x00\n        /* \"#utility.yul\":657:703   */\n      tag_27\n        /* \"#utility.yul\":699:702   */\n      dup4\n        /* \"#utility.yul\":691:697   */\n      dup4\n        /* \"#utility.yul\":657:703   */\n      tag_15\n      jump\t// in\n    tag_27:\n        /* \"#utility.yul\":735:739   */\n      0x20\n        /* \"#utility.yul\":730:733   */\n      dup4\n        /* \"#utility.yul\":726:740   */\n      add\n        /* \"#utility.yul\":712:740   */\n      swap1\n      pop\n        /* \"#utility.yul\":567:746   */\n      swap3\n      swap2\n      pop\n      pop\n      jump\t// out\n        /* \"#utility.yul\":752:863   */\n    tag_17:\n        /* \"#utility.yul\":820:824   */\n      0x00\n        /* \"#utility.yul\":852:856   */\n      0x20\n        /* \"#utility.yul\":847:850   */\n      dup3\n        /* \"#utility.yul\":843:857   */\n      add\n        /* \"#utility.yul\":835:857   */\n      swap1\n      pop\n        /* \"#utility.yul\":752:863   */\n      swap2\n      swap1\n      pop\n      jump\t// out\n        /* \"#utility.yul\":901:1595   */\n    tag_18:\n        /* \"#utility.yul\":1037:1089   */\n      tag_30\n        /* \"#utility.yul\":1083:1088   */\n      dup2\n        /* \"#utility.yul\":1037:1089   */\n      tag_11\n      jump\t// in\n    tag_30:\n        /* \"#utility.yul\":1105:1189   */\n      tag_31\n        /* \"#utility.yul\":1182:1188   */\n      dup2\n        /* \"#utility.yul\":1177:1180   */\n      dup5\n        /* \"#utility.yul\":1105:1189   */\n      tag_12\n      jump\t// in\n    tag_31:\n        /* \"#utility.yul\":1098:1189   */\n      swap3\n      pop\n        /* \"#utility.yul\":1213:1267   */\n      tag_32\n        /* \"#utility.yul\":1261:1266   */\n      dup3\n        /* \"#utility.yul\":1213:1267   */\n      tag_13\n      jump\t// in\n    tag_32:\n        /* \"#utility.yul\":1290:1297   */\n      dup1\n        /* \"#utility.yul\":1321:1322   */\n      0x00\n        /* \"#utility.yul\":1306:1588   */\n    tag_33:\n        /* \"#utility.yul\":1331:1337   */\n      dup4\n        /* \"#utility.yul\":1328:1329   */\n      dup2\n        /* \"#utility.yul\":1325:1338   */\n      lt\n        /* \"#utility.yul\":1306:1588   */\n      iszero\n      tag_35\n      jumpi\n        /* \"#utility.yul\":1407:1413   */\n      dup2\n        /* \"#utility.yul\":1401:1414   */\n      mload\n        /* \"#utility.yul\":1434:1497   */\n      tag_36\n        /* \"#utility.yul\":1493:1496   */\n      dup8\n        /* \"#utility.yul\":1478:1491   */\n      dup3\n        /* \"#utility.yul\":1434:1497   */\n      tag_16\n      jump\t// in\n    tag_36:\n        /* \"#utility.yul\":1427:1497   */\n      swap7\n      pop\n        /* \"#utility.yul\":1520:1578   */\n      tag_37\n        /* \"#utility.yul\":1571:1577   */\n      dup4\n        /* \"#utility.yul\":1520:1578   */\n      tag_17\n      jump\t// in\n    tag_37:\n        /* \"#utility.yul\":1510:1578   */\n      swap3\n      pop\n        /* \"#utility.yul\":1366:1588   */\n      pop\n        /* \"#utility.yul\":1353:1354   */\n      0x01\n        /* \"#utility.yul\":1350:1351   */\n      dup2\n        /* \"#utility.yul\":1346:1355   */\n      add\n        /* \"#utility.yul\":1341:1355   */\n      swap1\n      pop\n        /* \"#utility.yul\":1306:1588   */\n      jump(tag_33)\n    tag_35:\n        /* \"#utility.yul\":1310:1324   */\n      pop\n        /* \"#utility.yul\":1013:1595   */\n      pop\n      pop\n      pop\n        /* \"#utility.yul\":901:1595   */\n      pop\n      pop\n      jump\t// out\n        /* \"#utility.yul\":1601:1916   */\n    tag_7:\n        /* \"#utility.yul\":1740:1744   */\n      0x00\n        /* \"#utility.yul\":1778:1781   */\n      0xa0\n        /* \"#utility.yul\":1767:1776   */\n      dup3\n        /* \"#utility.yul\":1763:1782   */\n      add\n        /* \"#utility.yul\":1755:1782   */\n      swap1\n      pop\n        /* \"#utility.yul\":1792:1909   */\n      tag_39\n        /* \"#utility.yul\":1906:1907   */\n      0x00\n        /* \"#utility.yul\":1895:1904   */\n      dup4\n        /* \"#utility.yul\":1891:1908   */\n      add\n        /* \"#utility.yul\":1882:1888   */\n      dup5\n        /* \"#utility.yul\":1792:1909   */\n      tag_18\n      jump\t// in\n    tag_39:\n        /* \"#utility.yul\":1601:1916   */\n      swap3\n      swap2\n      pop\n      pop\n      jump\t// out\n\n    auxdata: 0xa2646970667358221220d3af6bf7c3efc833d8bcc417d6f94e03e1ce10507848ff79bf346b09bcef3ac364736f6c634300081c0033\n}\n",
				"bytecode": {
					"linkReferences": {},
					"object": "6080604052348015600e575f5ffd5b506101a88061001c5f395ff3fe608060405234801561000f575f5ffd5b5060043610610029575f3560e01c80633bc5de301461002d575b5f5ffd5b61003561004b565b6040516100429190610159565b60405180910390f35b610053610089565b5f6040518060a0016040528060328152602001603c81526020016046815260200160508152602001605a81525090508091505090565b6040518060a00160405280600590602082028036833780820191505090505090565b5f60059050919050565b5f81905092915050565b5f819050919050565b5f819050919050565b6100da816100c8565b82525050565b5f6100eb83836100d1565b60208301905092915050565b5f602082019050919050565b61010c816100ab565b61011681846100b5565b9250610121826100bf565b805f5b8381101561015157815161013887826100e0565b9650610143836100f7565b925050600181019050610124565b505050505050565b5f60a08201905061016c5f830184610103565b9291505056fea2646970667358221220d3af6bf7c3efc833d8bcc417d6f94e03e1ce10507848ff79bf346b09bcef3ac364736f6c634300081c0033",
					"opcodes": "PUSH1 0x80 PUSH1 0x40 MSTORE CALLVALUE DUP1 ISZERO PUSH1 0xE JUMPI PUSH0 PUSH0 REVERT JUMPDEST POP PUSH2 0x1A8 DUP1 PUSH2 0x1C PUSH0 CODECOPY PUSH0 RETURN INVALID PUSH1 0x80 PUSH1 0x40 MSTORE CALLVALUE DUP1 ISZERO PUSH2 0xF JUMPI PUSH0 PUSH0 REVERT JUMPDEST POP PUSH1 0x4 CALLDATASIZE LT PUSH2 0x29 JUMPI PUSH0 CALLDATALOAD PUSH1 0xE0 SHR DUP1 PUSH4 0x3BC5DE30 EQ PUSH2 0x2D JUMPI JUMPDEST PUSH0 PUSH0 REVERT JUMPDEST PUSH2 0x35 PUSH2 0x4B JUMP JUMPDEST PUSH1 0x40 MLOAD PUSH2 0x42 SWAP2 SWAP1 PUSH2 0x159 JUMP JUMPDEST PUSH1 0x40 MLOAD DUP1 SWAP2 SUB SWAP1 RETURN JUMPDEST PUSH2 0x53 PUSH2 0x89 JUMP JUMPDEST PUSH0 PUSH1 0x40 MLOAD DUP1 PUSH1 0xA0 ADD PUSH1 0x40 MSTORE DUP1 PUSH1 0x32 DUP2 MSTORE PUSH1 0x20 ADD PUSH1 0x3C DUP2 MSTORE PUSH1 0x20 ADD PUSH1 0x46 DUP2 MSTORE PUSH1 0x20 ADD PUSH1 0x50 DUP2 MSTORE PUSH1 0x20 ADD PUSH1 0x5A DUP2 MSTORE POP SWAP1 POP DUP1 SWAP2 POP POP SWAP1 JUMP JUMPDEST PUSH1 0x40 MLOAD DUP1 PUSH1 0xA0 ADD PUSH1 0x40 MSTORE DUP1 PUSH1 0x5 SWAP1 PUSH1 0x20 DUP3 MUL DUP1 CALLDATASIZE DUP4 CALLDATACOPY DUP1 DUP3 ADD SWAP2 POP POP SWAP1 POP POP SWAP1 JUMP JUMPDEST PUSH0 PUSH1 0x5 SWAP1 POP SWAP2 SWAP1 POP JUMP JUMPDEST PUSH0 DUP2 SWAP1 POP SWAP3 SWAP2 POP POP JUMP JUMPDEST PUSH0 DUP2 SWAP1 POP SWAP2 SWAP1 POP JUMP JUMPDEST PUSH0 DUP2 SWAP1 POP SWAP2 SWAP1 POP JUMP JUMPDEST PUSH2 0xDA DUP2 PUSH2 0xC8 JUMP JUMPDEST DUP3 MSTORE POP POP JUMP JUMPDEST PUSH0 PUSH2 0xEB DUP4 DUP4 PUSH2 0xD1 JUMP JUMPDEST PUSH1 0x20 DUP4 ADD SWAP1 POP SWAP3 SWAP2 POP POP JUMP JUMPDEST PUSH0 PUSH1 0x20 DUP3 ADD SWAP1 POP SWAP2 SWAP1 POP JUMP JUMPDEST PUSH2 0x10C DUP2 PUSH2 0xAB JUMP JUMPDEST PUSH2 0x116 DUP2 DUP5 PUSH2 0xB5 JUMP JUMPDEST SWAP3 POP PUSH2 0x121 DUP3 PUSH2 0xBF JUMP JUMPDEST DUP1 PUSH0 JUMPDEST DUP4 DUP2 LT ISZERO PUSH2 0x151 JUMPI DUP2 MLOAD PUSH2 0x138 DUP8 DUP3 PUSH2 0xE0 JUMP JUMPDEST SWAP7 POP PUSH2 0x143 DUP4 PUSH2 0xF7 JUMP JUMPDEST SWAP3 POP POP PUSH1 0x1 DUP2 ADD SWAP1 POP PUSH2 0x124 JUMP JUMPDEST POP POP POP POP POP POP JUMP JUMPDEST PUSH0 PUSH1 0xA0 DUP3 ADD SWAP1 POP PUSH2 0x16C PUSH0 DUP4 ADD DUP5 PUSH2 0x103 JUMP JUMPDEST SWAP3 SWAP2 POP POP JUMP INVALID LOG2 PUSH5 0x6970667358 0x22 SLT KECCAK256 0xD3 0xAF PUSH12 0xF7C3EFC833D8BCC417D6F94E SUB 0xE1 0xCE LT POP PUSH25 0x48FF79BF346B09BCEF3AC364736F6C634300081C0033000000 "
				},
				"gasEstimates": {
					"creation": {
						"codeDepositCost": "84800",
						"executionCost": "133",
						"totalCost": "84933"
					},
					"external": {
						"getData()": "infinite"
					}
				},
				"methodIdentifiers": {
					"getData()": "3bc5de30"
				}
			},
			"storageLayout": {
				"storage": [],
				"types": null
			},
			"userdoc": {
				"kind": "user",
				"methods": {},
				"version": 1
			}
		}
	}
}