{
	"contracts/adresscontract.sol": {
		"addresscontract": {
			"abi": [
				{
					"inputs": [],
					"name": "getAddress",
					"outputs": [
						{
							"internalType": "address",
							"name": "",
							"type": "address"
						}
					],
					"stateMutability": "view",
					"type": "function"
				},
				{
					"inputs": [],
					"name": "receiveEther",
					"outputs": [],
					"stateMutability": "payable",
					"type": "function"
				},
				{
					"inputs": [
						{
							"internalType": "address payable",
							"name": "_address",
							"type": "address"
						},
						{
							"internalType": "uint256",
							"name": "nominal",
							"type": "uint256"
						}
					],
					"name": "sendFund",
					"outputs": [
						{
							"internalType": "bool",
							"name": "",
							"type": "bool"
						}
					],
					"stateMutability": "nonpayable",
					"type": "function"
				},
				{
					"inputs": [
						{
							"internalType": "address payable",
							"name": "_address",
							"type": "address"
						},
						{
							"internalType": "uint256",
							"name": "nominal",
							"type": "uint256"
						}
					],
					"name": "transferFund",
					"outputs": [],
					"stateMutability": "nonpayable",
					"type": "function"
				},
				{
					"stateMutability": "payable",
					"type": "receive"
				}
			],
			"devdoc": {
				"kind": "dev",
				"methods": {},
				"version": 1
			},
			"evm": {
				"assembly": "    /* \"contracts/adresscontract.sol\":27:1476  contract addresscontract {... */\n  mstore(0x40, 0x80)\n  callvalue\n  dup1\n  iszero\n  tag_1\n  jumpi\n  revert(0x00, 0x00)\ntag_1:\n  pop\n  dataSize(sub_0)\n  dup1\n  dataOffset(sub_0)\n  0x00\n  codecopy\n  0x00\n  return\nstop\n\nsub_0: assembly {\n        /* \"contracts/adresscontract.sol\":27:1476  contract addresscontract {... */\n      mstore(0x40, 0x80)\n      jumpi(tag_1, lt(calldatasize, 0x04))\n      shr(0xe0, calldataload(0x00))\n      dup1\n      0x38cc4831\n      eq\n      tag_3\n      jumpi\n      dup1\n      0x4b569450\n      eq\n      tag_4\n      jumpi\n      dup1\n      0xa3912ec8\n      eq\n      tag_5\n      jumpi\n      dup1\n      0xe2dc35e0\n      eq\n      tag_6\n      jumpi\n      jump(tag_2)\n    tag_1:\n      jumpi(tag_2, calldatasize)\n        /* \"contracts/adresscontract.sol\":1416:1425  msg.value */\n      callvalue\n        /* \"contracts/adresscontract.sol\":1398:1412  receivedAmount */\n      0x00\n      0x00\n        /* \"contracts/adresscontract.sol\":1398:1425  receivedAmount += msg.value */\n      dup3\n      dup3\n      sload\n      tag_9\n      swap2\n      swap1\n      tag_10\n      jump\t// in\n    tag_9:\n      swap3\n      pop\n      pop\n      dup2\n      swap1\n      sstore\n      stop\n        /* \"contracts/adresscontract.sol\":27:1476  contract addresscontract {... */\n    tag_2:\n      revert(0x00, 0x00)\n        /* \"contracts/adresscontract.sol\":431:522  function getAddress() public view returns (address) {... */\n    tag_3:\n      callvalue\n      dup1\n      iszero\n      tag_11\n      jumpi\n      revert(0x00, 0x00)\n    tag_11:\n      pop\n      tag_12\n      tag_13\n      jump\t// in\n    tag_12:\n      mload(0x40)\n      tag_14\n      swap2\n      swap1\n      tag_15\n      jump\t// in\n    tag_14:\n      mload(0x40)\n      dup1\n      swap2\n      sub\n      swap1\n      return\n        /* \"contracts/adresscontract.sol\":1058:1274  function sendFund(address payable _address, uint nominal) public returns (bool) {... */\n    tag_4:\n      callvalue\n      dup1\n      iszero\n      tag_16\n      jumpi\n      revert(0x00, 0x00)\n    tag_16:\n      pop\n      tag_17\n      0x04\n      dup1\n      calldatasize\n      sub\n      dup2\n      add\n      swap1\n      tag_18\n      swap2\n      swap1\n      tag_19\n      jump\t// in\n    tag_18:\n      tag_20\n      jump\t// in\n    tag_17:\n      mload(0x40)\n      tag_21\n      swap2\n      swap1\n      tag_22\n      jump\t// in\n    tag_21:\n      mload(0x40)\n      dup1\n      swap2\n      sub\n      swap1\n      return\n        /* \"contracts/adresscontract.sol\":566:691  function receiveEther() payable public {... */\n    tag_5:\n      tag_23\n      tag_24\n      jump\t// in\n    tag_23:\n      stop\n        /* \"contracts/adresscontract.sol\":767:969  function transferFund(address payable _address, uint nominal) public {... */\n    tag_6:\n      callvalue\n      dup1\n      iszero\n      tag_25\n      jumpi\n      revert(0x00, 0x00)\n    tag_25:\n      pop\n      tag_26\n      0x04\n      dup1\n      calldatasize\n      sub\n      dup2\n      add\n      swap1\n      tag_27\n      swap2\n      swap1\n      tag_19\n      jump\t// in\n    tag_27:\n      tag_28\n      jump\t// in\n    tag_26:\n      stop\n        /* \"contracts/adresscontract.sol\":431:522  function getAddress() public view returns (address) {... */\n    tag_13:\n        /* \"contracts/adresscontract.sol\":474:481  address */\n      0x00\n        /* \"contracts/adresscontract.sol\":509:513  this */\n      address\n        /* \"contracts/adresscontract.sol\":494:514  return address(this) */\n      swap1\n      pop\n        /* \"contracts/adresscontract.sol\":431:522  function getAddress() public view returns (address) {... */\n      swap1\n      jump\t// out\n        /* \"contracts/adresscontract.sol\":1058:1274  function sendFund(address payable _address, uint nominal) public returns (bool) {... */\n    tag_20:\n        /* \"contracts/adresscontract.sol\":1132:1136  bool */\n      0x00\n        /* \"contracts/adresscontract.sol\":1182:1189  nominal */\n      dup2\n        /* \"contracts/adresscontract.sol\":1157:1178  address(this).balance */\n      selfbalance\n        /* \"contracts/adresscontract.sol\":1157:1189  address(this).balance >= nominal */\n      lt\n      iszero\n        /* \"contracts/adresscontract.sol\":1149:1226  require(address(this).balance >= nominal, \"Insufficient balance in contract\") */\n      tag_31\n      jumpi\n      mload(0x40)\n      0x08c379a000000000000000000000000000000000000000000000000000000000\n      dup2\n      mstore\n      0x04\n      add\n      tag_32\n      swap1\n      tag_33\n      jump\t// in\n    tag_32:\n      mload(0x40)\n      dup1\n      swap2\n      sub\n      swap1\n      revert\n    tag_31:\n        /* \"contracts/adresscontract.sol\":1244:1252  _address */\n      dup3\n        /* \"contracts/adresscontract.sol\":1244:1257  _address.send */\n      0xffffffffffffffffffffffffffffffffffffffff\n      and\n        /* \"contracts/adresscontract.sol\":1244:1266  _address.send(nominal) */\n      0x08fc\n        /* \"contracts/adresscontract.sol\":1258:1265  nominal */\n      dup4\n        /* \"contracts/adresscontract.sol\":1244:1266  _address.send(nominal) */\n      swap1\n      dup2\n      iszero\n      mul\n      swap1\n      mload(0x40)\n      0x00\n      mload(0x40)\n      dup1\n      dup4\n      sub\n      dup2\n      dup6\n      dup9\n      dup9\n      call\n      swap4\n      pop\n      pop\n      pop\n      pop\n        /* \"contracts/adresscontract.sol\":1237:1266  return _address.send(nominal) */\n      swap1\n      pop\n        /* \"contracts/adresscontract.sol\":1058:1274  function sendFund(address payable _address, uint nominal) public returns (bool) {... */\n      swap3\n      swap2\n      pop\n      pop\n      jump\t// out\n        /* \"contracts/adresscontract.sol\":566:691  function receiveEther() payable public {... */\n    tag_24:\n        /* \"contracts/adresscontract.sol\":634:643  msg.value */\n      callvalue\n        /* \"contracts/adresscontract.sol\":616:630  receivedAmount */\n      0x00\n      0x00\n        /* \"contracts/adresscontract.sol\":616:643  receivedAmount += msg.value */\n      dup3\n      dup3\n      sload\n      tag_36\n      swap2\n      swap1\n      tag_10\n      jump\t// in\n    tag_36:\n      swap3\n      pop\n      pop\n      dup2\n      swap1\n      sstore\n      pop\n        /* \"contracts/adresscontract.sol\":566:691  function receiveEther() payable public {... */\n      jump\t// out\n        /* \"contracts/adresscontract.sol\":767:969  function transferFund(address payable _address, uint nominal) public {... */\n    tag_28:\n        /* \"contracts/adresscontract.sol\":880:887  nominal */\n      dup1\n        /* \"contracts/adresscontract.sol\":855:876  address(this).balance */\n      selfbalance\n        /* \"contracts/adresscontract.sol\":855:887  address(this).balance >= nominal */\n      lt\n      iszero\n        /* \"contracts/adresscontract.sol\":847:924  require(address(this).balance >= nominal, \"Insufficient balance in contract\") */\n      tag_38\n      jumpi\n      mload(0x40)\n      0x08c379a000000000000000000000000000000000000000000000000000000000\n      dup2\n      mstore\n      0x04\n      add\n      tag_39\n      swap1\n      tag_33\n      jump\t// in\n    tag_39:\n      mload(0x40)\n      dup1\n      swap2\n      sub\n      swap1\n      revert\n    tag_38:\n        /* \"contracts/adresscontract.sol\":935:943  _address */\n      dup2\n        /* \"contracts/adresscontract.sol\":935:952  _address.transfer */\n      0xffffffffffffffffffffffffffffffffffffffff\n      and\n        /* \"contracts/adresscontract.sol\":935:961  _address.transfer(nominal) */\n      0x08fc\n        /* \"contracts/adresscontract.sol\":953:960  nominal */\n      dup3\n        /* \"contracts/adresscontract.sol\":935:961  _address.transfer(nominal) */\n      swap1\n      dup2\n      iszero\n      mul\n      swap1\n      mload(0x40)\n      0x00\n      mload(0x40)\n      dup1\n      dup4\n      sub\n      dup2\n      dup6\n      dup9\n      dup9\n      call\n      swap4\n      pop\n      pop\n      pop\n      pop\n      iszero\n      dup1\n      iszero\n      tag_41\n      jumpi\n      returndatacopy(0x00, 0x00, returndatasize)\n      revert(0x00, returndatasize)\n    tag_41:\n      pop\n        /* \"contracts/adresscontract.sol\":767:969  function transferFund(address payable _address, uint nominal) public {... */\n      pop\n      pop\n      jump\t// out\n        /* \"#utility.yul\":7:84   */\n    tag_42:\n        /* \"#utility.yul\":44:51   */\n      0x00\n        /* \"#utility.yul\":73:78   */\n      dup2\n        /* \"#utility.yul\":62:78   */\n      swap1\n      pop\n        /* \"#utility.yul\":7:84   */\n      swap2\n      swap1\n      pop\n      jump\t// out\n        /* \"#utility.yul\":90:270   */\n    tag_43:\n        /* \"#utility.yul\":138:215   */\n      0x4e487b7100000000000000000000000000000000000000000000000000000000\n        /* \"#utility.yul\":135:136   */\n      0x00\n        /* \"#utility.yul\":128:216   */\n      mstore\n        /* \"#utility.yul\":235:239   */\n      0x11\n        /* \"#utility.yul\":232:233   */\n      0x04\n        /* \"#utility.yul\":225:240   */\n      mstore\n        /* \"#utility.yul\":259:263   */\n      0x24\n        /* \"#utility.yul\":256:257   */\n      0x00\n        /* \"#utility.yul\":249:264   */\n      revert\n        /* \"#utility.yul\":276:467   */\n    tag_10:\n        /* \"#utility.yul\":316:319   */\n      0x00\n        /* \"#utility.yul\":335:355   */\n      tag_64\n        /* \"#utility.yul\":353:354   */\n      dup3\n        /* \"#utility.yul\":335:355   */\n      tag_42\n      jump\t// in\n    tag_64:\n        /* \"#utility.yul\":330:355   */\n      swap2\n      pop\n        /* \"#utility.yul\":369:389   */\n      tag_65\n        /* \"#utility.yul\":387:388   */\n      dup4\n        /* \"#utility.yul\":369:389   */\n      tag_42\n      jump\t// in\n    tag_65:\n        /* \"#utility.yul\":364:389   */\n      swap3\n      pop\n        /* \"#utility.yul\":412:413   */\n      dup3\n        /* \"#utility.yul\":409:410   */\n      dup3\n        /* \"#utility.yul\":405:414   */\n      add\n        /* \"#utility.yul\":398:414   */\n      swap1\n      pop\n        /* \"#utility.yul\":433:436   */\n      dup1\n        /* \"#utility.yul\":430:431   */\n      dup3\n        /* \"#utility.yul\":427:437   */\n      gt\n        /* \"#utility.yul\":424:460   */\n      iszero\n      tag_66\n      jumpi\n        /* \"#utility.yul\":440:458   */\n      tag_67\n      tag_43\n      jump\t// in\n    tag_67:\n        /* \"#utility.yul\":424:460   */\n    tag_66:\n        /* \"#utility.yul\":276:467   */\n      swap3\n      swap2\n      pop\n      pop\n      jump\t// out\n        /* \"#utility.yul\":473:599   */\n    tag_44:\n        /* \"#utility.yul\":510:517   */\n      0x00\n        /* \"#utility.yul\":550:592   */\n      0xffffffffffffffffffffffffffffffffffffffff\n        /* \"#utility.yul\":543:548   */\n      dup3\n        /* \"#utility.yul\":539:593   */\n      and\n        /* \"#utility.yul\":528:593   */\n      swap1\n      pop\n        /* \"#utility.yul\":473:599   */\n      swap2\n      swap1\n      pop\n      jump\t// out\n        /* \"#utility.yul\":605:701   */\n    tag_45:\n        /* \"#utility.yul\":642:649   */\n      0x00\n        /* \"#utility.yul\":671:695   */\n      tag_70\n        /* \"#utility.yul\":689:694   */\n      dup3\n        /* \"#utility.yul\":671:695   */\n      tag_44\n      jump\t// in\n    tag_70:\n        /* \"#utility.yul\":660:695   */\n      swap1\n      pop\n        /* \"#utility.yul\":605:701   */\n      swap2\n      swap1\n      pop\n      jump\t// out\n        /* \"#utility.yul\":707:825   */\n    tag_46:\n        /* \"#utility.yul\":794:818   */\n      tag_72\n        /* \"#utility.yul\":812:817   */\n      dup2\n        /* \"#utility.yul\":794:818   */\n      tag_45\n      jump\t// in\n    tag_72:\n        /* \"#utility.yul\":789:792   */\n      dup3\n        /* \"#utility.yul\":782:819   */\n      mstore\n        /* \"#utility.yul\":707:825   */\n      pop\n      pop\n      jump\t// out\n        /* \"#utility.yul\":831:1053   */\n    tag_15:\n        /* \"#utility.yul\":924:928   */\n      0x00\n        /* \"#utility.yul\":962:964   */\n      0x20\n        /* \"#utility.yul\":951:960   */\n      dup3\n        /* \"#utility.yul\":947:965   */\n      add\n        /* \"#utility.yul\":939:965   */\n      swap1\n      pop\n        /* \"#utility.yul\":975:1046   */\n      tag_74\n        /* \"#utility.yul\":1043:1044   */\n      0x00\n        /* \"#utility.yul\":1032:1041   */\n      dup4\n        /* \"#utility.yul\":1028:1045   */\n      add\n        /* \"#utility.yul\":1019:1025   */\n      dup5\n        /* \"#utility.yul\":975:1046   */\n      tag_46\n      jump\t// in\n    tag_74:\n        /* \"#utility.yul\":831:1053   */\n      swap3\n      swap2\n      pop\n      pop\n      jump\t// out\n        /* \"#utility.yul\":1140:1257   */\n    tag_48:\n        /* \"#utility.yul\":1249:1250   */\n      0x00\n        /* \"#utility.yul\":1246:1247   */\n      0x00\n        /* \"#utility.yul\":1239:1251   */\n      revert\n        /* \"#utility.yul\":1386:1490   */\n    tag_50:\n        /* \"#utility.yul\":1431:1438   */\n      0x00\n        /* \"#utility.yul\":1460:1484   */\n      tag_79\n        /* \"#utility.yul\":1478:1483   */\n      dup3\n        /* \"#utility.yul\":1460:1484   */\n      tag_44\n      jump\t// in\n    tag_79:\n        /* \"#utility.yul\":1449:1484   */\n      swap1\n      pop\n        /* \"#utility.yul\":1386:1490   */\n      swap2\n      swap1\n      pop\n      jump\t// out\n        /* \"#utility.yul\":1496:1634   */\n    tag_51:\n        /* \"#utility.yul\":1577:1609   */\n      tag_81\n        /* \"#utility.yul\":1603:1608   */\n      dup2\n        /* \"#utility.yul\":1577:1609   */\n      tag_50\n      jump\t// in\n    tag_81:\n        /* \"#utility.yul\":1570:1575   */\n      dup2\n        /* \"#utility.yul\":1567:1610   */\n      eq\n        /* \"#utility.yul\":1557:1628   */\n      tag_82\n      jumpi\n        /* \"#utility.yul\":1624:1625   */\n      0x00\n        /* \"#utility.yul\":1621:1622   */\n      0x00\n        /* \"#utility.yul\":1614:1626   */\n      revert\n        /* \"#utility.yul\":1557:1628   */\n    tag_82:\n        /* \"#utility.yul\":1496:1634   */\n      pop\n      jump\t// out\n        /* \"#utility.yul\":1640:1795   */\n    tag_52:\n        /* \"#utility.yul\":1694:1699   */\n      0x00\n        /* \"#utility.yul\":1732:1738   */\n      dup2\n        /* \"#utility.yul\":1719:1739   */\n      calldataload\n        /* \"#utility.yul\":1710:1739   */\n      swap1\n      pop\n        /* \"#utility.yul\":1748:1789   */\n      tag_84\n        /* \"#utility.yul\":1783:1788   */\n      dup2\n        /* \"#utility.yul\":1748:1789   */\n      tag_51\n      jump\t// in\n    tag_84:\n        /* \"#utility.yul\":1640:1795   */\n      swap3\n      swap2\n      pop\n      pop\n      jump\t// out\n        /* \"#utility.yul\":1801:1923   */\n    tag_53:\n        /* \"#utility.yul\":1874:1898   */\n      tag_86\n        /* \"#utility.yul\":1892:1897   */\n      dup2\n        /* \"#utility.yul\":1874:1898   */\n      tag_42\n      jump\t// in\n    tag_86:\n        /* \"#utility.yul\":1867:1872   */\n      dup2\n        /* \"#utility.yul\":1864:1899   */\n      eq\n        /* \"#utility.yul\":1854:1917   */\n      tag_87\n      jumpi\n        /* \"#utility.yul\":1913:1914   */\n      0x00\n        /* \"#utility.yul\":1910:1911   */\n      0x00\n        /* \"#utility.yul\":1903:1915   */\n      revert\n        /* \"#utility.yul\":1854:1917   */\n    tag_87:\n        /* \"#utility.yul\":1801:1923   */\n      pop\n      jump\t// out\n        /* \"#utility.yul\":1929:2068   */\n    tag_54:\n        /* \"#utility.yul\":1975:1980   */\n      0x00\n        /* \"#utility.yul\":2013:2019   */\n      dup2\n        /* \"#utility.yul\":2000:2020   */\n      calldataload\n        /* \"#utility.yul\":1991:2020   */\n      swap1\n      pop\n        /* \"#utility.yul\":2029:2062   */\n      tag_89\n        /* \"#utility.yul\":2056:2061   */\n      dup2\n        /* \"#utility.yul\":2029:2062   */\n      tag_53\n      jump\t// in\n    tag_89:\n        /* \"#utility.yul\":1929:2068   */\n      swap3\n      swap2\n      pop\n      pop\n      jump\t// out\n        /* \"#utility.yul\":2074:2564   */\n    tag_19:\n        /* \"#utility.yul\":2150:2156   */\n      0x00\n        /* \"#utility.yul\":2158:2164   */\n      0x00\n        /* \"#utility.yul\":2207:2209   */\n      0x40\n        /* \"#utility.yul\":2195:2204   */\n      dup4\n        /* \"#utility.yul\":2186:2193   */\n      dup6\n        /* \"#utility.yul\":2182:2205   */\n      sub\n        /* \"#utility.yul\":2178:2210   */\n      slt\n        /* \"#utility.yul\":2175:2294   */\n      iszero\n      tag_91\n      jumpi\n        /* \"#utility.yul\":2213:2292   */\n      tag_92\n      tag_48\n      jump\t// in\n    tag_92:\n        /* \"#utility.yul\":2175:2294   */\n    tag_91:\n        /* \"#utility.yul\":2333:2334   */\n      0x00\n        /* \"#utility.yul\":2358:2419   */\n      tag_93\n        /* \"#utility.yul\":2411:2418   */\n      dup6\n        /* \"#utility.yul\":2402:2408   */\n      dup3\n        /* \"#utility.yul\":2391:2400   */\n      dup7\n        /* \"#utility.yul\":2387:2409   */\n      add\n        /* \"#utility.yul\":2358:2419   */\n      tag_52\n      jump\t// in\n    tag_93:\n        /* \"#utility.yul\":2348:2419   */\n      swap3\n      pop\n        /* \"#utility.yul\":2304:2429   */\n      pop\n        /* \"#utility.yul\":2468:2470   */\n      0x20\n        /* \"#utility.yul\":2494:2547   */\n      tag_94\n        /* \"#utility.yul\":2539:2546   */\n      dup6\n        /* \"#utility.yul\":2530:2536   */\n      dup3\n        /* \"#utility.yul\":2519:2528   */\n      dup7\n        /* \"#utility.yul\":2515:2537   */\n      add\n        /* \"#utility.yul\":2494:2547   */\n      tag_54\n      jump\t// in\n    tag_94:\n        /* \"#utility.yul\":2484:2547   */\n      swap2\n      pop\n        /* \"#utility.yul\":2439:2557   */\n      pop\n        /* \"#utility.yul\":2074:2564   */\n      swap3\n      pop\n      swap3\n      swap1\n      pop\n      jump\t// out\n        /* \"#utility.yul\":2570:2660   */\n    tag_55:\n        /* \"#utility.yul\":2604:2611   */\n      0x00\n        /* \"#utility.yul\":2647:2652   */\n      dup2\n        /* \"#utility.yul\":2640:2653   */\n      iszero\n        /* \"#utility.yul\":2633:2654   */\n      iszero\n        /* \"#utility.yul\":2622:2654   */\n      swap1\n      pop\n        /* \"#utility.yul\":2570:2660   */\n      swap2\n      swap1\n      pop\n      jump\t// out\n        /* \"#utility.yul\":2666:2775   */\n    tag_56:\n        /* \"#utility.yul\":2747:2768   */\n      tag_97\n        /* \"#utility.yul\":2762:2767   */\n      dup2\n        /* \"#utility.yul\":2747:2768   */\n      tag_55\n      jump\t// in\n    tag_97:\n        /* \"#utility.yul\":2742:2745   */\n      dup3\n        /* \"#utility.yul\":2735:2769   */\n      mstore\n        /* \"#utility.yul\":2666:2775   */\n      pop\n      pop\n      jump\t// out\n        /* \"#utility.yul\":2781:2991   */\n    tag_22:\n        /* \"#utility.yul\":2868:2872   */\n      0x00\n        /* \"#utility.yul\":2906:2908   */\n      0x20\n        /* \"#utility.yul\":2895:2904   */\n      dup3\n        /* \"#utility.yul\":2891:2909   */\n      add\n        /* \"#utility.yul\":2883:2909   */\n      swap1\n      pop\n        /* \"#utility.yul\":2919:2984   */\n      tag_99\n        /* \"#utility.yul\":2981:2982   */\n      0x00\n        /* \"#utility.yul\":2970:2979   */\n      dup4\n        /* \"#utility.yul\":2966:2983   */\n      add\n        /* \"#utility.yul\":2957:2963   */\n      dup5\n        /* \"#utility.yul\":2919:2984   */\n      tag_56\n      jump\t// in\n    tag_99:\n        /* \"#utility.yul\":2781:2991   */\n      swap3\n      swap2\n      pop\n      pop\n      jump\t// out\n        /* \"#utility.yul\":2997:3166   */\n    tag_57:\n        /* \"#utility.yul\":3081:3092   */\n      0x00\n        /* \"#utility.yul\":3115:3121   */\n      dup3\n        /* \"#utility.yul\":3110:3113   */\n      dup3\n        /* \"#utility.yul\":3103:3122   */\n      mstore\n        /* \"#utility.yul\":3155:3159   */\n      0x20\n        /* \"#utility.yul\":3150:3153   */\n      dup3\n        /* \"#utility.yul\":3146:3160   */\n      add\n        /* \"#utility.yul\":3131:3160   */\n      swap1\n      pop\n        /* \"#utility.yul\":2997:3166   */\n      swap3\n      swap2\n      pop\n      pop\n      jump\t// out\n        /* \"#utility.yul\":3172:3354   */\n    tag_58:\n        /* \"#utility.yul\":3312:3346   */\n      0x496e73756666696369656e742062616c616e636520696e20636f6e7472616374\n        /* \"#utility.yul\":3308:3309   */\n      0x00\n        /* \"#utility.yul\":3300:3306   */\n      dup3\n        /* \"#utility.yul\":3296:3310   */\n      add\n        /* \"#utility.yul\":3289:3347   */\n      mstore\n        /* \"#utility.yul\":3172:3354   */\n      pop\n      jump\t// out\n        /* \"#utility.yul\":3360:3726   */\n    tag_59:\n        /* \"#utility.yul\":3502:3505   */\n      0x00\n        /* \"#utility.yul\":3523:3590   */\n      tag_103\n        /* \"#utility.yul\":3587:3589   */\n      0x20\n        /* \"#utility.yul\":3582:3585   */\n      dup4\n        /* \"#utility.yul\":3523:3590   */\n      tag_57\n      jump\t// in\n    tag_103:\n        /* \"#utility.yul\":3516:3590   */\n      swap2\n      pop\n        /* \"#utility.yul\":3599:3692   */\n      tag_104\n        /* \"#utility.yul\":3688:3691   */\n      dup3\n        /* \"#utility.yul\":3599:3692   */\n      tag_58\n      jump\t// in\n    tag_104:\n        /* \"#utility.yul\":3717:3719   */\n      0x20\n        /* \"#utility.yul\":3712:3715   */\n      dup3\n        /* \"#utility.yul\":3708:3720   */\n      add\n        /* \"#utility.yul\":3701:3720   */\n      swap1\n      pop\n        /* \"#utility.yul\":3360:3726   */\n      swap2\n      swap1\n      pop\n      jump\t// out\n        /* \"#utility.yul\":3732:4151   */\n    tag_33:\n        /* \"#utility.yul\":3898:3902   */\n      0x00\n        /* \"#utility.yul\":3936:3938   */\n      0x20\n        /* \"#utility.yul\":3925:3934   */\n      dup3\n        /* \"#utility.yul\":3921:3939   */\n      add\n        /* \"#utility.yul\":3913:3939   */\n      swap1\n      pop\n        /* \"#utility.yul\":3985:3994   */\n      dup2\n        /* \"#utility.yul\":3979:3983   */\n      dup2\n        /* \"#utility.yul\":3975:3995   */\n      sub\n        /* \"#utility.yul\":3971:3972   */\n      0x00\n        /* \"#utility.yul\":3960:3969   */\n      dup4\n        /* \"#utility.yul\":3956:3973   */\n      add\n        /* \"#utility.yul\":3949:3996   */\n      mstore\n        /* \"#utility.yul\":4013:4144   */\n      tag_106\n        /* \"#utility.yul\":4139:4143   */\n      dup2\n        /* \"#utility.yul\":4013:4144   */\n      tag_59\n      jump\t// in\n    tag_106:\n        /* \"#utility.yul\":4005:4144   */\n      swap1\n      pop\n        /* \"#utility.yul\":3732:4151   */\n      swap2\n      swap1\n      pop\n      jump\t// out\n\n    auxdata: 0xa26469706673582212202916e52f4c22bf79e65eba66cdb3b7332e249bbc6ac255115d35ce706e52e0cb64736f6c634300081c0033\n}\n",
				"bytecode": {
					"linkReferences": {},
					"object": "6080604052348015600e575f5ffd5b5061046f8061001c5f395ff3fe608060405260043610610042575f3560e01c806338cc4831146100635780634b5694501461008d578063a3912ec8146100c9578063e2dc35e0146100d35761005f565b3661005f57345f5f828254610057919061025c565b925050819055005b5f5ffd5b34801561006e575f5ffd5b506100776100fb565b60405161008491906102ce565b60405180910390f35b348015610098575f5ffd5b506100b360048036038101906100ae9190610350565b610102565b6040516100c091906103a8565b60405180910390f35b6100d1610182565b005b3480156100de575f5ffd5b506100f960048036038101906100f49190610350565b61019b565b005b5f30905090565b5f81471015610146576040517f08c379a000000000000000000000000000000000000000000000000000000000815260040161013d9061041b565b60405180910390fd5b8273ffffffffffffffffffffffffffffffffffffffff166108fc8390811502906040515f60405180830381858888f19350505050905092915050565b345f5f828254610192919061025c565b92505081905550565b804710156101de576040517f08c379a00000000000000000000000000000000000000000000000000000000081526004016101d59061041b565b60405180910390fd5b8173ffffffffffffffffffffffffffffffffffffffff166108fc8290811502906040515f60405180830381858888f19350505050158015610221573d5f5f3e3d5ffd5b505050565b5f819050919050565b7f4e487b71000000000000000000000000000000000000000000000000000000005f52601160045260245ffd5b5f61026682610226565b915061027183610226565b92508282019050808211156102895761028861022f565b5b92915050565b5f73ffffffffffffffffffffffffffffffffffffffff82169050919050565b5f6102b88261028f565b9050919050565b6102c8816102ae565b82525050565b5f6020820190506102e15f8301846102bf565b92915050565b5f5ffd5b5f6102f58261028f565b9050919050565b610305816102eb565b811461030f575f5ffd5b50565b5f81359050610320816102fc565b92915050565b61032f81610226565b8114610339575f5ffd5b50565b5f8135905061034a81610326565b92915050565b5f5f60408385031215610366576103656102e7565b5b5f61037385828601610312565b92505060206103848582860161033c565b9150509250929050565b5f8115159050919050565b6103a28161038e565b82525050565b5f6020820190506103bb5f830184610399565b92915050565b5f82825260208201905092915050565b7f496e73756666696369656e742062616c616e636520696e20636f6e74726163745f82015250565b5f6104056020836103c1565b9150610410826103d1565b602082019050919050565b5f6020820190508181035f830152610432816103f9565b905091905056fea26469706673582212202916e52f4c22bf79e65eba66cdb3b7332e249bbc6ac255115d35ce706e52e0cb64736f6c634300081c0033",
					"opcodes": "PUSH1 0x80 PUSH1 0x40 MSTORE CALLVALUE DUP1 ISZERO PUSH1 0xE JUMPI PUSH0 PUSH0 REVERT JUMPDEST POP PUSH2 0x46F DUP1 PUSH2 0x1C PUSH0 CODECOPY PUSH0 RETURN INVALID PUSH1 0x80 PUSH1 0x40 MSTORE PUSH1 0x4 CALLDATASIZE LT PUSH2 0x42 JUMPI PUSH0 CALLDATALOAD PUSH1 0xE0 SHR DUP1 PUSH4 0x38CC4831 EQ PUSH2 0x63 JUMPI DUP1 PUSH4 0x4B569450 EQ PUSH2 0x8D JUMPI DUP1 PUSH4 0xA3912EC8 EQ PUSH2 0xC9 JUMPI DUP1 PUSH4 0xE2DC35E0 EQ PUSH2 0xD3 JUMPI PUSH2 0x5F JUMP JUMPDEST CALLDATASIZE PUSH2 0x5F JUMPI CALLVALUE PUSH0 PUSH0 DUP3 DUP3 SLOAD PUSH2 0x57 SWAP2 SWAP1 PUSH2 0x25C JUMP JUMPDEST SWAP3 POP POP DUP2 SWAP1 SSTORE STOP JUMPDEST PUSH0 PUSH0 REVERT JUMPDEST CALLVALUE DUP1 ISZERO PUSH2 0x6E JUMPI PUSH0 PUSH0 REVERT JUMPDEST POP PUSH2 0x77 PUSH2 0xFB JUMP JUMPDEST PUSH1 0x40 MLOAD PUSH2 0x84 SWAP2 SWAP1 PUSH2 0x2CE JUMP JUMPDEST PUSH1 0x40 MLOAD DUP1 SWAP2 SUB SWAP1 RETURN JUMPDEST CALLVALUE DUP1 ISZERO PUSH2 0x98 JUMPI PUSH0 PUSH0 REVERT JUMPDEST POP PUSH2 0xB3 PUSH1 0x4 DUP1 CALLDATASIZE SUB DUP2 ADD SWAP1 PUSH2 0xAE SWAP2 SWAP1 PUSH2 0x350 JUMP JUMPDEST PUSH2 0x102 JUMP JUMPDEST PUSH1 0x40 MLOAD PUSH2 0xC0 SWAP2 SWAP1 PUSH2 0x3A8 JUMP JUMPDEST PUSH1 0x40 MLOAD DUP1 SWAP2 SUB SWAP1 RETURN JUMPDEST PUSH2 0xD1 PUSH2 0x182 JUMP JUMPDEST STOP JUMPDEST CALLVALUE DUP1 ISZERO PUSH2 0xDE JUMPI PUSH0 PUSH0 REVERT JUMPDEST POP PUSH2 0xF9 PUSH1 0x4 DUP1 CALLDATASIZE SUB DUP2 ADD SWAP1 PUSH2 0xF4 SWAP2 SWAP1 PUSH2 0x350 JUMP JUMPDEST PUSH2 0x19B JUMP JUMPDEST STOP JUMPDEST PUSH0 ADDRESS SWAP1 POP SWAP1 JUMP JUMPDEST PUSH0 DUP2 SELFBALANCE LT ISZERO PUSH2 0x146 JUMPI PUSH1 0x40 MLOAD PUSH32 0x8C379A000000000000000000000000000000000000000000000000000000000 DUP2 MSTORE PUSH1 0x4 ADD PUSH2 0x13D SWAP1 PUSH2 0x41B JUMP JUMPDEST PUSH1 0x40 MLOAD DUP1 SWAP2 SUB SWAP1 REVERT JUMPDEST DUP3 PUSH20 0xFFFFFFFFFFFFFFFFFFFFFFFFFFFFFFFFFFFFFFFF AND PUSH2 0x8FC DUP4 SWAP1 DUP2 ISZERO MUL SWAP1 PUSH1 0x40 MLOAD PUSH0 PUSH1 0x40 MLOAD DUP1 DUP4 SUB DUP2 DUP6 DUP9 DUP9 CALL SWAP4 POP POP POP POP SWAP1 POP SWAP3 SWAP2 POP POP JUMP JUMPDEST CALLVALUE PUSH0 PUSH0 DUP3 DUP3 SLOAD PUSH2 0x192 SWAP2 SWAP1 PUSH2 0x25C JUMP JUMPDEST SWAP3 POP POP DUP2 SWAP1 SSTORE POP JUMP JUMPDEST DUP1 SELFBALANCE LT ISZERO PUSH2 0x1DE JUMPI PUSH1 0x40 MLOAD PUSH32 0x8C379A000000000000000000000000000000000000000000000000000000000 DUP2 MSTORE PUSH1 0x4 ADD PUSH2 0x1D5 SWAP1 PUSH2 0x41B JUMP JUMPDEST PUSH1 0x40 MLOAD DUP1 SWAP2 SUB SWAP1 REVERT JUMPDEST DUP2 PUSH20 0xFFFFFFFFFFFFFFFFFFFFFFFFFFFFFFFFFFFFFFFF AND PUSH2 0x8FC DUP3 SWAP1 DUP2 ISZERO MUL SWAP1 PUSH1 0x40 MLOAD PUSH0 PUSH1 0x40 MLOAD DUP1 DUP4 SUB DUP2 DUP6 DUP9 DUP9 CALL SWAP4 POP POP POP POP ISZERO DUP1 ISZERO PUSH2 0x221 JUMPI RETURNDATASIZE PUSH0 PUSH0 RETURNDATACOPY RETURNDATASIZE PUSH0 REVERT JUMPDEST POP POP POP JUMP JUMPDEST PUSH0 DUP2 SWAP1 POP SWAP2 SWAP1 POP JUMP JUMPDEST PUSH32 0x4E487B7100000000000000000000000000000000000000000000000000000000 PUSH0 MSTORE PUSH1 0x11 PUSH1 0x4 MSTORE PUSH1 0x24 PUSH0 REVERT JUMPDEST PUSH0 PUSH2 0x266 DUP3 PUSH2 0x226 JUMP JUMPDEST SWAP2 POP PUSH2 0x271 DUP4 PUSH2 0x226 JUMP JUMPDEST SWAP3 POP DUP3 DUP3 ADD SWAP1 POP DUP1 DUP3 GT ISZERO PUSH2 0x289 JUMPI PUSH2 0x288 PUSH2 0x22F JUMP JUMPDEST JUMPDEST SWAP3 SWAP2 POP POP JUMP JUMPDEST PUSH0 PUSH20 0xFFFFFFFFFFFFFFFFFFFFFFFFFFFFFFFFFFFFFFFF DUP3 AND SWAP1 POP SWAP2 SWAP1 POP JUMP JUMPDEST PUSH0 PUSH2 0x2B8 DUP3 PUSH2 0x28F JUMP JUMPDEST SWAP1 POP SWAP2 SWAP1 POP JUMP JUMPDEST PUSH2 0x2C8 DUP2 PUSH2 0x2AE JUMP JUMPDEST DUP3 MSTORE POP POP JUMP JUMPDEST PUSH0 PUSH1 0x20 DUP3 ADD SWAP1 POP PUSH2 0x2E1 PUSH0 DUP4 ADD DUP5 PUSH2 0x2BF JUMP JUMPDEST SWAP3 SWAP2 POP POP JUMP JUMPDEST PUSH0 PUSH0 REVERT JUMPDEST PUSH0 PUSH2 0x2F5 DUP3 PUSH2 0x28F JUMP JUMPDEST SWAP1 POP SWAP2 SWAP1 POP JUMP JUMPDEST PUSH2 0x305 DUP2 PUSH2 0x2EB JUMP JUMPDEST DUP2 EQ PUSH2 0x30F JUMPI PUSH0 PUSH0 REVERT JUMPDEST POP JUMP JUMPDEST PUSH0 DUP2 CALLDATALOAD SWAP1 POP PUSH2 0x320 DUP2 PUSH2 0x2FC JUMP JUMPDEST SWAP3 SWAP2 POP POP JUMP JUMPDEST PUSH2 0x32F DUP2 PUSH2 0x226 JUMP JUMPDEST DUP2 EQ PUSH2 0x339 JUMPI PUSH0 PUSH0 REVERT JUMPDEST POP JUMP JUMPDEST PUSH0 DUP2 CALLDATALOAD SWAP1 POP PUSH2 0x34A DUP2 PUSH2 0x326 JUMP JUMPDEST SWAP3 SWAP2 POP POP JUMP JUMPDEST PUSH0 PUSH0 PUSH1 0x40 DUP4 DUP6 SUB SLT ISZERO PUSH2 0x366 JUMPI PUSH2 0x365 PUSH2 0x2E7 JUMP JUMPDEST JUMPDEST PUSH0 PUSH2 0x373 DUP6 DUP3 DUP7 ADD PUSH2 0x312 JUMP JUMPDEST SWAP3 POP POP PUSH1 0x20 PUSH2 0x384 DUP6 DUP3 DUP7 ADD PUSH2 0x33C JUMP JUMPDEST SWAP2 POP POP SWAP3 POP SWAP3 SWAP1 POP JUMP JUMPDEST PUSH0 DUP2 ISZERO ISZERO SWAP1 POP SWAP2 SWAP1 POP JUMP JUMPDEST PUSH2 0x3A2 DUP2 PUSH2 0x38E JUMP JUMPDEST DUP3 MSTORE POP POP JUMP JUMPDEST PUSH0 PUSH1 0x20 DUP3 ADD SWAP1 POP PUSH2 0x3BB PUSH0 DUP4 ADD DUP5 PUSH2 0x399 JUMP JUMPDEST SWAP3 SWAP2 POP POP JUMP JUMPDEST PUSH0 DUP3 DUP3 MSTORE PUSH1 0x20 DUP3 ADD SWAP1 POP SWAP3 SWAP2 POP POP JUMP JUMPDEST PUSH32 0x496E73756666696369656E742062616C616E636520696E20636F6E7472616374 PUSH0 DUP3 ADD MSTORE POP JUMP JUMPDEST PUSH0 PUSH2 0x405 PUSH1 0x20 DUP4 PUSH2 0x3C1 JUMP JUMPDEST SWAP2 POP PUSH2 0x410 DUP3 PUSH2 0x3D1 JUMP JUMPDEST PUSH1 0x20 DUP3 ADD SWAP1 POP SWAP2 SWAP1 POP JUMP JUMPDEST PUSH0 PUSH1 0x20 DUP3 ADD SWAP1 POP DUP2 DUP2 SUB PUSH0 DUP4 ADD MSTORE PUSH2 0x432 DUP2 PUSH2 0x3F9 JUMP JUMPDEST SWAP1 POP SWAP2 SWAP1 POP JUMP INVALID LOG2 PUSH5 0x6970667358 0x22 SLT KECCAK256 0x29 AND 0xE5 0x2F 0x4C 0x22 0xBF PUSH26 0xE65EBA66CDB3B7332E249BBC6AC255115D35CE706E52E0CB6473 PUSH16 0x6C634300081C00330000000000000000 "
				},
				"gasEstimates": {
					"creation": {
						"codeDepositCost": "227000",
						"executionCost": "267",
						"totalCost": "227267"
					},
					"external": {
						"getAddress()": "357",
						"receiveEther()": "infinite",
						"sendFund(address,uint256)": "infinite",
						"transferFund(address,uint256)": "infinite"
					}
				},
				"methodIdentifiers": {
					"getAddress()": "38cc4831",
					"receiveEther()": "a3912ec8",
					"sendFund(address,uint256)": "4b569450",
					"transferFund(address,uint256)": "e2dc35e0"
				}
			},
			"storageLayout": {
				"storage": [
					{
						"astId": 3,
						"contract": "contracts/adresscontract.sol:addresscontract",
						"label": "receivedAmount",
						"offset": 0,
						"slot": "0",
						"type": "t_uint256"
					}
				],
				"types": {
					"t_uint256": {
						"encoding": "inplace",
						"label": "uint256",
						"numberOfBytes": "32"
					}
				}
			},
			"userdoc": {
				"kind": "user",
				"methods": {},
				"version": 1
			}
		}
	}
}