{
	"contracts/testingproduk.sol": {
		"JamuSelection": {
			"abi": [
				{
					"inputs": [],
					"stateMutability": "nonpayable",
					"type": "constructor"
				},
				{
					"inputs": [
						{
							"internalType": "string",
							"name": "keluhan",
							"type": "string"
						}
					],
					"name": "getJamuByKeluhan",
					"outputs": [
						{
							"internalType": "string",
							"name": "",
							"type": "string"
						}
					],
					"stateMutability": "view",
					"type": "function"
				},
				{
					"inputs": [
						{
							"internalType": "string",
							"name": "",
							"type": "string"
						}
					],
					"name": "jamuProducts",
					"outputs": [
						{
							"internalType": "string",
							"name": "",
							"type": "string"
						}
					],
					"stateMutability": "view",
					"type": "function"
				}
			],
			"devdoc": {
				"kind": "dev",
				"methods": {},
				"version": 1
			},
			"evm": {
				"assembly": "    /* \"contracts/testingproduk.sol\":60:848  contract JamuSelection {... */\n  mstore(0x40, 0x80)\n    /* \"contracts/testingproduk.sol\":201:473  constructor() {... */\n  callvalue\n  dup1\n  iszero\n  tag_1\n  jumpi\n  revert(0x00, 0x00)\ntag_1:\n  pop\n    /* \"contracts/testingproduk.sol\":248:295  jamuProducts[\"pegal linu\"] = \"Jamu Kunyit Asam\" */\n  mload(0x40)\n  dup1\n  0x40\n  add\n  0x40\n  mstore\n  dup1\n  0x10\n  dup2\n  mstore\n  0x20\n  add\n  0x4a616d75204b756e796974204173616d00000000000000000000000000000000\n  dup2\n  mstore\n  pop\n    /* \"contracts/testingproduk.sol\":248:260  jamuProducts */\n  0x00\n    /* \"contracts/testingproduk.sol\":248:274  jamuProducts[\"pegal linu\"] */\n  mload(0x40)\n  tag_4\n  swap1\n  tag_5\n  jump\t// in\ntag_4:\n  swap1\n  dup2\n  mstore\n  0x20\n  add\n  mload(0x40)\n  dup1\n  swap2\n  sub\n  swap1\n  keccak256\n    /* \"contracts/testingproduk.sol\":248:295  jamuProducts[\"pegal linu\"] = \"Jamu Kunyit Asam\" */\n  swap1\n  dup2\n  tag_6\n  swap2\n  swap1\n  tag_7\n  jump\t// in\ntag_6:\n  pop\n    /* \"contracts/testingproduk.sol\":306:349  jamuProducts[\"pegal\"] = \"Jamu Beras Kencur\" */\n  mload(0x40)\n  dup1\n  0x40\n  add\n  0x40\n  mstore\n  dup1\n  0x11\n  dup2\n  mstore\n  0x20\n  add\n  0x4a616d75204265726173204b656e637572000000000000000000000000000000\n  dup2\n  mstore\n  pop\n    /* \"contracts/testingproduk.sol\":306:318  jamuProducts */\n  0x00\n    /* \"contracts/testingproduk.sol\":306:327  jamuProducts[\"pegal\"] */\n  mload(0x40)\n  tag_8\n  swap1\n  tag_9\n  jump\t// in\ntag_8:\n  swap1\n  dup2\n  mstore\n  0x20\n  add\n  mload(0x40)\n  dup1\n  swap2\n  sub\n  swap1\n  keccak256\n    /* \"contracts/testingproduk.sol\":306:349  jamuProducts[\"pegal\"] = \"Jamu Beras Kencur\" */\n  swap1\n  dup2\n  tag_10\n  swap2\n  swap1\n  tag_7\n  jump\t// in\ntag_10:\n  pop\n    /* \"contracts/testingproduk.sol\":360:405  jamuProducts[\"sakit maag\"] = \"Jamu Temulawak\" */\n  mload(0x40)\n  dup1\n  0x40\n  add\n  0x40\n  mstore\n  dup1\n  0x0e\n  dup2\n  mstore\n  0x20\n  add\n  0x4a616d752054656d756c6177616b000000000000000000000000000000000000\n  dup2\n  mstore\n  pop\n    /* \"contracts/testingproduk.sol\":360:372  jamuProducts */\n  0x00\n    /* \"contracts/testingproduk.sol\":360:386  jamuProducts[\"sakit maag\"] */\n  mload(0x40)\n  tag_11\n  swap1\n  tag_12\n  jump\t// in\ntag_11:\n  swap1\n  dup2\n  mstore\n  0x20\n  add\n  mload(0x40)\n  dup1\n  swap2\n  sub\n  swap1\n  keccak256\n    /* \"contracts/testingproduk.sol\":360:405  jamuProducts[\"sakit maag\"] = \"Jamu Temulawak\" */\n  swap1\n  dup2\n  tag_13\n  swap2\n  swap1\n  tag_7\n  jump\t// in\ntag_13:\n  pop\n    /* \"contracts/testingproduk.sol\":416:465  jamuProducts[\"penyegar tubuh\"] = \"Jamu Gula Asem\" */\n  mload(0x40)\n  dup1\n  0x40\n  add\n  0x40\n  mstore\n  dup1\n  0x0e\n  dup2\n  mstore\n  0x20\n  add\n  0x4a616d752047756c61204173656d000000000000000000000000000000000000\n  dup2\n  mstore\n  pop\n    /* \"contracts/testingproduk.sol\":416:428  jamuProducts */\n  0x00\n    /* \"contracts/testingproduk.sol\":416:446  jamuProducts[\"penyegar tubuh\"] */\n  mload(0x40)\n  tag_14\n  swap1\n  tag_15\n  jump\t// in\ntag_14:\n  swap1\n  dup2\n  mstore\n  0x20\n  add\n  mload(0x40)\n  dup1\n  swap2\n  sub\n  swap1\n  keccak256\n    /* \"contracts/testingproduk.sol\":416:465  jamuProducts[\"penyegar tubuh\"] = \"Jamu Gula Asem\" */\n  swap1\n  dup2\n  tag_16\n  swap2\n  swap1\n  tag_7\n  jump\t// in\ntag_16:\n  pop\n    /* \"contracts/testingproduk.sol\":60:848  contract JamuSelection {... */\n  jump(tag_17)\n    /* \"#utility.yul\":7:155   */\ntag_18:\n    /* \"#utility.yul\":109:120   */\n  0x00\n    /* \"#utility.yul\":146:149   */\n  dup2\n    /* \"#utility.yul\":131:149   */\n  swap1\n  pop\n    /* \"#utility.yul\":7:155   */\n  swap3\n  swap2\n  pop\n  pop\n  jump\t// out\n    /* \"#utility.yul\":161:321   */\ntag_19:\n    /* \"#utility.yul\":301:313   */\n  0x706567616c206c696e7500000000000000000000000000000000000000000000\n    /* \"#utility.yul\":297:298   */\n  0x00\n    /* \"#utility.yul\":289:295   */\n  dup3\n    /* \"#utility.yul\":285:299   */\n  add\n    /* \"#utility.yul\":278:314   */\n  mstore\n    /* \"#utility.yul\":161:321   */\n  pop\n  jump\t// out\n    /* \"#utility.yul\":327:729   */\ntag_20:\n    /* \"#utility.yul\":487:490   */\n  0x00\n    /* \"#utility.yul\":508:593   */\n  tag_51\n    /* \"#utility.yul\":590:592   */\n  0x0a\n    /* \"#utility.yul\":585:588   */\n  dup4\n    /* \"#utility.yul\":508:593   */\n  tag_18\n  jump\t// in\ntag_51:\n    /* \"#utility.yul\":501:593   */\n  swap2\n  pop\n    /* \"#utility.yul\":602:695   */\n  tag_52\n    /* \"#utility.yul\":691:694   */\n  dup3\n    /* \"#utility.yul\":602:695   */\n  tag_19\n  jump\t// in\ntag_52:\n    /* \"#utility.yul\":720:722   */\n  0x0a\n    /* \"#utility.yul\":715:718   */\n  dup3\n    /* \"#utility.yul\":711:723   */\n  add\n    /* \"#utility.yul\":704:723   */\n  swap1\n  pop\n    /* \"#utility.yul\":327:729   */\n  swap2\n  swap1\n  pop\n  jump\t// out\n    /* \"#utility.yul\":735:1116   */\ntag_5:\n    /* \"#utility.yul\":920:923   */\n  0x00\n    /* \"#utility.yul\":942:1090   */\n  tag_54\n    /* \"#utility.yul\":1086:1089   */\n  dup3\n    /* \"#utility.yul\":942:1090   */\n  tag_20\n  jump\t// in\ntag_54:\n    /* \"#utility.yul\":935:1090   */\n  swap2\n  pop\n    /* \"#utility.yul\":1107:1110   */\n  dup2\n    /* \"#utility.yul\":1100:1110   */\n  swap1\n  pop\n    /* \"#utility.yul\":735:1116   */\n  swap2\n  swap1\n  pop\n  jump\t// out\n    /* \"#utility.yul\":1122:1221   */\ntag_21:\n    /* \"#utility.yul\":1174:1180   */\n  0x00\n    /* \"#utility.yul\":1208:1213   */\n  dup2\n    /* \"#utility.yul\":1202:1214   */\n  mload\n    /* \"#utility.yul\":1192:1214   */\n  swap1\n  pop\n    /* \"#utility.yul\":1122:1221   */\n  swap2\n  swap1\n  pop\n  jump\t// out\n    /* \"#utility.yul\":1227:1407   */\ntag_22:\n    /* \"#utility.yul\":1275:1352   */\n  0x4e487b7100000000000000000000000000000000000000000000000000000000\n    /* \"#utility.yul\":1272:1273   */\n  0x00\n    /* \"#utility.yul\":1265:1353   */\n  mstore\n    /* \"#utility.yul\":1372:1376   */\n  0x41\n    /* \"#utility.yul\":1369:1370   */\n  0x04\n    /* \"#utility.yul\":1362:1377   */\n  mstore\n    /* \"#utility.yul\":1396:1400   */\n  0x24\n    /* \"#utility.yul\":1393:1394   */\n  0x00\n    /* \"#utility.yul\":1386:1401   */\n  revert\n    /* \"#utility.yul\":1413:1593   */\ntag_23:\n    /* \"#utility.yul\":1461:1538   */\n  0x4e487b7100000000000000000000000000000000000000000000000000000000\n    /* \"#utility.yul\":1458:1459   */\n  0x00\n    /* \"#utility.yul\":1451:1539   */\n  mstore\n    /* \"#utility.yul\":1558:1562   */\n  0x22\n    /* \"#utility.yul\":1555:1556   */\n  0x04\n    /* \"#utility.yul\":1548:1563   */\n  mstore\n    /* \"#utility.yul\":1582:1586   */\n  0x24\n    /* \"#utility.yul\":1579:1580   */\n  0x00\n    /* \"#utility.yul\":1572:1587   */\n  revert\n    /* \"#utility.yul\":1599:1919   */\ntag_24:\n    /* \"#utility.yul\":1643:1649   */\n  0x00\n    /* \"#utility.yul\":1680:1681   */\n  0x02\n    /* \"#utility.yul\":1674:1678   */\n  dup3\n    /* \"#utility.yul\":1670:1682   */\n  div\n    /* \"#utility.yul\":1660:1682   */\n  swap1\n  pop\n    /* \"#utility.yul\":1727:1728   */\n  0x01\n    /* \"#utility.yul\":1721:1725   */\n  dup3\n    /* \"#utility.yul\":1717:1729   */\n  and\n    /* \"#utility.yul\":1748:1766   */\n  dup1\n    /* \"#utility.yul\":1738:1819   */\n  tag_59\n  jumpi\n    /* \"#utility.yul\":1804:1808   */\n  0x7f\n    /* \"#utility.yul\":1796:1802   */\n  dup3\n    /* \"#utility.yul\":1792:1809   */\n  and\n    /* \"#utility.yul\":1782:1809   */\n  swap2\n  pop\n    /* \"#utility.yul\":1738:1819   */\ntag_59:\n    /* \"#utility.yul\":1866:1868   */\n  0x20\n    /* \"#utility.yul\":1858:1864   */\n  dup3\n    /* \"#utility.yul\":1855:1869   */\n  lt\n    /* \"#utility.yul\":1835:1853   */\n  dup2\n    /* \"#utility.yul\":1832:1870   */\n  sub\n    /* \"#utility.yul\":1829:1913   */\n  tag_60\n  jumpi\n    /* \"#utility.yul\":1885:1903   */\n  tag_61\n  tag_23\n  jump\t// in\ntag_61:\n    /* \"#utility.yul\":1829:1913   */\ntag_60:\n    /* \"#utility.yul\":1650:1919   */\n  pop\n    /* \"#utility.yul\":1599:1919   */\n  swap2\n  swap1\n  pop\n  jump\t// out\n    /* \"#utility.yul\":1925:2066   */\ntag_25:\n    /* \"#utility.yul\":1974:1978   */\n  0x00\n    /* \"#utility.yul\":1997:2000   */\n  dup2\n    /* \"#utility.yul\":1989:2000   */\n  swap1\n  pop\n    /* \"#utility.yul\":2020:2023   */\n  dup2\n    /* \"#utility.yul\":2017:2018   */\n  0x00\n    /* \"#utility.yul\":2010:2024   */\n  mstore\n    /* \"#utility.yul\":2054:2058   */\n  0x20\n    /* \"#utility.yul\":2051:2052   */\n  0x00\n    /* \"#utility.yul\":2041:2059   */\n  keccak256\n    /* \"#utility.yul\":2033:2059   */\n  swap1\n  pop\n    /* \"#utility.yul\":1925:2066   */\n  swap2\n  swap1\n  pop\n  jump\t// out\n    /* \"#utility.yul\":2072:2165   */\ntag_26:\n    /* \"#utility.yul\":2109:2115   */\n  0x00\n    /* \"#utility.yul\":2156:2158   */\n  0x20\n    /* \"#utility.yul\":2151:2153   */\n  0x1f\n    /* \"#utility.yul\":2144:2149   */\n  dup4\n    /* \"#utility.yul\":2140:2154   */\n  add\n    /* \"#utility.yul\":2136:2159   */\n  div\n    /* \"#utility.yul\":2126:2159   */\n  swap1\n  pop\n    /* \"#utility.yul\":2072:2165   */\n  swap2\n  swap1\n  pop\n  jump\t// out\n    /* \"#utility.yul\":2171:2278   */\ntag_27:\n    /* \"#utility.yul\":2215:2223   */\n  0x00\n    /* \"#utility.yul\":2265:2270   */\n  dup3\n    /* \"#utility.yul\":2259:2263   */\n  dup3\n    /* \"#utility.yul\":2255:2271   */\n  shl\n    /* \"#utility.yul\":2234:2271   */\n  swap1\n  pop\n    /* \"#utility.yul\":2171:2278   */\n  swap3\n  swap2\n  pop\n  pop\n  jump\t// out\n    /* \"#utility.yul\":2284:2677   */\ntag_28:\n    /* \"#utility.yul\":2353:2359   */\n  0x00\n    /* \"#utility.yul\":2403:2404   */\n  0x08\n    /* \"#utility.yul\":2391:2401   */\n  dup4\n    /* \"#utility.yul\":2387:2405   */\n  mul\n    /* \"#utility.yul\":2426:2523   */\n  tag_66\n    /* \"#utility.yul\":2456:2522   */\n  0xffffffffffffffffffffffffffffffffffffffffffffffffffffffffffffffff\n    /* \"#utility.yul\":2445:2454   */\n  dup3\n    /* \"#utility.yul\":2426:2523   */\n  tag_27\n  jump\t// in\ntag_66:\n    /* \"#utility.yul\":2544:2583   */\n  tag_67\n    /* \"#utility.yul\":2574:2582   */\n  dup7\n    /* \"#utility.yul\":2563:2572   */\n  dup4\n    /* \"#utility.yul\":2544:2583   */\n  tag_27\n  jump\t// in\ntag_67:\n    /* \"#utility.yul\":2532:2583   */\n  swap6\n  pop\n    /* \"#utility.yul\":2616:2620   */\n  dup1\n    /* \"#utility.yul\":2612:2621   */\n  not\n    /* \"#utility.yul\":2605:2610   */\n  dup5\n    /* \"#utility.yul\":2601:2622   */\n  and\n    /* \"#utility.yul\":2592:2622   */\n  swap4\n  pop\n    /* \"#utility.yul\":2665:2669   */\n  dup1\n    /* \"#utility.yul\":2655:2663   */\n  dup7\n    /* \"#utility.yul\":2651:2670   */\n  and\n    /* \"#utility.yul\":2644:2649   */\n  dup5\n    /* \"#utility.yul\":2641:2671   */\n  or\n    /* \"#utility.yul\":2631:2671   */\n  swap3\n  pop\n    /* \"#utility.yul\":2360:2677   */\n  pop\n  pop\n    /* \"#utility.yul\":2284:2677   */\n  swap4\n  swap3\n  pop\n  pop\n  pop\n  jump\t// out\n    /* \"#utility.yul\":2683:2760   */\ntag_29:\n    /* \"#utility.yul\":2720:2727   */\n  0x00\n    /* \"#utility.yul\":2749:2754   */\n  dup2\n    /* \"#utility.yul\":2738:2754   */\n  swap1\n  pop\n    /* \"#utility.yul\":2683:2760   */\n  swap2\n  swap1\n  pop\n  jump\t// out\n    /* \"#utility.yul\":2766:2826   */\ntag_30:\n    /* \"#utility.yul\":2794:2797   */\n  0x00\n    /* \"#utility.yul\":2815:2820   */\n  dup2\n    /* \"#utility.yul\":2808:2820   */\n  swap1\n  pop\n    /* \"#utility.yul\":2766:2826   */\n  swap2\n  swap1\n  pop\n  jump\t// out\n    /* \"#utility.yul\":2832:2974   */\ntag_31:\n    /* \"#utility.yul\":2882:2891   */\n  0x00\n    /* \"#utility.yul\":2915:2968   */\n  tag_71\n    /* \"#utility.yul\":2933:2967   */\n  tag_72\n    /* \"#utility.yul\":2942:2966   */\n  tag_73\n    /* \"#utility.yul\":2960:2965   */\n  dup5\n    /* \"#utility.yul\":2942:2966   */\n  tag_29\n  jump\t// in\ntag_73:\n    /* \"#utility.yul\":2933:2967   */\n  tag_30\n  jump\t// in\ntag_72:\n    /* \"#utility.yul\":2915:2968   */\n  tag_29\n  jump\t// in\ntag_71:\n    /* \"#utility.yul\":2902:2968   */\n  swap1\n  pop\n    /* \"#utility.yul\":2832:2974   */\n  swap2\n  swap1\n  pop\n  jump\t// out\n    /* \"#utility.yul\":2980:3055   */\ntag_32:\n    /* \"#utility.yul\":3023:3026   */\n  0x00\n    /* \"#utility.yul\":3044:3049   */\n  dup2\n    /* \"#utility.yul\":3037:3049   */\n  swap1\n  pop\n    /* \"#utility.yul\":2980:3055   */\n  swap2\n  swap1\n  pop\n  jump\t// out\n    /* \"#utility.yul\":3061:3330   */\ntag_33:\n    /* \"#utility.yul\":3171:3210   */\n  tag_76\n    /* \"#utility.yul\":3202:3209   */\n  dup4\n    /* \"#utility.yul\":3171:3210   */\n  tag_31\n  jump\t// in\ntag_76:\n    /* \"#utility.yul\":3232:3323   */\n  tag_77\n    /* \"#utility.yul\":3281:3322   */\n  tag_78\n    /* \"#utility.yul\":3305:3321   */\n  dup3\n    /* \"#utility.yul\":3281:3322   */\n  tag_32\n  jump\t// in\ntag_78:\n    /* \"#utility.yul\":3273:3279   */\n  dup5\n    /* \"#utility.yul\":3266:3270   */\n  dup5\n    /* \"#utility.yul\":3260:3271   */\n  sload\n    /* \"#utility.yul\":3232:3323   */\n  tag_28\n  jump\t// in\ntag_77:\n    /* \"#utility.yul\":3226:3230   */\n  dup3\n    /* \"#utility.yul\":3219:3324   */\n  sstore\n    /* \"#utility.yul\":3137:3330   */\n  pop\n    /* \"#utility.yul\":3061:3330   */\n  pop\n  pop\n  pop\n  jump\t// out\n    /* \"#utility.yul\":3336:3409   */\ntag_34:\n    /* \"#utility.yul\":3381:3384   */\n  0x00\n    /* \"#utility.yul\":3402:3403   */\n  0x00\n    /* \"#utility.yul\":3395:3403   */\n  swap1\n  pop\n    /* \"#utility.yul\":3336:3409   */\n  swap1\n  jump\t// out\n    /* \"#utility.yul\":3415:3604   */\ntag_35:\n    /* \"#utility.yul\":3492:3524   */\n  tag_81\n  tag_34\n  jump\t// in\ntag_81:\n    /* \"#utility.yul\":3533:3598   */\n  tag_82\n    /* \"#utility.yul\":3591:3597   */\n  dup2\n    /* \"#utility.yul\":3583:3589   */\n  dup5\n    /* \"#utility.yul\":3577:3581   */\n  dup5\n    /* \"#utility.yul\":3533:3598   */\n  tag_33\n  jump\t// in\ntag_82:\n    /* \"#utility.yul\":3468:3604   */\n  pop\n    /* \"#utility.yul\":3415:3604   */\n  pop\n  pop\n  jump\t// out\n    /* \"#utility.yul\":3610:3796   */\ntag_36:\n    /* \"#utility.yul\":3670:3790   */\ntag_84:\n    /* \"#utility.yul\":3687:3690   */\n  dup2\n    /* \"#utility.yul\":3680:3685   */\n  dup2\n    /* \"#utility.yul\":3677:3691   */\n  lt\n    /* \"#utility.yul\":3670:3790   */\n  iszero\n  tag_86\n  jumpi\n    /* \"#utility.yul\":3741:3780   */\n  tag_87\n    /* \"#utility.yul\":3778:3779   */\n  0x00\n    /* \"#utility.yul\":3771:3776   */\n  dup3\n    /* \"#utility.yul\":3741:3780   */\n  tag_35\n  jump\t// in\ntag_87:\n    /* \"#utility.yul\":3714:3715   */\n  0x01\n    /* \"#utility.yul\":3707:3712   */\n  dup2\n    /* \"#utility.yul\":3703:3716   */\n  add\n    /* \"#utility.yul\":3694:3716   */\n  swap1\n  pop\n    /* \"#utility.yul\":3670:3790   */\n  jump(tag_84)\ntag_86:\n    /* \"#utility.yul\":3610:3796   */\n  pop\n  pop\n  jump\t// out\n    /* \"#utility.yul\":3802:4345   */\ntag_37:\n    /* \"#utility.yul\":3903:3905   */\n  0x1f\n    /* \"#utility.yul\":3898:3901   */\n  dup3\n    /* \"#utility.yul\":3895:3906   */\n  gt\n    /* \"#utility.yul\":3892:4338   */\n  iszero\n  tag_89\n  jumpi\n    /* \"#utility.yul\":3937:3975   */\n  tag_90\n    /* \"#utility.yul\":3969:3974   */\n  dup2\n    /* \"#utility.yul\":3937:3975   */\n  tag_25\n  jump\t// in\ntag_90:\n    /* \"#utility.yul\":4021:4050   */\n  tag_91\n    /* \"#utility.yul\":4039:4049   */\n  dup5\n    /* \"#utility.yul\":4021:4050   */\n  tag_26\n  jump\t// in\ntag_91:\n    /* \"#utility.yul\":4011:4019   */\n  dup2\n    /* \"#utility.yul\":4007:4051   */\n  add\n    /* \"#utility.yul\":4204:4206   */\n  0x20\n    /* \"#utility.yul\":4192:4202   */\n  dup6\n    /* \"#utility.yul\":4189:4207   */\n  lt\n    /* \"#utility.yul\":4186:4235   */\n  iszero\n  tag_92\n  jumpi\n    /* \"#utility.yul\":4225:4233   */\n  dup2\n    /* \"#utility.yul\":4210:4233   */\n  swap1\n  pop\n    /* \"#utility.yul\":4186:4235   */\ntag_92:\n    /* \"#utility.yul\":4248:4328   */\n  tag_93\n    /* \"#utility.yul\":4304:4326   */\n  tag_94\n    /* \"#utility.yul\":4322:4325   */\n  dup6\n    /* \"#utility.yul\":4304:4326   */\n  tag_26\n  jump\t// in\ntag_94:\n    /* \"#utility.yul\":4294:4302   */\n  dup4\n    /* \"#utility.yul\":4290:4327   */\n  add\n    /* \"#utility.yul\":4277:4288   */\n  dup3\n    /* \"#utility.yul\":4248:4328   */\n  tag_36\n  jump\t// in\ntag_93:\n    /* \"#utility.yul\":3907:4338   */\n  pop\n  pop\n    /* \"#utility.yul\":3892:4338   */\ntag_89:\n    /* \"#utility.yul\":3802:4345   */\n  pop\n  pop\n  pop\n  jump\t// out\n    /* \"#utility.yul\":4351:4468   */\ntag_38:\n    /* \"#utility.yul\":4405:4413   */\n  0x00\n    /* \"#utility.yul\":4455:4460   */\n  dup3\n    /* \"#utility.yul\":4449:4453   */\n  dup3\n    /* \"#utility.yul\":4445:4461   */\n  shr\n    /* \"#utility.yul\":4424:4461   */\n  swap1\n  pop\n    /* \"#utility.yul\":4351:4468   */\n  swap3\n  swap2\n  pop\n  pop\n  jump\t// out\n    /* \"#utility.yul\":4474:4643   */\ntag_39:\n    /* \"#utility.yul\":4518:4524   */\n  0x00\n    /* \"#utility.yul\":4551:4602   */\n  tag_97\n    /* \"#utility.yul\":4599:4600   */\n  0x00\n    /* \"#utility.yul\":4595:4601   */\n  not\n    /* \"#utility.yul\":4587:4592   */\n  dup5\n    /* \"#utility.yul\":4584:4585   */\n  0x08\n    /* \"#utility.yul\":4580:4593   */\n  mul\n    /* \"#utility.yul\":4551:4602   */\n  tag_38\n  jump\t// in\ntag_97:\n    /* \"#utility.yul\":4547:4603   */\n  not\n    /* \"#utility.yul\":4632:4636   */\n  dup1\n    /* \"#utility.yul\":4626:4630   */\n  dup4\n    /* \"#utility.yul\":4622:4637   */\n  and\n    /* \"#utility.yul\":4612:4637   */\n  swap2\n  pop\n    /* \"#utility.yul\":4525:4643   */\n  pop\n    /* \"#utility.yul\":4474:4643   */\n  swap3\n  swap2\n  pop\n  pop\n  jump\t// out\n    /* \"#utility.yul\":4648:4943   */\ntag_40:\n    /* \"#utility.yul\":4724:4728   */\n  0x00\n    /* \"#utility.yul\":4870:4899   */\n  tag_99\n    /* \"#utility.yul\":4895:4898   */\n  dup4\n    /* \"#utility.yul\":4889:4893   */\n  dup4\n    /* \"#utility.yul\":4870:4899   */\n  tag_39\n  jump\t// in\ntag_99:\n    /* \"#utility.yul\":4862:4899   */\n  swap2\n  pop\n    /* \"#utility.yul\":4932:4935   */\n  dup3\n    /* \"#utility.yul\":4929:4930   */\n  0x02\n    /* \"#utility.yul\":4925:4936   */\n  mul\n    /* \"#utility.yul\":4919:4923   */\n  dup3\n    /* \"#utility.yul\":4916:4937   */\n  or\n    /* \"#utility.yul\":4908:4937   */\n  swap1\n  pop\n    /* \"#utility.yul\":4648:4943   */\n  swap3\n  swap2\n  pop\n  pop\n  jump\t// out\n    /* \"#utility.yul\":4948:6343   */\ntag_7:\n    /* \"#utility.yul\":5065:5102   */\n  tag_101\n    /* \"#utility.yul\":5098:5101   */\n  dup3\n    /* \"#utility.yul\":5065:5102   */\n  tag_21\n  jump\t// in\ntag_101:\n    /* \"#utility.yul\":5167:5185   */\n  0xffffffffffffffff\n    /* \"#utility.yul\":5159:5165   */\n  dup2\n    /* \"#utility.yul\":5156:5186   */\n  gt\n    /* \"#utility.yul\":5153:5209   */\n  iszero\n  tag_102\n  jumpi\n    /* \"#utility.yul\":5189:5207   */\n  tag_103\n  tag_22\n  jump\t// in\ntag_103:\n    /* \"#utility.yul\":5153:5209   */\ntag_102:\n    /* \"#utility.yul\":5233:5271   */\n  tag_104\n    /* \"#utility.yul\":5265:5269   */\n  dup3\n    /* \"#utility.yul\":5259:5270   */\n  sload\n    /* \"#utility.yul\":5233:5271   */\n  tag_24\n  jump\t// in\ntag_104:\n    /* \"#utility.yul\":5318:5385   */\n  tag_105\n    /* \"#utility.yul\":5378:5384   */\n  dup3\n    /* \"#utility.yul\":5370:5376   */\n  dup3\n    /* \"#utility.yul\":5364:5368   */\n  dup6\n    /* \"#utility.yul\":5318:5385   */\n  tag_37\n  jump\t// in\ntag_105:\n    /* \"#utility.yul\":5412:5413   */\n  0x00\n    /* \"#utility.yul\":5436:5440   */\n  0x20\n    /* \"#utility.yul\":5423:5440   */\n  swap1\n  pop\n    /* \"#utility.yul\":5468:5470   */\n  0x1f\n    /* \"#utility.yul\":5460:5466   */\n  dup4\n    /* \"#utility.yul\":5457:5471   */\n  gt\n    /* \"#utility.yul\":5485:5486   */\n  0x01\n    /* \"#utility.yul\":5480:6098   */\n  dup2\n  eq\n  tag_107\n  jumpi\n    /* \"#utility.yul\":6142:6143   */\n  0x00\n    /* \"#utility.yul\":6159:6165   */\n  dup5\n    /* \"#utility.yul\":6156:6233   */\n  iszero\n  tag_108\n  jumpi\n    /* \"#utility.yul\":6208:6217   */\n  dup3\n    /* \"#utility.yul\":6203:6206   */\n  dup8\n    /* \"#utility.yul\":6199:6218   */\n  add\n    /* \"#utility.yul\":6193:6219   */\n  mload\n    /* \"#utility.yul\":6184:6219   */\n  swap1\n  pop\n    /* \"#utility.yul\":6156:6233   */\ntag_108:\n    /* \"#utility.yul\":6259:6326   */\n  tag_109\n    /* \"#utility.yul\":6319:6325   */\n  dup6\n    /* \"#utility.yul\":6312:6317   */\n  dup3\n    /* \"#utility.yul\":6259:6326   */\n  tag_40\n  jump\t// in\ntag_109:\n    /* \"#utility.yul\":6253:6257   */\n  dup7\n    /* \"#utility.yul\":6246:6327   */\n  sstore\n    /* \"#utility.yul\":6115:6337   */\n  pop\n    /* \"#utility.yul\":5450:6337   */\n  jump(tag_106)\n    /* \"#utility.yul\":5480:6098   */\ntag_107:\n    /* \"#utility.yul\":5532:5536   */\n  0x1f\n    /* \"#utility.yul\":5528:5537   */\n  not\n    /* \"#utility.yul\":5520:5526   */\n  dup5\n    /* \"#utility.yul\":5516:5538   */\n  and\n    /* \"#utility.yul\":5566:5603   */\n  tag_110\n    /* \"#utility.yul\":5598:5602   */\n  dup7\n    /* \"#utility.yul\":5566:5603   */\n  tag_25\n  jump\t// in\ntag_110:\n    /* \"#utility.yul\":5625:5626   */\n  0x00\n    /* \"#utility.yul\":5639:5847   */\ntag_111:\n    /* \"#utility.yul\":5653:5660   */\n  dup3\n    /* \"#utility.yul\":5650:5651   */\n  dup2\n    /* \"#utility.yul\":5647:5661   */\n  lt\n    /* \"#utility.yul\":5639:5847   */\n  iszero\n  tag_113\n  jumpi\n    /* \"#utility.yul\":5732:5741   */\n  dup5\n    /* \"#utility.yul\":5727:5730   */\n  dup10\n    /* \"#utility.yul\":5723:5742   */\n  add\n    /* \"#utility.yul\":5717:5743   */\n  mload\n    /* \"#utility.yul\":5709:5715   */\n  dup3\n    /* \"#utility.yul\":5702:5744   */\n  sstore\n    /* \"#utility.yul\":5783:5784   */\n  0x01\n    /* \"#utility.yul\":5775:5781   */\n  dup3\n    /* \"#utility.yul\":5771:5785   */\n  add\n    /* \"#utility.yul\":5761:5785   */\n  swap2\n  pop\n    /* \"#utility.yul\":5830:5832   */\n  0x20\n    /* \"#utility.yul\":5819:5828   */\n  dup6\n    /* \"#utility.yul\":5815:5833   */\n  add\n    /* \"#utility.yul\":5802:5833   */\n  swap5\n  pop\n    /* \"#utility.yul\":5676:5680   */\n  0x20\n    /* \"#utility.yul\":5673:5674   */\n  dup2\n    /* \"#utility.yul\":5669:5681   */\n  add\n    /* \"#utility.yul\":5664:5681   */\n  swap1\n  pop\n    /* \"#utility.yul\":5639:5847   */\n  jump(tag_111)\ntag_113:\n    /* \"#utility.yul\":5875:5881   */\n  dup7\n    /* \"#utility.yul\":5866:5873   */\n  dup4\n    /* \"#utility.yul\":5863:5882   */\n  lt\n    /* \"#utility.yul\":5860:6039   */\n  iszero\n  tag_114\n  jumpi\n    /* \"#utility.yul\":5933:5942   */\n  dup5\n    /* \"#utility.yul\":5928:5931   */\n  dup10\n    /* \"#utility.yul\":5924:5943   */\n  add\n    /* \"#utility.yul\":5918:5944   */\n  mload\n    /* \"#utility.yul\":5976:6024   */\n  tag_115\n    /* \"#utility.yul\":6018:6022   */\n  0x1f\n    /* \"#utility.yul\":6010:6016   */\n  dup10\n    /* \"#utility.yul\":6006:6023   */\n  and\n    /* \"#utility.yul\":5995:6004   */\n  dup3\n    /* \"#utility.yul\":5976:6024   */\n  tag_39\n  jump\t// in\ntag_115:\n    /* \"#utility.yul\":5968:5974   */\n  dup4\n    /* \"#utility.yul\":5961:6025   */\n  sstore\n    /* \"#utility.yul\":5883:6039   */\n  pop\n    /* \"#utility.yul\":5860:6039   */\ntag_114:\n    /* \"#utility.yul\":6085:6086   */\n  0x01\n    /* \"#utility.yul\":6081:6082   */\n  0x02\n    /* \"#utility.yul\":6073:6079   */\n  dup9\n    /* \"#utility.yul\":6069:6083   */\n  mul\n    /* \"#utility.yul\":6065:6087   */\n  add\n    /* \"#utility.yul\":6059:6063   */\n  dup9\n    /* \"#utility.yul\":6052:6088   */\n  sstore\n    /* \"#utility.yul\":5487:6098   */\n  pop\n  pop\n  pop\n    /* \"#utility.yul\":5450:6337   */\ntag_106:\n  pop\n    /* \"#utility.yul\":5040:6343   */\n  pop\n  pop\n  pop\n    /* \"#utility.yul\":4948:6343   */\n  pop\n  pop\n  jump\t// out\n    /* \"#utility.yul\":6349:6504   */\ntag_41:\n    /* \"#utility.yul\":6489:6496   */\n  0x706567616c000000000000000000000000000000000000000000000000000000\n    /* \"#utility.yul\":6485:6486   */\n  0x00\n    /* \"#utility.yul\":6477:6483   */\n  dup3\n    /* \"#utility.yul\":6473:6487   */\n  add\n    /* \"#utility.yul\":6466:6497   */\n  mstore\n    /* \"#utility.yul\":6349:6504   */\n  pop\n  jump\t// out\n    /* \"#utility.yul\":6510:6910   */\ntag_42:\n    /* \"#utility.yul\":6670:6673   */\n  0x00\n    /* \"#utility.yul\":6691:6775   */\n  tag_118\n    /* \"#utility.yul\":6773:6774   */\n  0x05\n    /* \"#utility.yul\":6768:6771   */\n  dup4\n    /* \"#utility.yul\":6691:6775   */\n  tag_18\n  jump\t// in\ntag_118:\n    /* \"#utility.yul\":6684:6775   */\n  swap2\n  pop\n    /* \"#utility.yul\":6784:6877   */\n  tag_119\n    /* \"#utility.yul\":6873:6876   */\n  dup3\n    /* \"#utility.yul\":6784:6877   */\n  tag_41\n  jump\t// in\ntag_119:\n    /* \"#utility.yul\":6902:6903   */\n  0x05\n    /* \"#utility.yul\":6897:6900   */\n  dup3\n    /* \"#utility.yul\":6893:6904   */\n  add\n    /* \"#utility.yul\":6886:6904   */\n  swap1\n  pop\n    /* \"#utility.yul\":6510:6910   */\n  swap2\n  swap1\n  pop\n  jump\t// out\n    /* \"#utility.yul\":6916:7297   */\ntag_9:\n    /* \"#utility.yul\":7101:7104   */\n  0x00\n    /* \"#utility.yul\":7123:7271   */\n  tag_121\n    /* \"#utility.yul\":7267:7270   */\n  dup3\n    /* \"#utility.yul\":7123:7271   */\n  tag_42\n  jump\t// in\ntag_121:\n    /* \"#utility.yul\":7116:7271   */\n  swap2\n  pop\n    /* \"#utility.yul\":7288:7291   */\n  dup2\n    /* \"#utility.yul\":7281:7291   */\n  swap1\n  pop\n    /* \"#utility.yul\":6916:7297   */\n  swap2\n  swap1\n  pop\n  jump\t// out\n    /* \"#utility.yul\":7303:7463   */\ntag_43:\n    /* \"#utility.yul\":7443:7455   */\n  0x73616b6974206d61616700000000000000000000000000000000000000000000\n    /* \"#utility.yul\":7439:7440   */\n  0x00\n    /* \"#utility.yul\":7431:7437   */\n  dup3\n    /* \"#utility.yul\":7427:7441   */\n  add\n    /* \"#utility.yul\":7420:7456   */\n  mstore\n    /* \"#utility.yul\":7303:7463   */\n  pop\n  jump\t// out\n    /* \"#utility.yul\":7469:7871   */\ntag_44:\n    /* \"#utility.yul\":7629:7632   */\n  0x00\n    /* \"#utility.yul\":7650:7735   */\n  tag_124\n    /* \"#utility.yul\":7732:7734   */\n  0x0a\n    /* \"#utility.yul\":7727:7730   */\n  dup4\n    /* \"#utility.yul\":7650:7735   */\n  tag_18\n  jump\t// in\ntag_124:\n    /* \"#utility.yul\":7643:7735   */\n  swap2\n  pop\n    /* \"#utility.yul\":7744:7837   */\n  tag_125\n    /* \"#utility.yul\":7833:7836   */\n  dup3\n    /* \"#utility.yul\":7744:7837   */\n  tag_43\n  jump\t// in\ntag_125:\n    /* \"#utility.yul\":7862:7864   */\n  0x0a\n    /* \"#utility.yul\":7857:7860   */\n  dup3\n    /* \"#utility.yul\":7853:7865   */\n  add\n    /* \"#utility.yul\":7846:7865   */\n  swap1\n  pop\n    /* \"#utility.yul\":7469:7871   */\n  swap2\n  swap1\n  pop\n  jump\t// out\n    /* \"#utility.yul\":7877:8258   */\ntag_12:\n    /* \"#utility.yul\":8062:8065   */\n  0x00\n    /* \"#utility.yul\":8084:8232   */\n  tag_127\n    /* \"#utility.yul\":8228:8231   */\n  dup3\n    /* \"#utility.yul\":8084:8232   */\n  tag_44\n  jump\t// in\ntag_127:\n    /* \"#utility.yul\":8077:8232   */\n  swap2\n  pop\n    /* \"#utility.yul\":8249:8252   */\n  dup2\n    /* \"#utility.yul\":8242:8252   */\n  swap1\n  pop\n    /* \"#utility.yul\":7877:8258   */\n  swap2\n  swap1\n  pop\n  jump\t// out\n    /* \"#utility.yul\":8264:8428   */\ntag_45:\n    /* \"#utility.yul\":8404:8420   */\n  0x70656e7965676172207475627568000000000000000000000000000000000000\n    /* \"#utility.yul\":8400:8401   */\n  0x00\n    /* \"#utility.yul\":8392:8398   */\n  dup3\n    /* \"#utility.yul\":8388:8402   */\n  add\n    /* \"#utility.yul\":8381:8421   */\n  mstore\n    /* \"#utility.yul\":8264:8428   */\n  pop\n  jump\t// out\n    /* \"#utility.yul\":8434:8836   */\ntag_46:\n    /* \"#utility.yul\":8594:8597   */\n  0x00\n    /* \"#utility.yul\":8615:8700   */\n  tag_130\n    /* \"#utility.yul\":8697:8699   */\n  0x0e\n    /* \"#utility.yul\":8692:8695   */\n  dup4\n    /* \"#utility.yul\":8615:8700   */\n  tag_18\n  jump\t// in\ntag_130:\n    /* \"#utility.yul\":8608:8700   */\n  swap2\n  pop\n    /* \"#utility.yul\":8709:8802   */\n  tag_131\n    /* \"#utility.yul\":8798:8801   */\n  dup3\n    /* \"#utility.yul\":8709:8802   */\n  tag_45\n  jump\t// in\ntag_131:\n    /* \"#utility.yul\":8827:8829   */\n  0x0e\n    /* \"#utility.yul\":8822:8825   */\n  dup3\n    /* \"#utility.yul\":8818:8830   */\n  add\n    /* \"#utility.yul\":8811:8830   */\n  swap1\n  pop\n    /* \"#utility.yul\":8434:8836   */\n  swap2\n  swap1\n  pop\n  jump\t// out\n    /* \"#utility.yul\":8842:9223   */\ntag_15:\n    /* \"#utility.yul\":9027:9030   */\n  0x00\n    /* \"#utility.yul\":9049:9197   */\n  tag_133\n    /* \"#utility.yul\":9193:9196   */\n  dup3\n    /* \"#utility.yul\":9049:9197   */\n  tag_46\n  jump\t// in\ntag_133:\n    /* \"#utility.yul\":9042:9197   */\n  swap2\n  pop\n    /* \"#utility.yul\":9214:9217   */\n  dup2\n    /* \"#utility.yul\":9207:9217   */\n  swap1\n  pop\n    /* \"#utility.yul\":8842:9223   */\n  swap2\n  swap1\n  pop\n  jump\t// out\n    /* \"contracts/testingproduk.sol\":60:848  contract JamuSelection {... */\ntag_17:\n  dataSize(sub_0)\n  dup1\n  dataOffset(sub_0)\n  0x00\n  codecopy\n  0x00\n  return\nstop\n\nsub_0: assembly {\n        /* \"contracts/testingproduk.sol\":60:848  contract JamuSelection {... */\n      mstore(0x40, 0x80)\n      callvalue\n      dup1\n      iszero\n      tag_1\n      jumpi\n      revert(0x00, 0x00)\n    tag_1:\n      pop\n      jumpi(tag_2, lt(calldatasize, 0x04))\n      shr(0xe0, calldataload(0x00))\n      dup1\n      0x497a3fb0\n      eq\n      tag_3\n      jumpi\n      dup1\n      0x6ae0586c\n      eq\n      tag_4\n      jumpi\n    tag_2:\n      revert(0x00, 0x00)\n        /* \"contracts/testingproduk.sol\":517:845  function getJamuByKeluhan(string memory keluhan) public view returns (string memory) {... */\n    tag_3:\n      tag_5\n      0x04\n      dup1\n      calldatasize\n      sub\n      dup2\n      add\n      swap1\n      tag_6\n      swap2\n      swap1\n      tag_7\n      jump\t// in\n    tag_6:\n      tag_8\n      jump\t// in\n    tag_5:\n      mload(0x40)\n      tag_9\n      swap2\n      swap1\n      tag_10\n      jump\t// in\n    tag_9:\n      mload(0x40)\n      dup1\n      swap2\n      sub\n      swap1\n      return\n        /* \"contracts/testingproduk.sol\":107:152  mapping(string => string) public jamuProducts */\n    tag_4:\n      tag_11\n      0x04\n      dup1\n      calldatasize\n      sub\n      dup2\n      add\n      swap1\n      tag_12\n      swap2\n      swap1\n      tag_7\n      jump\t// in\n    tag_12:\n      tag_13\n      jump\t// in\n    tag_11:\n      mload(0x40)\n      tag_14\n      swap2\n      swap1\n      tag_10\n      jump\t// in\n    tag_14:\n      mload(0x40)\n      dup1\n      swap2\n      sub\n      swap1\n      return\n        /* \"contracts/testingproduk.sol\":517:845  function getJamuByKeluhan(string memory keluhan) public view returns (string memory) {... */\n    tag_8:\n        /* \"contracts/testingproduk.sol\":587:600  string memory */\n      0x60\n        /* \"contracts/testingproduk.sol\":694:695  0 */\n      0x00\n        /* \"contracts/testingproduk.sol\":662:674  jamuProducts */\n      0x00\n        /* \"contracts/testingproduk.sol\":675:682  keluhan */\n      dup4\n        /* \"contracts/testingproduk.sol\":662:683  jamuProducts[keluhan] */\n      mload(0x40)\n      tag_16\n      swap2\n      swap1\n      tag_17\n      jump\t// in\n    tag_16:\n      swap1\n      dup2\n      mstore\n      0x20\n      add\n      mload(0x40)\n      dup1\n      swap2\n      sub\n      swap1\n      keccak256\n        /* \"contracts/testingproduk.sol\":656:691  bytes(jamuProducts[keluhan]).length */\n      dup1\n      sload\n      tag_18\n      swap1\n      tag_19\n      jump\t// in\n    tag_18:\n      swap1\n      pop\n        /* \"contracts/testingproduk.sol\":656:695  bytes(jamuProducts[keluhan]).length > 0 */\n      gt\n        /* \"contracts/testingproduk.sol\":652:838  if (bytes(jamuProducts[keluhan]).length > 0) {... */\n      iszero\n      tag_20\n      jumpi\n        /* \"contracts/testingproduk.sol\":719:731  jamuProducts */\n      0x00\n        /* \"contracts/testingproduk.sol\":732:739  keluhan */\n      dup3\n        /* \"contracts/testingproduk.sol\":719:740  jamuProducts[keluhan] */\n      mload(0x40)\n      tag_21\n      swap2\n      swap1\n      tag_17\n      jump\t// in\n    tag_21:\n      swap1\n      dup2\n      mstore\n      0x20\n      add\n      mload(0x40)\n      dup1\n      swap2\n      sub\n      swap1\n      keccak256\n        /* \"contracts/testingproduk.sol\":712:740  return jamuProducts[keluhan] */\n      dup1\n      sload\n      tag_22\n      swap1\n      tag_19\n      jump\t// in\n    tag_22:\n      dup1\n      0x1f\n      add\n      0x20\n      dup1\n      swap2\n      div\n      mul\n      0x20\n      add\n      mload(0x40)\n      swap1\n      dup2\n      add\n      0x40\n      mstore\n      dup1\n      swap3\n      swap2\n      swap1\n      dup2\n      dup2\n      mstore\n      0x20\n      add\n      dup3\n      dup1\n      sload\n      tag_23\n      swap1\n      tag_19\n      jump\t// in\n    tag_23:\n      dup1\n      iszero\n      tag_24\n      jumpi\n      dup1\n      0x1f\n      lt\n      tag_25\n      jumpi\n      0x0100\n      dup1\n      dup4\n      sload\n      div\n      mul\n      dup4\n      mstore\n      swap2\n      0x20\n      add\n      swap2\n      jump(tag_24)\n    tag_25:\n      dup3\n      add\n      swap2\n      swap1\n      0x00\n      mstore\n      keccak256(0x00, 0x20)\n      swap1\n    tag_26:\n      dup2\n      sload\n      dup2\n      mstore\n      swap1\n      0x01\n      add\n      swap1\n      0x20\n      add\n      dup1\n      dup4\n      gt\n      tag_26\n      jumpi\n      dup3\n      swap1\n      sub\n      0x1f\n      and\n      dup3\n      add\n      swap2\n    tag_24:\n      pop\n      pop\n      pop\n      pop\n      pop\n      swap1\n      pop\n      jump(tag_15)\n        /* \"contracts/testingproduk.sol\":652:838  if (bytes(jamuProducts[keluhan]).length > 0) {... */\n    tag_20:\n        /* \"contracts/testingproduk.sol\":773:826  return \"Tidak ada jamu yang cocok untuk keluhan ini.\" */\n      mload(0x40)\n      dup1\n      0x60\n      add\n      0x40\n      mstore\n      dup1\n      0x2c\n      dup2\n      mstore\n      0x20\n      add\n      data_42bd71a7a2515d4cbb9349bb58c000cacfd846a48ad7d5b4d11176f315f41c78\n      0x2c\n      swap2\n      codecopy\n      swap1\n      pop\n        /* \"contracts/testingproduk.sol\":517:845  function getJamuByKeluhan(string memory keluhan) public view returns (string memory) {... */\n    tag_15:\n      swap2\n      swap1\n      pop\n      jump\t// out\n        /* \"contracts/testingproduk.sol\":107:152  mapping(string => string) public jamuProducts */\n    tag_13:\n      0x00\n      dup2\n      dup1\n      mload\n      0x20\n      dup2\n      add\n      dup3\n      add\n      dup1\n      mload\n      dup5\n      dup3\n      mstore\n      0x20\n      dup4\n      add\n      0x20\n      dup6\n      add\n      keccak256\n      dup2\n      dup4\n      mstore\n      dup1\n      swap6\n      pop\n      pop\n      pop\n      pop\n      pop\n      pop\n      0x00\n      swap2\n      pop\n      swap1\n      pop\n      dup1\n      sload\n      tag_28\n      swap1\n      tag_19\n      jump\t// in\n    tag_28:\n      dup1\n      0x1f\n      add\n      0x20\n      dup1\n      swap2\n      div\n      mul\n      0x20\n      add\n      mload(0x40)\n      swap1\n      dup2\n      add\n      0x40\n      mstore\n      dup1\n      swap3\n      swap2\n      swap1\n      dup2\n      dup2\n      mstore\n      0x20\n      add\n      dup3\n      dup1\n      sload\n      tag_29\n      swap1\n      tag_19\n      jump\t// in\n    tag_29:\n      dup1\n      iszero\n      tag_30\n      jumpi\n      dup1\n      0x1f\n      lt\n      tag_31\n      jumpi\n      0x0100\n      dup1\n      dup4\n      sload\n      div\n      mul\n      dup4\n      mstore\n      swap2\n      0x20\n      add\n      swap2\n      jump(tag_30)\n    tag_31:\n      dup3\n      add\n      swap2\n      swap1\n      0x00\n      mstore\n      keccak256(0x00, 0x20)\n      swap1\n    tag_32:\n      dup2\n      sload\n      dup2\n      mstore\n      swap1\n      0x01\n      add\n      swap1\n      0x20\n      add\n      dup1\n      dup4\n      gt\n      tag_32\n      jumpi\n      dup3\n      swap1\n      sub\n      0x1f\n      and\n      dup3\n      add\n      swap2\n    tag_30:\n      pop\n      pop\n      pop\n      pop\n      pop\n      dup2\n      jump\t// out\n        /* \"#utility.yul\":7:82   */\n    tag_33:\n        /* \"#utility.yul\":40:46   */\n      0x00\n        /* \"#utility.yul\":73:75   */\n      0x40\n        /* \"#utility.yul\":67:76   */\n      mload\n        /* \"#utility.yul\":57:76   */\n      swap1\n      pop\n        /* \"#utility.yul\":7:82   */\n      swap1\n      jump\t// out\n        /* \"#utility.yul\":88:205   */\n    tag_34:\n        /* \"#utility.yul\":197:198   */\n      0x00\n        /* \"#utility.yul\":194:195   */\n      0x00\n        /* \"#utility.yul\":187:199   */\n      revert\n        /* \"#utility.yul\":211:328   */\n    tag_35:\n        /* \"#utility.yul\":320:321   */\n      0x00\n        /* \"#utility.yul\":317:318   */\n      0x00\n        /* \"#utility.yul\":310:322   */\n      revert\n        /* \"#utility.yul\":334:451   */\n    tag_36:\n        /* \"#utility.yul\":443:444   */\n      0x00\n        /* \"#utility.yul\":440:441   */\n      0x00\n        /* \"#utility.yul\":433:445   */\n      revert\n        /* \"#utility.yul\":457:574   */\n    tag_37:\n        /* \"#utility.yul\":566:567   */\n      0x00\n        /* \"#utility.yul\":563:564   */\n      0x00\n        /* \"#utility.yul\":556:568   */\n      revert\n        /* \"#utility.yul\":580:682   */\n    tag_38:\n        /* \"#utility.yul\":621:627   */\n      0x00\n        /* \"#utility.yul\":672:674   */\n      0x1f\n        /* \"#utility.yul\":668:675   */\n      not\n        /* \"#utility.yul\":663:665   */\n      0x1f\n        /* \"#utility.yul\":656:661   */\n      dup4\n        /* \"#utility.yul\":652:666   */\n      add\n        /* \"#utility.yul\":648:676   */\n      and\n        /* \"#utility.yul\":638:676   */\n      swap1\n      pop\n        /* \"#utility.yul\":580:682   */\n      swap2\n      swap1\n      pop\n      jump\t// out\n        /* \"#utility.yul\":688:868   */\n    tag_39:\n        /* \"#utility.yul\":736:813   */\n      0x4e487b7100000000000000000000000000000000000000000000000000000000\n        /* \"#utility.yul\":733:734   */\n      0x00\n        /* \"#utility.yul\":726:814   */\n      mstore\n        /* \"#utility.yul\":833:837   */\n      0x41\n        /* \"#utility.yul\":830:831   */\n      0x04\n        /* \"#utility.yul\":823:838   */\n      mstore\n        /* \"#utility.yul\":857:861   */\n      0x24\n        /* \"#utility.yul\":854:855   */\n      0x00\n        /* \"#utility.yul\":847:862   */\n      revert\n        /* \"#utility.yul\":874:1155   */\n    tag_40:\n        /* \"#utility.yul\":957:984   */\n      tag_62\n        /* \"#utility.yul\":979:983   */\n      dup3\n        /* \"#utility.yul\":957:984   */\n      tag_38\n      jump\t// in\n    tag_62:\n        /* \"#utility.yul\":949:955   */\n      dup2\n        /* \"#utility.yul\":945:985   */\n      add\n        /* \"#utility.yul\":1087:1093   */\n      dup2\n        /* \"#utility.yul\":1075:1085   */\n      dup2\n        /* \"#utility.yul\":1072:1094   */\n      lt\n        /* \"#utility.yul\":1051:1069   */\n      0xffffffffffffffff\n        /* \"#utility.yul\":1039:1049   */\n      dup3\n        /* \"#utility.yul\":1036:1070   */\n      gt\n        /* \"#utility.yul\":1033:1095   */\n      or\n        /* \"#utility.yul\":1030:1118   */\n      iszero\n      tag_63\n      jumpi\n        /* \"#utility.yul\":1098:1116   */\n      tag_64\n      tag_39\n      jump\t// in\n    tag_64:\n        /* \"#utility.yul\":1030:1118   */\n    tag_63:\n        /* \"#utility.yul\":1138:1148   */\n      dup1\n        /* \"#utility.yul\":1134:1136   */\n      0x40\n        /* \"#utility.yul\":1127:1149   */\n      mstore\n        /* \"#utility.yul\":917:1155   */\n      pop\n        /* \"#utility.yul\":874:1155   */\n      pop\n      pop\n      jump\t// out\n        /* \"#utility.yul\":1161:1290   */\n    tag_41:\n        /* \"#utility.yul\":1195:1201   */\n      0x00\n        /* \"#utility.yul\":1222:1242   */\n      tag_66\n      tag_33\n      jump\t// in\n    tag_66:\n        /* \"#utility.yul\":1212:1242   */\n      swap1\n      pop\n        /* \"#utility.yul\":1251:1284   */\n      tag_67\n        /* \"#utility.yul\":1279:1283   */\n      dup3\n        /* \"#utility.yul\":1271:1277   */\n      dup3\n        /* \"#utility.yul\":1251:1284   */\n      tag_40\n      jump\t// in\n    tag_67:\n        /* \"#utility.yul\":1161:1290   */\n      swap2\n      swap1\n      pop\n      jump\t// out\n        /* \"#utility.yul\":1296:1604   */\n    tag_42:\n        /* \"#utility.yul\":1358:1362   */\n      0x00\n        /* \"#utility.yul\":1448:1466   */\n      0xffffffffffffffff\n        /* \"#utility.yul\":1440:1446   */\n      dup3\n        /* \"#utility.yul\":1437:1467   */\n      gt\n        /* \"#utility.yul\":1434:1490   */\n      iszero\n      tag_69\n      jumpi\n        /* \"#utility.yul\":1470:1488   */\n      tag_70\n      tag_39\n      jump\t// in\n    tag_70:\n        /* \"#utility.yul\":1434:1490   */\n    tag_69:\n        /* \"#utility.yul\":1508:1537   */\n      tag_71\n        /* \"#utility.yul\":1530:1536   */\n      dup3\n        /* \"#utility.yul\":1508:1537   */\n      tag_38\n      jump\t// in\n    tag_71:\n        /* \"#utility.yul\":1500:1537   */\n      swap1\n      pop\n        /* \"#utility.yul\":1592:1596   */\n      0x20\n        /* \"#utility.yul\":1586:1590   */\n      dup2\n        /* \"#utility.yul\":1582:1597   */\n      add\n        /* \"#utility.yul\":1574:1597   */\n      swap1\n      pop\n        /* \"#utility.yul\":1296:1604   */\n      swap2\n      swap1\n      pop\n      jump\t// out\n        /* \"#utility.yul\":1610:1758   */\n    tag_43:\n        /* \"#utility.yul\":1708:1714   */\n      dup3\n        /* \"#utility.yul\":1703:1706   */\n      dup2\n        /* \"#utility.yul\":1698:1701   */\n      dup4\n        /* \"#utility.yul\":1685:1715   */\n      calldatacopy\n        /* \"#utility.yul\":1749:1750   */\n      0x00\n        /* \"#utility.yul\":1740:1746   */\n      dup4\n        /* \"#utility.yul\":1735:1738   */\n      dup4\n        /* \"#utility.yul\":1731:1747   */\n      add\n        /* \"#utility.yul\":1724:1751   */\n      mstore\n        /* \"#utility.yul\":1610:1758   */\n      pop\n      pop\n      pop\n      jump\t// out\n        /* \"#utility.yul\":1764:2189   */\n    tag_44:\n        /* \"#utility.yul\":1842:1847   */\n      0x00\n        /* \"#utility.yul\":1867:1933   */\n      tag_74\n        /* \"#utility.yul\":1883:1932   */\n      tag_75\n        /* \"#utility.yul\":1925:1931   */\n      dup5\n        /* \"#utility.yul\":1883:1932   */\n      tag_42\n      jump\t// in\n    tag_75:\n        /* \"#utility.yul\":1867:1933   */\n      tag_41\n      jump\t// in\n    tag_74:\n        /* \"#utility.yul\":1858:1933   */\n      swap1\n      pop\n        /* \"#utility.yul\":1956:1962   */\n      dup3\n        /* \"#utility.yul\":1949:1954   */\n      dup2\n        /* \"#utility.yul\":1942:1963   */\n      mstore\n        /* \"#utility.yul\":1994:1998   */\n      0x20\n        /* \"#utility.yul\":1987:1992   */\n      dup2\n        /* \"#utility.yul\":1983:1999   */\n      add\n        /* \"#utility.yul\":2032:2035   */\n      dup5\n        /* \"#utility.yul\":2023:2029   */\n      dup5\n        /* \"#utility.yul\":2018:2021   */\n      dup5\n        /* \"#utility.yul\":2014:2030   */\n      add\n        /* \"#utility.yul\":2011:2036   */\n      gt\n        /* \"#utility.yul\":2008:2120   */\n      iszero\n      tag_76\n      jumpi\n        /* \"#utility.yul\":2039:2118   */\n      tag_77\n      tag_37\n      jump\t// in\n    tag_77:\n        /* \"#utility.yul\":2008:2120   */\n    tag_76:\n        /* \"#utility.yul\":2129:2183   */\n      tag_78\n        /* \"#utility.yul\":2176:2182   */\n      dup5\n        /* \"#utility.yul\":2171:2174   */\n      dup3\n        /* \"#utility.yul\":2166:2169   */\n      dup6\n        /* \"#utility.yul\":2129:2183   */\n      tag_43\n      jump\t// in\n    tag_78:\n        /* \"#utility.yul\":1848:2189   */\n      pop\n        /* \"#utility.yul\":1764:2189   */\n      swap4\n      swap3\n      pop\n      pop\n      pop\n      jump\t// out\n        /* \"#utility.yul\":2209:2549   */\n    tag_45:\n        /* \"#utility.yul\":2265:2270   */\n      0x00\n        /* \"#utility.yul\":2314:2317   */\n      dup3\n        /* \"#utility.yul\":2307:2311   */\n      0x1f\n        /* \"#utility.yul\":2299:2305   */\n      dup4\n        /* \"#utility.yul\":2295:2312   */\n      add\n        /* \"#utility.yul\":2291:2318   */\n      slt\n        /* \"#utility.yul\":2281:2403   */\n      tag_80\n      jumpi\n        /* \"#utility.yul\":2322:2401   */\n      tag_81\n      tag_36\n      jump\t// in\n    tag_81:\n        /* \"#utility.yul\":2281:2403   */\n    tag_80:\n        /* \"#utility.yul\":2439:2445   */\n      dup2\n        /* \"#utility.yul\":2426:2446   */\n      calldataload\n        /* \"#utility.yul\":2464:2543   */\n      tag_82\n        /* \"#utility.yul\":2539:2542   */\n      dup5\n        /* \"#utility.yul\":2531:2537   */\n      dup3\n        /* \"#utility.yul\":2524:2528   */\n      0x20\n        /* \"#utility.yul\":2516:2522   */\n      dup7\n        /* \"#utility.yul\":2512:2529   */\n      add\n        /* \"#utility.yul\":2464:2543   */\n      tag_44\n      jump\t// in\n    tag_82:\n        /* \"#utility.yul\":2455:2543   */\n      swap2\n      pop\n        /* \"#utility.yul\":2271:2549   */\n      pop\n        /* \"#utility.yul\":2209:2549   */\n      swap3\n      swap2\n      pop\n      pop\n      jump\t// out\n        /* \"#utility.yul\":2555:3064   */\n    tag_7:\n        /* \"#utility.yul\":2624:2630   */\n      0x00\n        /* \"#utility.yul\":2673:2675   */\n      0x20\n        /* \"#utility.yul\":2661:2670   */\n      dup3\n        /* \"#utility.yul\":2652:2659   */\n      dup5\n        /* \"#utility.yul\":2648:2671   */\n      sub\n        /* \"#utility.yul\":2644:2676   */\n      slt\n        /* \"#utility.yul\":2641:2760   */\n      iszero\n      tag_84\n      jumpi\n        /* \"#utility.yul\":2679:2758   */\n      tag_85\n      tag_34\n      jump\t// in\n    tag_85:\n        /* \"#utility.yul\":2641:2760   */\n    tag_84:\n        /* \"#utility.yul\":2827:2828   */\n      0x00\n        /* \"#utility.yul\":2816:2825   */\n      dup3\n        /* \"#utility.yul\":2812:2829   */\n      add\n        /* \"#utility.yul\":2799:2830   */\n      calldataload\n        /* \"#utility.yul\":2857:2875   */\n      0xffffffffffffffff\n        /* \"#utility.yul\":2849:2855   */\n      dup2\n        /* \"#utility.yul\":2846:2876   */\n      gt\n        /* \"#utility.yul\":2843:2960   */\n      iszero\n      tag_86\n      jumpi\n        /* \"#utility.yul\":2879:2958   */\n      tag_87\n      tag_35\n      jump\t// in\n    tag_87:\n        /* \"#utility.yul\":2843:2960   */\n    tag_86:\n        /* \"#utility.yul\":2984:3047   */\n      tag_88\n        /* \"#utility.yul\":3039:3046   */\n      dup5\n        /* \"#utility.yul\":3030:3036   */\n      dup3\n        /* \"#utility.yul\":3019:3028   */\n      dup6\n        /* \"#utility.yul\":3015:3037   */\n      add\n        /* \"#utility.yul\":2984:3047   */\n      tag_45\n      jump\t// in\n    tag_88:\n        /* \"#utility.yul\":2974:3047   */\n      swap2\n      pop\n        /* \"#utility.yul\":2770:3057   */\n      pop\n        /* \"#utility.yul\":2555:3064   */\n      swap3\n      swap2\n      pop\n      pop\n      jump\t// out\n        /* \"#utility.yul\":3070:3169   */\n    tag_46:\n        /* \"#utility.yul\":3122:3128   */\n      0x00\n        /* \"#utility.yul\":3156:3161   */\n      dup2\n        /* \"#utility.yul\":3150:3162   */\n      mload\n        /* \"#utility.yul\":3140:3162   */\n      swap1\n      pop\n        /* \"#utility.yul\":3070:3169   */\n      swap2\n      swap1\n      pop\n      jump\t// out\n        /* \"#utility.yul\":3175:3344   */\n    tag_47:\n        /* \"#utility.yul\":3259:3270   */\n      0x00\n        /* \"#utility.yul\":3293:3299   */\n      dup3\n        /* \"#utility.yul\":3288:3291   */\n      dup3\n        /* \"#utility.yul\":3281:3300   */\n      mstore\n        /* \"#utility.yul\":3333:3337   */\n      0x20\n        /* \"#utility.yul\":3328:3331   */\n      dup3\n        /* \"#utility.yul\":3324:3338   */\n      add\n        /* \"#utility.yul\":3309:3338   */\n      swap1\n      pop\n        /* \"#utility.yul\":3175:3344   */\n      swap3\n      swap2\n      pop\n      pop\n      jump\t// out\n        /* \"#utility.yul\":3350:3489   */\n    tag_48:\n        /* \"#utility.yul\":3439:3445   */\n      dup3\n        /* \"#utility.yul\":3434:3437   */\n      dup2\n        /* \"#utility.yul\":3429:3432   */\n      dup4\n        /* \"#utility.yul\":3423:3446   */\n      mcopy\n        /* \"#utility.yul\":3480:3481   */\n      0x00\n        /* \"#utility.yul\":3471:3477   */\n      dup4\n        /* \"#utility.yul\":3466:3469   */\n      dup4\n        /* \"#utility.yul\":3462:3478   */\n      add\n        /* \"#utility.yul\":3455:3482   */\n      mstore\n        /* \"#utility.yul\":3350:3489   */\n      pop\n      pop\n      pop\n      jump\t// out\n        /* \"#utility.yul\":3495:3872   */\n    tag_49:\n        /* \"#utility.yul\":3583:3586   */\n      0x00\n        /* \"#utility.yul\":3611:3650   */\n      tag_93\n        /* \"#utility.yul\":3644:3649   */\n      dup3\n        /* \"#utility.yul\":3611:3650   */\n      tag_46\n      jump\t// in\n    tag_93:\n        /* \"#utility.yul\":3666:3737   */\n      tag_94\n        /* \"#utility.yul\":3730:3736   */\n      dup2\n        /* \"#utility.yul\":3725:3728   */\n      dup6\n        /* \"#utility.yul\":3666:3737   */\n      tag_47\n      jump\t// in\n    tag_94:\n        /* \"#utility.yul\":3659:3737   */\n      swap4\n      pop\n        /* \"#utility.yul\":3746:3811   */\n      tag_95\n        /* \"#utility.yul\":3804:3810   */\n      dup2\n        /* \"#utility.yul\":3799:3802   */\n      dup6\n        /* \"#utility.yul\":3792:3796   */\n      0x20\n        /* \"#utility.yul\":3785:3790   */\n      dup7\n        /* \"#utility.yul\":3781:3797   */\n      add\n        /* \"#utility.yul\":3746:3811   */\n      tag_48\n      jump\t// in\n    tag_95:\n        /* \"#utility.yul\":3836:3865   */\n      tag_96\n        /* \"#utility.yul\":3858:3864   */\n      dup2\n        /* \"#utility.yul\":3836:3865   */\n      tag_38\n      jump\t// in\n    tag_96:\n        /* \"#utility.yul\":3831:3834   */\n      dup5\n        /* \"#utility.yul\":3827:3866   */\n      add\n        /* \"#utility.yul\":3820:3866   */\n      swap2\n      pop\n        /* \"#utility.yul\":3587:3872   */\n      pop\n        /* \"#utility.yul\":3495:3872   */\n      swap3\n      swap2\n      pop\n      pop\n      jump\t// out\n        /* \"#utility.yul\":3878:4191   */\n    tag_10:\n        /* \"#utility.yul\":3991:3995   */\n      0x00\n        /* \"#utility.yul\":4029:4031   */\n      0x20\n        /* \"#utility.yul\":4018:4027   */\n      dup3\n        /* \"#utility.yul\":4014:4032   */\n      add\n        /* \"#utility.yul\":4006:4032   */\n      swap1\n      pop\n        /* \"#utility.yul\":4078:4087   */\n      dup2\n        /* \"#utility.yul\":4072:4076   */\n      dup2\n        /* \"#utility.yul\":4068:4088   */\n      sub\n        /* \"#utility.yul\":4064:4065   */\n      0x00\n        /* \"#utility.yul\":4053:4062   */\n      dup4\n        /* \"#utility.yul\":4049:4066   */\n      add\n        /* \"#utility.yul\":4042:4089   */\n      mstore\n        /* \"#utility.yul\":4106:4184   */\n      tag_98\n        /* \"#utility.yul\":4179:4183   */\n      dup2\n        /* \"#utility.yul\":4170:4176   */\n      dup5\n        /* \"#utility.yul\":4106:4184   */\n      tag_49\n      jump\t// in\n    tag_98:\n        /* \"#utility.yul\":4098:4184   */\n      swap1\n      pop\n        /* \"#utility.yul\":3878:4191   */\n      swap3\n      swap2\n      pop\n      pop\n      jump\t// out\n        /* \"#utility.yul\":4197:4345   */\n    tag_50:\n        /* \"#utility.yul\":4299:4310   */\n      0x00\n        /* \"#utility.yul\":4336:4339   */\n      dup2\n        /* \"#utility.yul\":4321:4339   */\n      swap1\n      pop\n        /* \"#utility.yul\":4197:4345   */\n      swap3\n      swap2\n      pop\n      pop\n      jump\t// out\n        /* \"#utility.yul\":4351:4741   */\n    tag_51:\n        /* \"#utility.yul\":4457:4460   */\n      0x00\n        /* \"#utility.yul\":4485:4524   */\n      tag_101\n        /* \"#utility.yul\":4518:4523   */\n      dup3\n        /* \"#utility.yul\":4485:4524   */\n      tag_46\n      jump\t// in\n    tag_101:\n        /* \"#utility.yul\":4540:4629   */\n      tag_102\n        /* \"#utility.yul\":4622:4628   */\n      dup2\n        /* \"#utility.yul\":4617:4620   */\n      dup6\n        /* \"#utility.yul\":4540:4629   */\n      tag_50\n      jump\t// in\n    tag_102:\n        /* \"#utility.yul\":4533:4629   */\n      swap4\n      pop\n        /* \"#utility.yul\":4638:4703   */\n      tag_103\n        /* \"#utility.yul\":4696:4702   */\n      dup2\n        /* \"#utility.yul\":4691:4694   */\n      dup6\n        /* \"#utility.yul\":4684:4688   */\n      0x20\n        /* \"#utility.yul\":4677:4682   */\n      dup7\n        /* \"#utility.yul\":4673:4689   */\n      add\n        /* \"#utility.yul\":4638:4703   */\n      tag_48\n      jump\t// in\n    tag_103:\n        /* \"#utility.yul\":4728:4734   */\n      dup1\n        /* \"#utility.yul\":4723:4726   */\n      dup5\n        /* \"#utility.yul\":4719:4735   */\n      add\n        /* \"#utility.yul\":4712:4735   */\n      swap2\n      pop\n        /* \"#utility.yul\":4461:4741   */\n      pop\n        /* \"#utility.yul\":4351:4741   */\n      swap3\n      swap2\n      pop\n      pop\n      jump\t// out\n        /* \"#utility.yul\":4747:5022   */\n    tag_17:\n        /* \"#utility.yul\":4879:4882   */\n      0x00\n        /* \"#utility.yul\":4901:4996   */\n      tag_105\n        /* \"#utility.yul\":4992:4995   */\n      dup3\n        /* \"#utility.yul\":4983:4989   */\n      dup5\n        /* \"#utility.yul\":4901:4996   */\n      tag_51\n      jump\t// in\n    tag_105:\n        /* \"#utility.yul\":4894:4996   */\n      swap2\n      pop\n        /* \"#utility.yul\":5013:5016   */\n      dup2\n        /* \"#utility.yul\":5006:5016   */\n      swap1\n      pop\n        /* \"#utility.yul\":4747:5022   */\n      swap3\n      swap2\n      pop\n      pop\n      jump\t// out\n        /* \"#utility.yul\":5028:5208   */\n    tag_52:\n        /* \"#utility.yul\":5076:5153   */\n      0x4e487b7100000000000000000000000000000000000000000000000000000000\n        /* \"#utility.yul\":5073:5074   */\n      0x00\n        /* \"#utility.yul\":5066:5154   */\n      mstore\n        /* \"#utility.yul\":5173:5177   */\n      0x22\n        /* \"#utility.yul\":5170:5171   */\n      0x04\n        /* \"#utility.yul\":5163:5178   */\n      mstore\n        /* \"#utility.yul\":5197:5201   */\n      0x24\n        /* \"#utility.yul\":5194:5195   */\n      0x00\n        /* \"#utility.yul\":5187:5202   */\n      revert\n        /* \"#utility.yul\":5214:5534   */\n    tag_19:\n        /* \"#utility.yul\":5258:5264   */\n      0x00\n        /* \"#utility.yul\":5295:5296   */\n      0x02\n        /* \"#utility.yul\":5289:5293   */\n      dup3\n        /* \"#utility.yul\":5285:5297   */\n      div\n        /* \"#utility.yul\":5275:5297   */\n      swap1\n      pop\n        /* \"#utility.yul\":5342:5343   */\n      0x01\n        /* \"#utility.yul\":5336:5340   */\n      dup3\n        /* \"#utility.yul\":5332:5344   */\n      and\n        /* \"#utility.yul\":5363:5381   */\n      dup1\n        /* \"#utility.yul\":5353:5434   */\n      tag_108\n      jumpi\n        /* \"#utility.yul\":5419:5423   */\n      0x7f\n        /* \"#utility.yul\":5411:5417   */\n      dup3\n        /* \"#utility.yul\":5407:5424   */\n      and\n        /* \"#utility.yul\":5397:5424   */\n      swap2\n      pop\n        /* \"#utility.yul\":5353:5434   */\n    tag_108:\n        /* \"#utility.yul\":5481:5483   */\n      0x20\n        /* \"#utility.yul\":5473:5479   */\n      dup3\n        /* \"#utility.yul\":5470:5484   */\n      lt\n        /* \"#utility.yul\":5450:5468   */\n      dup2\n        /* \"#utility.yul\":5447:5485   */\n      sub\n        /* \"#utility.yul\":5444:5528   */\n      tag_109\n      jumpi\n        /* \"#utility.yul\":5500:5518   */\n      tag_110\n      tag_52\n      jump\t// in\n    tag_110:\n        /* \"#utility.yul\":5444:5528   */\n    tag_109:\n        /* \"#utility.yul\":5265:5534   */\n      pop\n        /* \"#utility.yul\":5214:5534   */\n      swap2\n      swap1\n      pop\n      jump\t// out\n    stop\n    data_42bd71a7a2515d4cbb9349bb58c000cacfd846a48ad7d5b4d11176f315f41c78 546964616b20616461206a616d752079616e6720636f636f6b20756e74756b206b656c7568616e20696e692e\n\n    auxdata: 0xa264697066735822122019ad88c0ada6da56d83b99b93622cbabd54bb010ba62213247e6ca263895516464736f6c634300081c0033\n}\n",
				"bytecode": {
					"linkReferences": {},
					"object": "608060405234801561000f575f5ffd5b506040518060400160405280601081526020017f4a616d75204b756e796974204173616d000000000000000000000000000000008152505f604051610053906101e1565b9081526020016040518091039020908161006d9190610432565b506040518060400160405280601181526020017f4a616d75204265726173204b656e6375720000000000000000000000000000008152505f6040516100b19061054b565b908152602001604051809103902090816100cb9190610432565b506040518060400160405280600e81526020017f4a616d752054656d756c6177616b0000000000000000000000000000000000008152505f60405161010f906105a9565b908152602001604051809103902090816101299190610432565b506040518060400160405280600e81526020017f4a616d752047756c61204173656d0000000000000000000000000000000000008152505f60405161016d90610607565b908152602001604051809103902090816101879190610432565b5061061b565b5f81905092915050565b7f706567616c206c696e75000000000000000000000000000000000000000000005f82015250565b5f6101cb600a8361018d565b91506101d682610197565b600a82019050919050565b5f6101eb826101bf565b9150819050919050565b5f81519050919050565b7f4e487b71000000000000000000000000000000000000000000000000000000005f52604160045260245ffd5b7f4e487b71000000000000000000000000000000000000000000000000000000005f52602260045260245ffd5b5f600282049050600182168061027057607f821691505b6020821081036102835761028261022c565b5b50919050565b5f819050815f5260205f209050919050565b5f6020601f8301049050919050565b5f82821b905092915050565b5f600883026102e57fffffffffffffffffffffffffffffffffffffffffffffffffffffffffffffffff826102aa565b6102ef86836102aa565b95508019841693508086168417925050509392505050565b5f819050919050565b5f819050919050565b5f61033361032e61032984610307565b610310565b610307565b9050919050565b5f819050919050565b61034c83610319565b6103606103588261033a565b8484546102b6565b825550505050565b5f5f905090565b610377610368565b610382818484610343565b505050565b5b818110156103a55761039a5f8261036f565b600181019050610388565b5050565b601f8211156103ea576103bb81610289565b6103c48461029b565b810160208510156103d3578190505b6103e76103df8561029b565b830182610387565b50505b505050565b5f82821c905092915050565b5f61040a5f19846008026103ef565b1980831691505092915050565b5f61042283836103fb565b9150826002028217905092915050565b61043b826101f5565b67ffffffffffffffff811115610454576104536101ff565b5b61045e8254610259565b6104698282856103a9565b5f60209050601f83116001811461049a575f8415610488578287015190505b6104928582610417565b8655506104f9565b601f1984166104a886610289565b5f5b828110156104cf578489015182556001820191506020850194506020810190506104aa565b868310156104ec57848901516104e8601f8916826103fb565b8355505b6001600288020188555050505b505050505050565b7f706567616c0000000000000000000000000000000000000000000000000000005f82015250565b5f61053560058361018d565b915061054082610501565b600582019050919050565b5f61055582610529565b9150819050919050565b7f73616b6974206d616167000000000000000000000000000000000000000000005f82015250565b5f610593600a8361018d565b915061059e8261055f565b600a82019050919050565b5f6105b382610587565b9150819050919050565b7f70656e79656761722074756275680000000000000000000000000000000000005f82015250565b5f6105f1600e8361018d565b91506105fc826105bd565b600e82019050919050565b5f610611826105e5565b9150819050919050565b61056c806106285f395ff3fe608060405234801561000f575f5ffd5b5060043610610034575f3560e01c8063497a3fb0146100385780636ae0586c14610068575b5f5ffd5b610052600480360381019061004d9190610396565b610098565b60405161005f919061043d565b60405180910390f35b610082600480360381019061007d9190610396565b610197565b60405161008f919061043d565b60405180910390f35b60605f5f836040516100aa9190610497565b908152602001604051809103902080546100c3906104da565b90501115610176575f826040516100da9190610497565b908152602001604051809103902080546100f3906104da565b80601f016020809104026020016040519081016040528092919081815260200182805461011f906104da565b801561016a5780601f106101415761010080835404028352916020019161016a565b820191905f5260205f20905b81548152906001019060200180831161014d57829003601f168201915b50505050509050610192565b6040518060600160405280602c815260200161050b602c913990505b919050565b5f818051602081018201805184825260208301602085012081835280955050505050505f9150905080546101ca906104da565b80601f01602080910402602001604051908101604052809291908181526020018280546101f6906104da565b80156102415780601f1061021857610100808354040283529160200191610241565b820191905f5260205f20905b81548152906001019060200180831161022457829003601f168201915b505050505081565b5f604051905090565b5f5ffd5b5f5ffd5b5f5ffd5b5f5ffd5b5f601f19601f8301169050919050565b7f4e487b71000000000000000000000000000000000000000000000000000000005f52604160045260245ffd5b6102a882610262565b810181811067ffffffffffffffff821117156102c7576102c6610272565b5b80604052505050565b5f6102d9610249565b90506102e5828261029f565b919050565b5f67ffffffffffffffff82111561030457610303610272565b5b61030d82610262565b9050602081019050919050565b828183375f83830152505050565b5f61033a610335846102ea565b6102d0565b9050828152602081018484840111156103565761035561025e565b5b61036184828561031a565b509392505050565b5f82601f83011261037d5761037c61025a565b5b813561038d848260208601610328565b91505092915050565b5f602082840312156103ab576103aa610252565b5b5f82013567ffffffffffffffff8111156103c8576103c7610256565b5b6103d484828501610369565b91505092915050565b5f81519050919050565b5f82825260208201905092915050565b8281835e5f83830152505050565b5f61040f826103dd565b61041981856103e7565b93506104298185602086016103f7565b61043281610262565b840191505092915050565b5f6020820190508181035f8301526104558184610405565b905092915050565b5f81905092915050565b5f610471826103dd565b61047b818561045d565b935061048b8185602086016103f7565b80840191505092915050565b5f6104a28284610467565b915081905092915050565b7f4e487b71000000000000000000000000000000000000000000000000000000005f52602260045260245ffd5b5f60028204905060018216806104f157607f821691505b602082108103610504576105036104ad565b5b5091905056fe546964616b20616461206a616d752079616e6720636f636f6b20756e74756b206b656c7568616e20696e692ea264697066735822122019ad88c0ada6da56d83b99b93622cbabd54bb010ba62213247e6ca263895516464736f6c634300081c0033",
					"opcodes": "PUSH1 0x80 PUSH1 0x40 MSTORE CALLVALUE DUP1 ISZERO PUSH2 0xF JUMPI PUSH0 PUSH0 REVERT JUMPDEST POP PUSH1 0x40 MLOAD DUP1 PUSH1 0x40 ADD PUSH1 0x40 MSTORE DUP1 PUSH1 0x10 DUP2 MSTORE PUSH1 0x20 ADD PUSH32 0x4A616D75204B756E796974204173616D00000000000000000000000000000000 DUP2 MSTORE POP PUSH0 PUSH1 0x40 MLOAD PUSH2 0x53 SWAP1 PUSH2 0x1E1 JUMP JUMPDEST SWAP1 DUP2 MSTORE PUSH1 0x20 ADD PUSH1 0x40 MLOAD DUP1 SWAP2 SUB SWAP1 KECCAK256 SWAP1 DUP2 PUSH2 0x6D SWAP2 SWAP1 PUSH2 0x432 JUMP JUMPDEST POP PUSH1 0x40 MLOAD DUP1 PUSH1 0x40 ADD PUSH1 0x40 MSTORE DUP1 PUSH1 0x11 DUP2 MSTORE PUSH1 0x20 ADD PUSH32 0x4A616D75204265726173204B656E637572000000000000000000000000000000 DUP2 MSTORE POP PUSH0 PUSH1 0x40 MLOAD PUSH2 0xB1 SWAP1 PUSH2 0x54B JUMP JUMPDEST SWAP1 DUP2 MSTORE PUSH1 0x20 ADD PUSH1 0x40 MLOAD DUP1 SWAP2 SUB SWAP1 KECCAK256 SWAP1 DUP2 PUSH2 0xCB SWAP2 SWAP1 PUSH2 0x432 JUMP JUMPDEST POP PUSH1 0x40 MLOAD DUP1 PUSH1 0x40 ADD PUSH1 0x40 MSTORE DUP1 PUSH1 0xE DUP2 MSTORE PUSH1 0x20 ADD PUSH32 0x4A616D752054656D756C6177616B000000000000000000000000000000000000 DUP2 MSTORE POP PUSH0 PUSH1 0x40 MLOAD PUSH2 0x10F SWAP1 PUSH2 0x5A9 JUMP JUMPDEST SWAP1 DUP2 MSTORE PUSH1 0x20 ADD PUSH1 0x40 MLOAD DUP1 SWAP2 SUB SWAP1 KECCAK256 SWAP1 DUP2 PUSH2 0x129 SWAP2 SWAP1 PUSH2 0x432 JUMP JUMPDEST POP PUSH1 0x40 MLOAD DUP1 PUSH1 0x40 ADD PUSH1 0x40 MSTORE DUP1 PUSH1 0xE DUP2 MSTORE PUSH1 0x20 ADD PUSH32 0x4A616D752047756C61204173656D000000000000000000000000000000000000 DUP2 MSTORE POP PUSH0 PUSH1 0x40 MLOAD PUSH2 0x16D SWAP1 PUSH2 0x607 JUMP JUMPDEST SWAP1 DUP2 MSTORE PUSH1 0x20 ADD PUSH1 0x40 MLOAD DUP1 SWAP2 SUB SWAP1 KECCAK256 SWAP1 DUP2 PUSH2 0x187 SWAP2 SWAP1 PUSH2 0x432 JUMP JUMPDEST POP PUSH2 0x61B JUMP JUMPDEST PUSH0 DUP2 SWAP1 POP SWAP3 SWAP2 POP POP JUMP JUMPDEST PUSH32 0x706567616C206C696E7500000000000000000000000000000000000000000000 PUSH0 DUP3 ADD MSTORE POP JUMP JUMPDEST PUSH0 PUSH2 0x1CB PUSH1 0xA DUP4 PUSH2 0x18D JUMP JUMPDEST SWAP2 POP PUSH2 0x1D6 DUP3 PUSH2 0x197 JUMP JUMPDEST PUSH1 0xA DUP3 ADD SWAP1 POP SWAP2 SWAP1 POP JUMP JUMPDEST PUSH0 PUSH2 0x1EB DUP3 PUSH2 0x1BF JUMP JUMPDEST SWAP2 POP DUP2 SWAP1 POP SWAP2 SWAP1 POP JUMP JUMPDEST PUSH0 DUP2 MLOAD SWAP1 POP SWAP2 SWAP1 POP JUMP JUMPDEST PUSH32 0x4E487B7100000000000000000000000000000000000000000000000000000000 PUSH0 MSTORE PUSH1 0x41 PUSH1 0x4 MSTORE PUSH1 0x24 PUSH0 REVERT JUMPDEST PUSH32 0x4E487B7100000000000000000000000000000000000000000000000000000000 PUSH0 MSTORE PUSH1 0x22 PUSH1 0x4 MSTORE PUSH1 0x24 PUSH0 REVERT JUMPDEST PUSH0 PUSH1 0x2 DUP3 DIV SWAP1 POP PUSH1 0x1 DUP3 AND DUP1 PUSH2 0x270 JUMPI PUSH1 0x7F DUP3 AND SWAP2 POP JUMPDEST PUSH1 0x20 DUP3 LT DUP2 SUB PUSH2 0x283 JUMPI PUSH2 0x282 PUSH2 0x22C JUMP JUMPDEST JUMPDEST POP SWAP2 SWAP1 POP JUMP JUMPDEST PUSH0 DUP2 SWAP1 POP DUP2 PUSH0 MSTORE PUSH1 0x20 PUSH0 KECCAK256 SWAP1 POP SWAP2 SWAP1 POP JUMP JUMPDEST PUSH0 PUSH1 0x20 PUSH1 0x1F DUP4 ADD DIV SWAP1 POP SWAP2 SWAP1 POP JUMP JUMPDEST PUSH0 DUP3 DUP3 SHL SWAP1 POP SWAP3 SWAP2 POP POP JUMP JUMPDEST PUSH0 PUSH1 0x8 DUP4 MUL PUSH2 0x2E5 PUSH32 0xFFFFFFFFFFFFFFFFFFFFFFFFFFFFFFFFFFFFFFFFFFFFFFFFFFFFFFFFFFFFFFFF DUP3 PUSH2 0x2AA JUMP JUMPDEST PUSH2 0x2EF DUP7 DUP4 PUSH2 0x2AA JUMP JUMPDEST SWAP6 POP DUP1 NOT DUP5 AND SWAP4 POP DUP1 DUP7 AND DUP5 OR SWAP3 POP POP POP SWAP4 SWAP3 POP POP POP JUMP JUMPDEST PUSH0 DUP2 SWAP1 POP SWAP2 SWAP1 POP JUMP JUMPDEST PUSH0 DUP2 SWAP1 POP SWAP2 SWAP1 POP JUMP JUMPDEST PUSH0 PUSH2 0x333 PUSH2 0x32E PUSH2 0x329 DUP5 PUSH2 0x307 JUMP JUMPDEST PUSH2 0x310 JUMP JUMPDEST PUSH2 0x307 JUMP JUMPDEST SWAP1 POP SWAP2 SWAP1 POP JUMP JUMPDEST PUSH0 DUP2 SWAP1 POP SWAP2 SWAP1 POP JUMP JUMPDEST PUSH2 0x34C DUP4 PUSH2 0x319 JUMP JUMPDEST PUSH2 0x360 PUSH2 0x358 DUP3 PUSH2 0x33A JUMP JUMPDEST DUP5 DUP5 SLOAD PUSH2 0x2B6 JUMP JUMPDEST DUP3 SSTORE POP POP POP POP JUMP JUMPDEST PUSH0 PUSH0 SWAP1 POP SWAP1 JUMP JUMPDEST PUSH2 0x377 PUSH2 0x368 JUMP JUMPDEST PUSH2 0x382 DUP2 DUP5 DUP5 PUSH2 0x343 JUMP JUMPDEST POP POP POP JUMP JUMPDEST JUMPDEST DUP2 DUP2 LT ISZERO PUSH2 0x3A5 JUMPI PUSH2 0x39A PUSH0 DUP3 PUSH2 0x36F JUMP JUMPDEST PUSH1 0x1 DUP2 ADD SWAP1 POP PUSH2 0x388 JUMP JUMPDEST POP POP JUMP JUMPDEST PUSH1 0x1F DUP3 GT ISZERO PUSH2 0x3EA JUMPI PUSH2 0x3BB DUP2 PUSH2 0x289 JUMP JUMPDEST PUSH2 0x3C4 DUP5 PUSH2 0x29B JUMP JUMPDEST DUP2 ADD PUSH1 0x20 DUP6 LT ISZERO PUSH2 0x3D3 JUMPI DUP2 SWAP1 POP JUMPDEST PUSH2 0x3E7 PUSH2 0x3DF DUP6 PUSH2 0x29B JUMP JUMPDEST DUP4 ADD DUP3 PUSH2 0x387 JUMP JUMPDEST POP POP JUMPDEST POP POP POP JUMP JUMPDEST PUSH0 DUP3 DUP3 SHR SWAP1 POP SWAP3 SWAP2 POP POP JUMP JUMPDEST PUSH0 PUSH2 0x40A PUSH0 NOT DUP5 PUSH1 0x8 MUL PUSH2 0x3EF JUMP JUMPDEST NOT DUP1 DUP4 AND SWAP2 POP POP SWAP3 SWAP2 POP POP JUMP JUMPDEST PUSH0 PUSH2 0x422 DUP4 DUP4 PUSH2 0x3FB JUMP JUMPDEST SWAP2 POP DUP3 PUSH1 0x2 MUL DUP3 OR SWAP1 POP SWAP3 SWAP2 POP POP JUMP JUMPDEST PUSH2 0x43B DUP3 PUSH2 0x1F5 JUMP JUMPDEST PUSH8 0xFFFFFFFFFFFFFFFF DUP2 GT ISZERO PUSH2 0x454 JUMPI PUSH2 0x453 PUSH2 0x1FF JUMP JUMPDEST JUMPDEST PUSH2 0x45E DUP3 SLOAD PUSH2 0x259 JUMP JUMPDEST PUSH2 0x469 DUP3 DUP3 DUP6 PUSH2 0x3A9 JUMP JUMPDEST PUSH0 PUSH1 0x20 SWAP1 POP PUSH1 0x1F DUP4 GT PUSH1 0x1 DUP2 EQ PUSH2 0x49A JUMPI PUSH0 DUP5 ISZERO PUSH2 0x488 JUMPI DUP3 DUP8 ADD MLOAD SWAP1 POP JUMPDEST PUSH2 0x492 DUP6 DUP3 PUSH2 0x417 JUMP JUMPDEST DUP7 SSTORE POP PUSH2 0x4F9 JUMP JUMPDEST PUSH1 0x1F NOT DUP5 AND PUSH2 0x4A8 DUP7 PUSH2 0x289 JUMP JUMPDEST PUSH0 JUMPDEST DUP3 DUP2 LT ISZERO PUSH2 0x4CF JUMPI DUP5 DUP10 ADD MLOAD DUP3 SSTORE PUSH1 0x1 DUP3 ADD SWAP2 POP PUSH1 0x20 DUP6 ADD SWAP5 POP PUSH1 0x20 DUP2 ADD SWAP1 POP PUSH2 0x4AA JUMP JUMPDEST DUP7 DUP4 LT ISZERO PUSH2 0x4EC JUMPI DUP5 DUP10 ADD MLOAD PUSH2 0x4E8 PUSH1 0x1F DUP10 AND DUP3 PUSH2 0x3FB JUMP JUMPDEST DUP4 SSTORE POP JUMPDEST PUSH1 0x1 PUSH1 0x2 DUP9 MUL ADD DUP9 SSTORE POP POP POP JUMPDEST POP POP POP POP POP POP JUMP JUMPDEST PUSH32 0x706567616C000000000000000000000000000000000000000000000000000000 PUSH0 DUP3 ADD MSTORE POP JUMP JUMPDEST PUSH0 PUSH2 0x535 PUSH1 0x5 DUP4 PUSH2 0x18D JUMP JUMPDEST SWAP2 POP PUSH2 0x540 DUP3 PUSH2 0x501 JUMP JUMPDEST PUSH1 0x5 DUP3 ADD SWAP1 POP SWAP2 SWAP1 POP JUMP JUMPDEST PUSH0 PUSH2 0x555 DUP3 PUSH2 0x529 JUMP JUMPDEST SWAP2 POP DUP2 SWAP1 POP SWAP2 SWAP1 POP JUMP JUMPDEST PUSH32 0x73616B6974206D61616700000000000000000000000000000000000000000000 PUSH0 DUP3 ADD MSTORE POP JUMP JUMPDEST PUSH0 PUSH2 0x593 PUSH1 0xA DUP4 PUSH2 0x18D JUMP JUMPDEST SWAP2 POP PUSH2 0x59E DUP3 PUSH2 0x55F JUMP JUMPDEST PUSH1 0xA DUP3 ADD SWAP1 POP SWAP2 SWAP1 POP JUMP JUMPDEST PUSH0 PUSH2 0x5B3 DUP3 PUSH2 0x587 JUMP JUMPDEST SWAP2 POP DUP2 SWAP1 POP SWAP2 SWAP1 POP JUMP JUMPDEST PUSH32 0x70656E7965676172207475627568000000000000000000000000000000000000 PUSH0 DUP3 ADD MSTORE POP JUMP JUMPDEST PUSH0 PUSH2 0x5F1 PUSH1 0xE DUP4 PUSH2 0x18D JUMP JUMPDEST SWAP2 POP PUSH2 0x5FC DUP3 PUSH2 0x5BD JUMP JUMPDEST PUSH1 0xE DUP3 ADD SWAP1 POP SWAP2 SWAP1 POP JUMP JUMPDEST PUSH0 PUSH2 0x611 DUP3 PUSH2 0x5E5 JUMP JUMPDEST SWAP2 POP DUP2 SWAP1 POP SWAP2 SWAP1 POP JUMP JUMPDEST PUSH2 0x56C DUP1 PUSH2 0x628 PUSH0 CODECOPY PUSH0 RETURN INVALID PUSH1 0x80 PUSH1 0x40 MSTORE CALLVALUE DUP1 ISZERO PUSH2 0xF JUMPI PUSH0 PUSH0 REVERT JUMPDEST POP PUSH1 0x4 CALLDATASIZE LT PUSH2 0x34 JUMPI PUSH0 CALLDATALOAD PUSH1 0xE0 SHR DUP1 PUSH4 0x497A3FB0 EQ PUSH2 0x38 JUMPI DUP1 PUSH4 0x6AE0586C EQ PUSH2 0x68 JUMPI JUMPDEST PUSH0 PUSH0 REVERT JUMPDEST PUSH2 0x52 PUSH1 0x4 DUP1 CALLDATASIZE SUB DUP2 ADD SWAP1 PUSH2 0x4D SWAP2 SWAP1 PUSH2 0x396 JUMP JUMPDEST PUSH2 0x98 JUMP JUMPDEST PUSH1 0x40 MLOAD PUSH2 0x5F SWAP2 SWAP1 PUSH2 0x43D JUMP JUMPDEST PUSH1 0x40 MLOAD DUP1 SWAP2 SUB SWAP1 RETURN JUMPDEST PUSH2 0x82 PUSH1 0x4 DUP1 CALLDATASIZE SUB DUP2 ADD SWAP1 PUSH2 0x7D SWAP2 SWAP1 PUSH2 0x396 JUMP JUMPDEST PUSH2 0x197 JUMP JUMPDEST PUSH1 0x40 MLOAD PUSH2 0x8F SWAP2 SWAP1 PUSH2 0x43D JUMP JUMPDEST PUSH1 0x40 MLOAD DUP1 SWAP2 SUB SWAP1 RETURN JUMPDEST PUSH1 0x60 PUSH0 PUSH0 DUP4 PUSH1 0x40 MLOAD PUSH2 0xAA SWAP2 SWAP1 PUSH2 0x497 JUMP JUMPDEST SWAP1 DUP2 MSTORE PUSH1 0x20 ADD PUSH1 0x40 MLOAD DUP1 SWAP2 SUB SWAP1 KECCAK256 DUP1 SLOAD PUSH2 0xC3 SWAP1 PUSH2 0x4DA JUMP JUMPDEST SWAP1 POP GT ISZERO PUSH2 0x176 JUMPI PUSH0 DUP3 PUSH1 0x40 MLOAD PUSH2 0xDA SWAP2 SWAP1 PUSH2 0x497 JUMP JUMPDEST SWAP1 DUP2 MSTORE PUSH1 0x20 ADD PUSH1 0x40 MLOAD DUP1 SWAP2 SUB SWAP1 KECCAK256 DUP1 SLOAD PUSH2 0xF3 SWAP1 PUSH2 0x4DA JUMP JUMPDEST DUP1 PUSH1 0x1F ADD PUSH1 0x20 DUP1 SWAP2 DIV MUL PUSH1 0x20 ADD PUSH1 0x40 MLOAD SWAP1 DUP2 ADD PUSH1 0x40 MSTORE DUP1 SWAP3 SWAP2 SWAP1 DUP2 DUP2 MSTORE PUSH1 0x20 ADD DUP3 DUP1 SLOAD PUSH2 0x11F SWAP1 PUSH2 0x4DA JUMP JUMPDEST DUP1 ISZERO PUSH2 0x16A JUMPI DUP1 PUSH1 0x1F LT PUSH2 0x141 JUMPI PUSH2 0x100 DUP1 DUP4 SLOAD DIV MUL DUP4 MSTORE SWAP2 PUSH1 0x20 ADD SWAP2 PUSH2 0x16A JUMP JUMPDEST DUP3 ADD SWAP2 SWAP1 PUSH0 MSTORE PUSH1 0x20 PUSH0 KECCAK256 SWAP1 JUMPDEST DUP2 SLOAD DUP2 MSTORE SWAP1 PUSH1 0x1 ADD SWAP1 PUSH1 0x20 ADD DUP1 DUP4 GT PUSH2 0x14D JUMPI DUP3 SWAP1 SUB PUSH1 0x1F AND DUP3 ADD SWAP2 JUMPDEST POP POP POP POP POP SWAP1 POP PUSH2 0x192 JUMP JUMPDEST PUSH1 0x40 MLOAD DUP1 PUSH1 0x60 ADD PUSH1 0x40 MSTORE DUP1 PUSH1 0x2C DUP2 MSTORE PUSH1 0x20 ADD PUSH2 0x50B PUSH1 0x2C SWAP2 CODECOPY SWAP1 POP JUMPDEST SWAP2 SWAP1 POP JUMP JUMPDEST PUSH0 DUP2 DUP1 MLOAD PUSH1 0x20 DUP2 ADD DUP3 ADD DUP1 MLOAD DUP5 DUP3 MSTORE PUSH1 0x20 DUP4 ADD PUSH1 0x20 DUP6 ADD KECCAK256 DUP2 DUP4 MSTORE DUP1 SWAP6 POP POP POP POP POP POP PUSH0 SWAP2 POP SWAP1 POP DUP1 SLOAD PUSH2 0x1CA SWAP1 PUSH2 0x4DA JUMP JUMPDEST DUP1 PUSH1 0x1F ADD PUSH1 0x20 DUP1 SWAP2 DIV MUL PUSH1 0x20 ADD PUSH1 0x40 MLOAD SWAP1 DUP2 ADD PUSH1 0x40 MSTORE DUP1 SWAP3 SWAP2 SWAP1 DUP2 DUP2 MSTORE PUSH1 0x20 ADD DUP3 DUP1 SLOAD PUSH2 0x1F6 SWAP1 PUSH2 0x4DA JUMP JUMPDEST DUP1 ISZERO PUSH2 0x241 JUMPI DUP1 PUSH1 0x1F LT PUSH2 0x218 JUMPI PUSH2 0x100 DUP1 DUP4 SLOAD DIV MUL DUP4 MSTORE SWAP2 PUSH1 0x20 ADD SWAP2 PUSH2 0x241 JUMP JUMPDEST DUP3 ADD SWAP2 SWAP1 PUSH0 MSTORE PUSH1 0x20 PUSH0 KECCAK256 SWAP1 JUMPDEST DUP2 SLOAD DUP2 MSTORE SWAP1 PUSH1 0x1 ADD SWAP1 PUSH1 0x20 ADD DUP1 DUP4 GT PUSH2 0x224 JUMPI DUP3 SWAP1 SUB PUSH1 0x1F AND DUP3 ADD SWAP2 JUMPDEST POP POP POP POP POP DUP2 JUMP JUMPDEST PUSH0 PUSH1 0x40 MLOAD SWAP1 POP SWAP1 JUMP JUMPDEST PUSH0 PUSH0 REVERT JUMPDEST PUSH0 PUSH0 REVERT JUMPDEST PUSH0 PUSH0 REVERT JUMPDEST PUSH0 PUSH0 REVERT JUMPDEST PUSH0 PUSH1 0x1F NOT PUSH1 0x1F DUP4 ADD AND SWAP1 POP SWAP2 SWAP1 POP JUMP JUMPDEST PUSH32 0x4E487B7100000000000000000000000000000000000000000000000000000000 PUSH0 MSTORE PUSH1 0x41 PUSH1 0x4 MSTORE PUSH1 0x24 PUSH0 REVERT JUMPDEST PUSH2 0x2A8 DUP3 PUSH2 0x262 JUMP JUMPDEST DUP2 ADD DUP2 DUP2 LT PUSH8 0xFFFFFFFFFFFFFFFF DUP3 GT OR ISZERO PUSH2 0x2C7 JUMPI PUSH2 0x2C6 PUSH2 0x272 JUMP JUMPDEST JUMPDEST DUP1 PUSH1 0x40 MSTORE POP POP POP JUMP JUMPDEST PUSH0 PUSH2 0x2D9 PUSH2 0x249 JUMP JUMPDEST SWAP1 POP PUSH2 0x2E5 DUP3 DUP3 PUSH2 0x29F JUMP JUMPDEST SWAP2 SWAP1 POP JUMP JUMPDEST PUSH0 PUSH8 0xFFFFFFFFFFFFFFFF DUP3 GT ISZERO PUSH2 0x304 JUMPI PUSH2 0x303 PUSH2 0x272 JUMP JUMPDEST JUMPDEST PUSH2 0x30D DUP3 PUSH2 0x262 JUMP JUMPDEST SWAP1 POP PUSH1 0x20 DUP2 ADD SWAP1 POP SWAP2 SWAP1 POP JUMP JUMPDEST DUP3 DUP2 DUP4 CALLDATACOPY PUSH0 DUP4 DUP4 ADD MSTORE POP POP POP JUMP JUMPDEST PUSH0 PUSH2 0x33A PUSH2 0x335 DUP5 PUSH2 0x2EA JUMP JUMPDEST PUSH2 0x2D0 JUMP JUMPDEST SWAP1 POP DUP3 DUP2 MSTORE PUSH1 0x20 DUP2 ADD DUP5 DUP5 DUP5 ADD GT ISZERO PUSH2 0x356 JUMPI PUSH2 0x355 PUSH2 0x25E JUMP JUMPDEST JUMPDEST PUSH2 0x361 DUP5 DUP3 DUP6 PUSH2 0x31A JUMP JUMPDEST POP SWAP4 SWAP3 POP POP POP JUMP JUMPDEST PUSH0 DUP3 PUSH1 0x1F DUP4 ADD SLT PUSH2 0x37D JUMPI PUSH2 0x37C PUSH2 0x25A JUMP JUMPDEST JUMPDEST DUP2 CALLDATALOAD PUSH2 0x38D DUP5 DUP3 PUSH1 0x20 DUP7 ADD PUSH2 0x328 JUMP JUMPDEST SWAP2 POP POP SWAP3 SWAP2 POP POP JUMP JUMPDEST PUSH0 PUSH1 0x20 DUP3 DUP5 SUB SLT ISZERO PUSH2 0x3AB JUMPI PUSH2 0x3AA PUSH2 0x252 JUMP JUMPDEST JUMPDEST PUSH0 DUP3 ADD CALLDATALOAD PUSH8 0xFFFFFFFFFFFFFFFF DUP2 GT ISZERO PUSH2 0x3C8 JUMPI PUSH2 0x3C7 PUSH2 0x256 JUMP JUMPDEST JUMPDEST PUSH2 0x3D4 DUP5 DUP3 DUP6 ADD PUSH2 0x369 JUMP JUMPDEST SWAP2 POP POP SWAP3 SWAP2 POP POP JUMP JUMPDEST PUSH0 DUP2 MLOAD SWAP1 POP SWAP2 SWAP1 POP JUMP JUMPDEST PUSH0 DUP3 DUP3 MSTORE PUSH1 0x20 DUP3 ADD SWAP1 POP SWAP3 SWAP2 POP POP JUMP JUMPDEST DUP3 DUP2 DUP4 MCOPY PUSH0 DUP4 DUP4 ADD MSTORE POP POP POP JUMP JUMPDEST PUSH0 PUSH2 0x40F DUP3 PUSH2 0x3DD JUMP JUMPDEST PUSH2 0x419 DUP2 DUP6 PUSH2 0x3E7 JUMP JUMPDEST SWAP4 POP PUSH2 0x429 DUP2 DUP6 PUSH1 0x20 DUP7 ADD PUSH2 0x3F7 JUMP JUMPDEST PUSH2 0x432 DUP2 PUSH2 0x262 JUMP JUMPDEST DUP5 ADD SWAP2 POP POP SWAP3 SWAP2 POP POP JUMP JUMPDEST PUSH0 PUSH1 0x20 DUP3 ADD SWAP1 POP DUP2 DUP2 SUB PUSH0 DUP4 ADD MSTORE PUSH2 0x455 DUP2 DUP5 PUSH2 0x405 JUMP JUMPDEST SWAP1 POP SWAP3 SWAP2 POP POP JUMP JUMPDEST PUSH0 DUP2 SWAP1 POP SWAP3 SWAP2 POP POP JUMP JUMPDEST PUSH0 PUSH2 0x471 DUP3 PUSH2 0x3DD JUMP JUMPDEST PUSH2 0x47B DUP2 DUP6 PUSH2 0x45D JUMP JUMPDEST SWAP4 POP PUSH2 0x48B DUP2 DUP6 PUSH1 0x20 DUP7 ADD PUSH2 0x3F7 JUMP JUMPDEST DUP1 DUP5 ADD SWAP2 POP POP SWAP3 SWAP2 POP POP JUMP JUMPDEST PUSH0 PUSH2 0x4A2 DUP3 DUP5 PUSH2 0x467 JUMP JUMPDEST SWAP2 POP DUP2 SWAP1 POP SWAP3 SWAP2 POP POP JUMP JUMPDEST PUSH32 0x4E487B7100000000000000000000000000000000000000000000000000000000 PUSH0 MSTORE PUSH1 0x22 PUSH1 0x4 MSTORE PUSH1 0x24 PUSH0 REVERT JUMPDEST PUSH0 PUSH1 0x2 DUP3 DIV SWAP1 POP PUSH1 0x1 DUP3 AND DUP1 PUSH2 0x4F1 JUMPI PUSH1 0x7F DUP3 AND SWAP2 POP JUMPDEST PUSH1 0x20 DUP3 LT DUP2 SUB PUSH2 0x504 JUMPI PUSH2 0x503 PUSH2 0x4AD JUMP JUMPDEST JUMPDEST POP SWAP2 SWAP1 POP JUMP INVALID SLOAD PUSH10 0x64616B20616461206A61 PUSH14 0x752079616E6720636F636F6B2075 PUSH15 0x74756B206B656C7568616E20696E69 0x2E LOG2 PUSH5 0x6970667358 0x22 SLT KECCAK256 NOT 0xAD DUP9 0xC0 0xAD 0xA6 0xDA JUMP 0xD8 EXTCODESIZE SWAP10 0xB9 CALLDATASIZE 0x22 0xCB 0xAB 0xD5 0x4B 0xB0 LT 0xBA PUSH3 0x213247 0xE6 0xCA 0x26 CODESIZE SWAP6 MLOAD PUSH5 0x64736F6C63 NUMBER STOP ADDMOD SHR STOP CALLER "
				},
				"gasEstimates": {
					"creation": {
						"codeDepositCost": "277600",
						"executionCost": "infinite",
						"totalCost": "infinite"
					},
					"external": {
						"getJamuByKeluhan(string)": "infinite",
						"jamuProducts(string)": "infinite"
					}
				},
				"methodIdentifiers": {
					"getJamuByKeluhan(string)": "497a3fb0",
					"jamuProducts(string)": "6ae0586c"
				}
			},
			"storageLayout": {
				"storage": [
					{
						"astId": 5,
						"contract": "contracts/testingproduk.sol:JamuSelection",
						"label": "jamuProducts",
						"offset": 0,
						"slot": "0",
						"type": "t_mapping(t_string_memory_ptr,t_string_storage)"
					}
				],
				"types": {
					"t_mapping(t_string_memory_ptr,t_string_storage)": {
						"encoding": "mapping",
						"key": "t_string_memory_ptr",
						"label": "mapping(string => string)",
						"numberOfBytes": "32",
						"value": "t_string_storage"
					},
					"t_string_memory_ptr": {
						"encoding": "bytes",
						"label": "string",
						"numberOfBytes": "32"
					},
					"t_string_storage": {
						"encoding": "bytes",
						"label": "string",
						"numberOfBytes": "32"
					}
				}
			},
			"userdoc": {
				"kind": "user",
				"methods": {},
				"version": 1
			}
		}
	}
}