{
	"data": {
		"bytecode": {
			"linkReferences": {},
			"object": "6080604052600a5f5560146001553480156017575f5ffd5b50610112806100255f395ff3fe6080604052348015600e575f5ffd5b5060043610603a575f3560e01c80631450c1ea14603e5780635870069c146058578063c6730099146072575b5f5ffd5b6044608c565b604051604f919060c5565b60405180910390f35b605e60a4565b6040516069919060c5565b60405180910390f35b607860aa565b6040516083919060c5565b60405180910390f35b5f6001545f81905550601e6001819055505f54905090565b60015481565b5f5481565b5f819050919050565b60bf8160af565b82525050565b5f60208201905060d65f83018460b8565b9291505056fea2646970667358221220e2c46725f5b51a9139558e57a15bf56d16121ac7e7faaaf3d14ffaee1e73577d64736f6c634300081c0033",
			"opcodes": "PUSH1 0x80 PUSH1 0x40 MSTORE PUSH1 0xA PUSH0 SSTORE PUSH1 0x14 PUSH1 0x1 SSTORE CALLVALUE DUP1 ISZERO PUSH1 0x17 JUMPI PUSH0 PUSH0 REVERT JUMPDEST POP PUSH2 0x112 DUP1 PUSH2 0x25 PUSH0 CODECOPY PUSH0 RETURN INVALID PUSH1 0x80 PUSH1 0x40 MSTORE CALLVALUE DUP1 ISZERO PUSH1 0xE JUMPI PUSH0 PUSH0 REVERT JUMPDEST POP PUSH1 0x4 CALLDATASIZE LT PUSH1 0x3A JUMPI PUSH0 CALLDATALOAD PUSH1 0xE0 SHR DUP1 PUSH4 0x1450C1EA EQ PUSH1 0x3E JUMPI DUP1 PUSH4 0x5870069C EQ PUSH1 0x58 JUMPI DUP1 PUSH4 0xC6730099 EQ PUSH1 0x72 JUMPI JUMPDEST PUSH0 PUSH0 REVERT JUMPDEST PUSH1 0x44 PUSH1 0x8C JUMP JUMPDEST PUSH1 0x40 MLOAD PUSH1 0x4F SWAP2 SWAP1 PUSH1 0xC5 JUMP JUMPDEST PUSH1 0x40 MLOAD DUP1 SWAP2 SUB SWAP1 RETURN JUMPDEST PUSH1 0x5E PUSH1 0xA4 JUMP JUMPDEST PUSH1 0x40 MLOAD PUSH1 0x69 SWAP2 SWAP1 PUSH1 0xC5 JUMP JUMPDEST PUSH1 0x40 MLOAD DUP1 SWAP2 SUB SWAP1 RETURN JUMPDEST PUSH1 0x78 PUSH1 0xAA JUMP JUMPDEST PUSH1 0x40 MLOAD PUSH1 0x83 SWAP2 SWAP1 PUSH1 0xC5 JUMP JUMPDEST PUSH1 0x40 MLOAD DUP1 SWAP2 SUB SWAP1 RETURN JUMPDEST PUSH0 PUSH1 0x1 SLOAD PUSH0 DUP2 SWAP1 SSTORE POP PUSH1 0x1E PUSH1 0x1 DUP2 SWAP1 SSTORE POP PUSH0 SLOAD SWAP1 POP SWAP1 JUMP JUMPDEST PUSH1 0x1 SLOAD DUP2 JUMP JUMPDEST PUSH0 SLOAD DUP2 JUMP JUMPDEST PUSH0 DUP2 SWAP1 POP SWAP2 SWAP1 POP JUMP JUMPDEST PUSH1 0xBF DUP2 PUSH1 0xAF JUMP JUMPDEST DUP3 MSTORE POP POP JUMP JUMPDEST PUSH0 PUSH1 0x20 DUP3 ADD SWAP1 POP PUSH1 0xD6 PUSH0 DUP4 ADD DUP5 PUSH1 0xB8 JUMP JUMPDEST SWAP3 SWAP2 POP POP JUMP INVALID LOG2 PUSH5 0x6970667358 0x22 SLT KECCAK256 0xE2 0xC4 PUSH8 0x25F5B51A9139558E JUMPI LOG1 JUMPDEST CREATE2 PUSH14 0x16121AC7E7FAAAF3D14FFAEE1E73 JUMPI PUSH30 0x64736F6C634300081C003300000000000000000000000000000000000000 "
		},
		"gasEstimates": {
			"creation": {
				"codeDepositCost": "54800",
				"executionCost": "44314",
				"totalCost": "99114"
			},
			"external": {
				"iniFungsi()": "48736",
				"stateVariable1()": "2446",
				"stateVariable2()": "2425"
			}
		},
		"methodIdentifiers": {
			"iniFungsi()": "1450c1ea",
			"stateVariable1()": "c6730099",
			"stateVariable2()": "5870069c"
		}
	},
	"abi": [
		{
			"inputs": [],
			"name": "iniFungsi",
			"outputs": [
				{
					"internalType": "uint256",
					"name": "",
					"type": "uint256"
				}
			],
			"stateMutability": "nonpayable",
			"type": "function"
		},
		{
			"inputs": [],
			"name": "stateVariable1",
			"outputs": [
				{
					"internalType": "uint256",
					"name": "",
					"type": "uint256"
				}
			],
			"stateMutability": "view",
			"type": "function"
		},
		{
			"inputs": [],
			"name": "stateVariable2",
			"outputs": [
				{
					"internalType": "uint256",
					"name": "",
					"type": "uint256"
				}
			],
			"stateMutability": "view",
			"type": "function"
		}
	]
}